:020000041000EA
:100000000000102065D10110A1D10110A3D1011071
:10001000A5D10110A7D10110A9D101100000000045
:10002000000000000000000000000000ABD1011043
:10003000ADD1011000000000AFD1011049870010C0
:10004000B5D10110B7D101101D940010C19300105B
:10005000BDD10110D9910010ED9100100192001056
:10006000C5D10110C7D10110C9D10110CBD10110E8
:10007000CDD10110B98C0010899100109D91001014
:10008000D5D10110D7D10110D9D10110DBD1011088
:1000900061BD0110DFD10110E1D10110E3D10110E8
:1000A000E5D10110E7D10110E9D10110EBD1011028
:1000B000E1920010EF920010FD9200100B930010DF
:1000C000F5D10110F7D10110B1910010FBD1011051
:1000D000CD8C0010FFD1011001D2011003D201100C
:1000E00005D2011007D2011009D201100BD2011064
:1000F0000DD201100FD2011011D2011013D2011034
:1001000015D2011017D2011019D201101BD2011003
:100110001DD201101FD2011021D2011023D20110D3
:1001200025D2011027D2011029D201102BD20110A3
:100130002DD201102FD20110E18C001033D201100A
:1001400035D2011037D2011039D201103BD2011043
:10015000199300102793001035930010439300105B
:10016000519300105F9300106D9300107B9300106B
:100170008993001097930010A5930010B39300107B
:1001800055D2011057D2011059D201105BD2011083
:100190005DD201105FD2011061D2011063D2011053
:1001A000C591001067D2011069D201106BD2011005
:1001B0006DD201106FD2011071D2011073D20110F3
:1001C00075D2011077D2011079D201107BD20110C3
:1001D0007DD201107FD2011081D2011083D2011093
:1001E00085D2011087D2011089D201108BD2011063
:1001F0008DD201108FD2011091D2011093D2011033
:1002000010B5054C237833B9044B13B10448AFF350
:1002100000800123237010BD601500200000000045
:1002200064ED021008B5034B1BB103490348AFF35B
:10023000008008BD000000006415002064ED02107D
:1002400080B584B000AF7860124B1B68002B02D1E0
:10025000104B114A1A600F4B1B68FB600D4B1A685C
:100260007B6813441A460D4B9A4207D91EF0B4FE20
:1002700003460C221A604FF0FF3306E0054B1A6864
:100280007B681344034A1360FB6818461037BD4669
:1002900080BD00BF7C150020503D022000F00F20E3
:1002A00080B400AF6FF010031846BD465DF8047BC4
:1002B000704780B400AF6FF010031846BD465DF87C
:1002C000047B704780B485B000AF4FF080439B68DB
:1002D00003F46063BB60BB68B3F5606F2BD0BB6891
:1002E000B3F5606F3FD8BB68B3F5406F34D0BB68DF
:1002F000B3F5406F37D8BB68B3F5206F25D0BB6826
:10030000B3F5206F2FD8BB68B3F5006F1AD0BB6868
:10031000B3F5006F27D8BB68B3F5C06F0ED0BB68CC
:10032000B3F5C06F1FD8BB68002B12D0BB68B3F504
:10033000806F15D017E0174BFB6017E04FF4FA53AE
:10034000FB6013E0144BFB6010E04FF4E103FB6033
:100350000CE0124BFB6009E04FF40043FB6005E04A
:100360000F4BFB6002E00C4BFB6000BF4FF0804383
:100370009B689B0903F007037B60FA687B6822FA9D
:1003800003F3084A136000BF1437BD465DF8047BD1
:10039000704700BF0080BB00000E27070087930353
:1003A0000048E8018015002080B400AF0023184603
:1003B000BD465DF8047B704780B400AF00BFBD460A
:1003C0005DF8047B704780B400AF00231846BD463B
:1003D0005DF8047B704780B400AF00BFBD465DF898
:1003E000047B704780B500AF00BF00BF194B1A4AAD
:1003F0009A601A4B01221A60194B40221A60174B5F
:1004000000221A60174801F02FFA164801F037FA57
:10041000144801F029FA0F4BD3F888300D4A43F401
:100420007003C2F88830BFF34F8F00BFBFF36F8FE8
:1004300000BF042002F0AEFCFFF744FFFFF7CBFF44
:10044000FFF7BAFFFFF7BFFF08F0B6FC62B600BFC8
:1004500000BF80BD00ED00E000000010000C004077
:100460000C04004000A0024080B500AF024800F03C
:1004700049F80346184680BD0040034080B500AFF0
:10048000024800F07FF800BF80BD00BF004003407D
:1004900080B483B000AF786039607B681A6D3968CA
:1004A00040F2FD730B40DB431A407B681A6500BFC6
:1004B0000C37BD465DF8047B704780B483B000AF55
:1004C00078607B685B6D1A4640F2FD7313401846F6
:1004D0000C37BD465DF8047B704780B483B000AF35
:1004E000786039607B685A6D396840F2FD730B4063
:1004F0001A437B685A6500BF0C37BD465DF8047B24
:100500007047000080B584B000AF78607868FFF76E
:10051000D4FF0346FB60FB6803F06003002B2AD086
:10052000174B1B68BB60FB6803F02003002B11D046
:10053000F9687868FFF7D1FF7B685B6803F0040314
:10054000002B07D14FF4B0717868FFF7A1FF0C487A
:1005500002F0FDFAFB6803F04003002B03D04021BA
:100560007868FFF7BAFFFB68002B04D0FA68BB6815
:10057000114600209847002318461037BD4680BD1D
:100580008415002080B483B000AF78607B685B681E
:1005900023F001027B685A6000BF0C37BD465DF84E
:1005A000047B704780B582B000AF78607B68002B19
:1005B00043DB7B680F2B40DC23497A6813469B00A2
:1005C00013449B000B441B68002B36D001211F48AD
:1005D00002F096FA0346002B02D06FF005032EE0DE
:1005E00019497A6813469B0013449B000B44002270
:1005F0001A6015497A6813469B0013449B000B440C
:100600000C331B6800221A600F497A6813469B005E
:1006100013449B000B440C3319680B487A6813464B
:100620009B0013449B0003440C331B684A685A60C8
:10063000064802F08CFA002301E06FF0020318462E
:100640000837BD4680BD00BF88150020C8160020B1
:1006500080B485B000AF7860134B1B78002B1CD1A1
:100660000023FB6013E00023BB600AE00F49FB6836
:100670005A01BB681344002241F82320BB680133B0
:10068000BB60BB681F2BF1DDFB680133FB60FB68BF
:10069000042BE8DD044B01221A700023184614379E
:1006A000BD465DF8047B70474C190020CC16002035
:1006B00080B400AF034B1B781846BD465DF8047B41
:1006C000704700BF4D19002080B582B000AF786040
:1006D0007B6803F00103002B02D0002002F086FAB1
:1006E0007B6803F00203002B02D0012002F07EFAA7
:1006F0007B6803F00403002B02D0022002F076FA9C
:100700007B6803F00803002B02D0402002F06EFA51
:100710007868FFF79DFF034618460837BD4680BD41
:1007200080B586B000AF78607B681B683B617B68F2
:100730001B68964A93421ED07B681B68944A93427A
:1007400017D07B681B68934A934210D07B681B6864
:10075000914A934209D07B681B68904A934201D129
:10076000042309E04FF0FF3306E0032304E00223F3
:1007700002E0012300E00023FB60FB68B3F1FF3FD0
:1007800002D16FF00203CEE10122FB6802FA03F30B
:100790001846FFF799FF00F091FA0346012B01D1AB
:1007A0000023C0E1FB68032B0DDC7B68997A7B6832
:1007B0005B681A46386900F053FA78617B69002B50
:1007C00001D07B69AFE1FB68032B09DC7B68197AF8
:1007D0007B685B681A46386900F0E0FA786176E079
:1007E00000237B617B681B7A022B06D0022B6ADC1C
:1007F000002B45D0012B21D065E0694B1A6A7B683C
:100800005B685B0003F002017B685B681B0103F01F
:1008100020030B43624913430B62614B9A687B6868
:100820005B685B0003F002017B685B685B0803F0B8
:1008300001030B435A4913438B6048E0584B1A6A33
:100840007B685B685B0003F002017B685B681B01EF
:1008500003F020030B43524913430B62504B9A6839
:100860007B685B685B0003F002017B685B685B0888
:1008700003F001030B43DB43494913408B6026E03F
:10088000474B1A6A7B685B685B0003F002017B6878
:100890005B681B0103F020030B43DB43404913401B
:1008A0000B623F4B9A687B685B685B0003F0020158
:1008B0007B685B685B0803F001030B43DB4338494B
:1008C00013408B6003E06FF010037B6100BF7B6916
:1008D000002B01D07B6926E1FB68032B00F3988095
:1008E0007B685B7A042B00F2908001A252F823F01F
:1008F0000509001059090010D70900102709001038
:10090000A50900103B691A6E7B685B68DB431A40DF
:100910003B691A663B695A6E7B685B68DB431A4029
:100920003B695A66F0E03B691A6E7B685B681A4364
:100930003B691A663B695A6E7B685B68DB431A4009
:100940003B695A663B69D3F8B8207B685B681A43F9
:100950003B69C3F8B820D7E03B691A6E7B685B68D7
:100960001A433B691A663B695A6E7B685B68DB43D6
:100970001A403B695A663B69D3F8B8207B685B68CC
:10098000DB431A403B69C3F8B820BDE0008000405B
:100990000090004000A000400004084000C000405B
:1009A000006C00403B691A6E7B685B68DB431A4051
:1009B0003B691A663B695A6E7B685B681A433B6900
:1009C0005A663B69D3F8B8207B685B681A433B6979
:1009D000C3F8B82098E03B691A6E7B685B68DB431C
:1009E0001A403B691A663B695A6E7B685B681A431A
:1009F0003B695A663B69D3F8B8207B685B68DB4388
:100A00001A403B69C3F8B8207EE06FF002038AE029
:100A10007B685B7A042B74D801A252F823F000BFE4
:100A2000350A0010570A0010B10A0010570A0010CA
:100A3000B10A00103E4B1A6A7B685B689B0003F0AA
:100A400004017B685B685B0103F040030B4338499A
:100A500013430B6258E0364B1A6A7B685B685B0095
:100A600003F002017B685B681B0103F0200319435C
:100A70007B685B689B0003F004007B685B685B013C
:100A800003F0400303430B43DB43294913400B624C
:100A9000274B1A6A7B685B6803F001017B685B681F
:100AA000DB0003F010030B43214913430B622BE0DF
:100AB0001F4B1A6A7B685B685B0003F002017B686E
:100AC0005B681B0103F0200319437B685B689B0094
:100AD00003F004007B685B685B0103F040030343A1
:100AE00019437B685B6803F001007B685B68DB008F
:100AF00003F0100303430B43DB430D4913400B6228
:100B000002E06FF002030EE07B681B7A002B01D13C
:100B1000002308E07B68D97A7B685B681A463869ED
:100B200000F0BAF8034618461837BD4680BD00BF2E
:100B3000006C004080B584B000AF786039607B689D
:100B40000E4A934211D10E4B1B6ADB0803F00103DE
:100B5000FB600B4B1B6A9B0903F00203BB60FA6846
:100B6000BB681A433B68134004E03968786800F0BA
:100B7000ACF8034618461037BD4680BD00C00040A3
:100B8000006C004080B582B000AF786039607B684F
:100B90000B4A93420DD10B4B1A6A3B6803F00101DB
:100BA0003B68DB0003F010030B43064913430B6261
:100BB00003E03968786800F097F80837BD4680BDD3
:100BC00000C00040006C004080B582B000AF78608B
:100BD00039607B680C4A93420ED10C4B1A6A3B6811
:100BE00003F001013B68DB0003F010030B43DB4320
:100BF000064913400B6203E03968786800F082F818
:100C00000837BD4680BD00BF00C00040006C0040FA
:100C100080B584B000AF786039607B680E4A93423B
:100C200010D10E4B1B6A03F00103FB600B4B1B6AD8
:100C3000DB0803F00203BB60FA68BB681A433B6839
:100C4000134004E03968786800F06AF803461846F3
:100C50001037BD4680BD00BF00C00040006C0040A2
:100C600080B584B000AFF8600B467A60FB72FB6819
:100C7000084A934202D16FF0100306E0FB7A7A68CB
:100C80001946F86800F05BF8034618461037BD4671
:100C900080BD00BF00C0004080B584B000AFF860E8
:100CA0000B467A60FB72FB7A7A681946F86800F0A6
:100CB00001F9034618461037BD4680BD80B500AF28
:100CC000FFF7F6FC0346184680BD80B483B000AF42
:100CD000786039607B685A6A3B68134018460C3765
:100CE000BD465DF8047B704780B483B000AF786088
:100CF00039607B683A68DA6100BF0C37BD465DF841
:100D0000047B704780B483B000AF786039607B6843
:100D10003A681A6200BF0C37BD465DF8047B704725
:100D200080B483B000AF786039607B689A693B68B3
:100D3000134018460C37BD465DF8047B704780B5FC
:100D400084B000AFF8600B467A60FB72FFF7B6FF25
:100D50000346012B01D100231CE0FB7A002B02D0BB
:100D6000012B0AD012E0FB68D3F8C0207B68DB437C
:100D70001A40FB68C3F8C0200BE0FB68D3F8C02022
:100D80007B681A43FB68C3F8C02002E06FF00203DF
:100D900000E0002318461037BD4680BD80B584B002
:100DA00000AFF8600B467A60FB72FFF787FF0346DF
:100DB000012B01D1002379E0FB681A6B7B681A4391
:100DC000FB681A63FB687A685A60FB7A052B69D85E
:100DD00001A252F823F000BFF10D0010130E001015
:100DE000350E0010510E00106D0E0010890E00100F
:100DF000FB687A685A61FB687A685A60FB687A68AF
:100E00001A67FB687A68DA67FB687A68C3F8882033
:100E10004BE0FB687A681A61FB687A685A60FB6885
:100E20007A681A67FB687A68DA67FB687A68C3F8D9
:100E300088203AE0FB687A68C3F88820FB687A6803
:100E4000DA67FB687A681A67FB687A689A602CE050
:100E5000FB687A68C3F88820FB687A68DA67FB6801
:100E60007A68DA66FB687A689A601EE0FB687A68DE
:100E7000C3F88820FB687A689A67FB687A681A6703
:100E8000FB687A689A6010E0FB687A68C3F888208B
:100E9000FB687A689A67FB687A68DA66FB687A6842
:100EA0009A6002E06FF0020300E00023184610375A
:100EB000BD4680BD80B584B000AFF8600B467A6057
:100EC000FB72FFF7FBFE0346012B01D1002368E014
:100ED000FB7A032B52D801A252F823F0ED0E00103A
:100EE000130F0010370F00105B0F0010FB68D3F8D2
:100EF000B0207B68DB431A40FB68C3F8B020FB6876
:100F0000D3F8B4207B68DB431A40FB68C3F8B420F5
:100F100046E0FB68D3F8B0207B681A43FB68C3F84F
:100F2000B020FB68D3F8B4207B68DB431A40FB6831
:100F3000C3F8B42034E0FB68D3F8B0207B68DB430F
:100F40001A40FB68C3F8B020FB68D3F8B4207B6874
:100F50001A43FB68C3F8B42022E0FB68D3F8B02042
:100F60007B681A43FB68C3F8B020FB68D3F8B42051
:100F70007B681A43FB68C3F8B42011E0FB68D3F820
:100F8000B0207B68DB431A40FB68C3F8B020FB68E5
:100F9000D3F8B4207B68DB431A40FB68C3F8B42065
:100FA000002318461037BD4680BD00BF80B582B013
:100FB00000AF7860786800F035F8034618460837C7
:100FC000BD4680BD80B584B000AFF860B9607A607E
:100FD0007A68B968F86800F043F803461846103795
:100FE000BD4680BD80B584B000AFF860B9607A605E
:100FF0007A68B968F86800F05EF80346184610375A
:10100000BD4680BD80B582B000AF7860044B1B68E0
:101010001946786800F0DAFB00BF0837BD4680BD8E
:101020000000002080B483B000AF78607B68002BA4
:1010300002D14FF0FF330DE07B681B6B43F00402DD
:101040007B681A6300BF7B681B6B03F00403002BF3
:10105000F9D1002318460C37BD465DF8047B704774
:1010600080B487B000AFF860B9607A6000237B611C
:10107000FB68002B02D0BB68002B0BD14FF0FF3375
:1010800013E0FB68D96A7B695A1C7A61BA68134419
:10109000CAB21A707A687B699A4205D9FB685B68A4
:1010A00003F00203002BECD07B6918461C37BD46C9
:1010B0005DF8047B704780B487B000AFF860B9601A
:1010C0007A6000237B61FB68002B02D0BB68002B99
:1010D0000CD14FF0FF3314E07B695A1C7A61BA6877
:1010E00013441B78DBB21A46FB68DA627A687B69C4
:1010F0009A4205D9FB685B6803F01003002BEBD024
:101100007B6918461C37BD465DF8047B704780B488
:1011100083B000AF78607B68DB6943F080027B6856
:10112000DA6100BF7B68DB6903F08003002BF9D133
:1011300000BF00BF0C37BD465DF8047B704780B42C
:1011400083B000AF78607B685B6A43F080027B68A5
:101150005A6200BF7B685B6A03F08003002BF9D101
:1011600000BF00BF0C37BD465DF8047B704780B4FC
:1011700085B000AFF860B9607A60FB68BA689A60C1
:10118000FB687A681A6100BF1437BD465DF8047BBE
:101190007047000080B584B000AF786039607B682C
:1011A000114A93420ED07B68104A934208D07B6864
:1011B0000F4A934201D1022305E04FF0FF3302E0D2
:1011C000012300E000230B4A52F82330FB60FB6848
:1011D000DB69002B04D0FB68DB693968F868984745
:1011E00000BF1037BD4680BD00D0014000E0014087
:1011F00000F001405019002080B483B000AF786047
:101200007B680022DA607B6800225A617B689A68FA
:101210007B689A607B681A697B681A617B680E4AF2
:1012200093420ED07B680D4A934208D07B680C4AEB
:10123000934201D1022305E04FF0FF3302E0012386
:1012400000E00023074A002142F8231000BF0C37BA
:10125000BD465DF8047B704700D0014000E00140CE
:1012600000F001405019002080B586B000AF7860D2
:10127000924A7B6852F823307B61914A7B6852F82E
:1012800023303B617B68002B0BD07B68012B06D0A1
:101290007B68022B01D18B4B04E0002302E08A4BD8
:1012A00000E08A4BFB608A4A7B6852F82330BB60BF
:1012B000FB689B6803F4FE43002B19D0FB689A6817
:1012C000FB689A60FB681A69FB681A61FB68002278
:1012D000DA60FB6800225A61F868FFF767FE6FF07A
:1012E0000801F868FFF756FFF868FFF785FFE2E0AE
:1012F000BB68DB687A699A4243D2FB689B6803F05B
:101300002003002B13D0BB689A687B69D118BB6897
:10131000DA687B69D31A1A46F868FFF763FE03465A
:101320001A467B6913447B61FB6820229A60BB6884
:10133000DB687A699A4206D2FB68DB6843F02002D8
:10134000FB68DA6005E0FB68DB6823F02002FB68DD
:10135000DA60BB68DB687A699A4212D1BB685B6964
:10136000002B0ED0FB681B6B43F00202FB681A6374
:10137000FB6801229A60FB68DB6843F00102FB68AE
:10138000DA60BB685B693A699A4219D2FB689B686C
:1013900003F01103002B13D0BB681A693B69D11805
:1013A000BB685A693B69D31A1A46F868FFF70AFE08
:1013B00003461A463B6913443B61FB6810229A605E
:1013C000BB68DB687A699A423AD1BB685B693A6963
:1013D0009A4235D0FB689B6803F00103002B2FD0A5
:1013E000FB6801229A603B69002B06D1BB685B68F1
:1013F0005B0043F00102FB68DA62BB685A693B6933
:10140000D31AB3F5807F03D9FB6800221A6205E086
:10141000BB685A693B69D21AFB681A62BB685B6990
:101420003A699A4206D2FB68DB6843F01102FB6816
:10143000DA6005E0FB68DB6823F01102FB68DA6024
:10144000BB68DB687A699A422BD1BB685B693A69F1
:101450009A4226D1FB680022DA60FB6800225A61BA
:10146000FB689A68FB689A60FB681A69FB681A61F6
:10147000BB689B69002B06D0FB681B6B43F0020224
:10148000FB681A6305E0FB681B6B43F00402FB6812
:101490001A630021F868FFF77DFEF868FFF7ACFEDD
:1014A00009E006497B687A6941F8232004497B6892
:1014B0003A6941F823201837BD4680BD5C190020E9
:1014C0006819002000F0014000E0014000D0014018
:1014D0005019002080B586B000AFF860B9607A601E
:1014E0003B60FB689B687B613B6800221A607B69FC
:1014F00003F4FE43002B36D03B686FF008021A60FD
:10150000BB68002B04D0BB683A680421F868984790
:1015100007226FF07F41F868FFF729FEF868FFF7B0
:101520000EFEF868FFF7F3FD7B6800221A607B6807
:10153000043300221A60FB68924A93420ED0FB6883
:10154000914A934208D0FB68904A934201D102230A
:1015500005E04FF0FF3302E0012300E000238C4A56
:10156000002142F823107B681B6803F01003002B56
:1015700006D17B6804331B6803F00103002B20D0E5
:101580007B6903F01003002B0AD0BB68002B04D04A
:10159000BB6800220221F8689847FB6810229A6015
:1015A000FB681B6903F00103002B0AD0BB68002B0A
:1015B00004D0BB6800220621F8689847FB68012226
:1015C0001A617B681A6848F220031340002B06D189
:1015D0007B6804331B6803F00203002B53D07B6944
:1015E00003F02003002B0AD0BB68002B04D0BB689B
:1015F00000220321F8689847FB6820229A60FB6864
:101600001B6903F00203002B0AD0BB68002B04D037
:10161000BB6800220521F8689847FB6802221A611E
:101620007B6903F40043002B2DD03B6800221A6035
:10163000BB68002B04D0BB683A680421F86898475F
:10164000FB684FF400429A607B6800221A607B6856
:10165000043300221A60FB684A4A93420ED0FB68AA
:10166000494A934208D0FB68484A934201D1022379
:1016700005E04FF0FF3302E0012300E00023444A7D
:10168000002142F823107B681B6803F00103002B44
:101690003DD07B6903F04003002B2DD03B68002236
:1016A0001A60BB68002B04D0BB683A680421F86854
:1016B0009847FB6840229A607B6800221A607B682A
:1016C000043300221A60FB682E4A93420ED0FB6856
:1016D0002D4A934208D0FB682C4A934201D1022341
:1016E00005E04FF0FF3302E0012300E00023284A29
:1016F000002142F823100AE07B6903F00103002B6C
:1017000005D0FB6801229A607B6808221A607B681A
:101710001B6803F00803002B53D07B6903F0080318
:10172000002B4ED07B6903F04003002B07D07B6970
:1017300003F00103002B02D1FB6840229A60FB6892
:101740001B6803F40063002B24D0BB68002B04D07B
:10175000BB6800220121F8689847FB684FF48002BB
:101760009A60FB6808229A60FB684FF400429A6016
:101770007B684FF621721A607B68043302221A607C
:101780001FE000BF00D0014000E0014000F0014038
:1017900050190020BB68002B04D0BB680022002138
:1017A000F8689847FB684FF400029A60FB680822CB
:1017B0009A607B6847F611721A607B6804330122D5
:1017C0001A6000BF1837BD4680BD00BF80B588B025
:1017D00000AF786039607B681F4A93420ED07B6807
:1017E0001E4A934208D07B681D4A934201D10223CE
:1017F00005E04FF0FF3302E0012300E00023FB612E
:10180000FB69002B23DB7B681B6803F00203002BC2
:1018100003D0F869FFF728FD1AE0124AFB6952F875
:101820002330BB617B68DB68FB607B685B693B6185
:1018300007F1140307F10C02B9697868FFF74AFE53
:10184000FA687B68DA603A697B685A6100E000BF39
:101850002037BD4680BD00BF00D0014000E0014000
:1018600000F001405019002080B582B000AF7860D0
:10187000786800F01EF800BF0837BD4680BD80B50F
:1018800082B000AF7860786800F03EF800BF08379B
:10189000BD4680BD80B483B000AF78607B68D3F86C
:1018A000003103F4803318460C37BD465DF8047BE5
:1018B000704780B582B000AF78607B68D3F80031A4
:1018C00023F001027B68C3F800217B680122C3F882
:1018D000002700BF7868FFF7DDFF0346002BF9D033
:1018E0007B68D3F8003143F001027B68C3F8002124
:1018F00000BF7868FFF7CEFF0346002BF9D000BF8A
:1019000000BF0837BD4680BD80B483B000AF7860AB
:101910007B68D3F8003123F001027B68C3F8002113
:1019200000BF0C37BD465DF8047B704780B582B0C0
:1019300000AF78607968044800F044F80346184620
:101940000837BD4680BD00BF0060004080B582B052
:1019500000AF78607968044800F059F803461846EB
:101960000837BD4680BD00BF0060004080B500AFB5
:10197000024800F072F80346184680BD006000403F
:1019800080B582B000AF78607968044800F073F8E1
:10199000034618460837BD4680BD00BF00600040C2
:1019A00080B400AF00BF064B1B6903F00803002B97
:1019B000F9D100BF00BFBD465DF8047B704700BF92
:1019C0000060004080B582B000AF786039603B684D
:1019D00003F026033B603B68002B02D16FF002034B
:1019E00011E0FFF7DDFF7B681A693B681A437B68EB
:1019F0001A613B6823F020033B603B68002B01D059
:101A0000FFF7CEFF002318460837BD4680BD80B5DE
:101A100082B000AF786039603B6803F026033B601A
:101A20003B68002B02D16FF0020312E0FFF7B8FF12
:101A30007B681A693B68DB431A407B681A613B6824
:101A400023F020033B603B68002B01D0FFF7A8FF89
:101A5000002318460837BD4680BD80B483B000AF70
:101A600078607B681B6903F0D00318460C37BD46CD
:101A70005DF8047B704780B483B000AF7860396054
:101A80007B681A693B6803F0D003DB431A407B682C
:101A90001A61002318460C37BD465DF8047B704779
:101AA00080B58CB002AFF8607B600B46FB721346CA
:101AB000BB72FB7A7B62BB7A3B627B68FB6197F807
:101AC0003030BB617B6B7B61FB687F4A93421AD0ED
:101AD000FB687E4A934214D0FB687D4A93420ED045
:101AE000FB687C4A934208D0FB687B4A934201D151
:101AF000042309E04FF0FF3306E0032304E0022350
:101B000002E0012300E000233B61FB69042B02DDBE
:101B10006FF00203D3E03B69022B08DC6F4B1B68BC
:101B20005A087B699A4202D26FF00203C7E03B6910
:101B3000022B07DD7A69694B1B689A4202D96FF064
:101B40000203BCE0FB68604A93421ED10D2001F005
:101B5000E1F9062001F04AF86148FEF7E1FD97F847
:101B60003830002B02D05F48FEF7DAFD97F83930A5
:101B7000002B02D05C48FEF7D3FD97F83A30002BDB
:101B800000F092806FF0020399E0FB684F4A9342A5
:101B90001ED10E2001F0BEF9072001F027F85348AE
:101BA000FEF7BEFD97F83830002B02D05048FEF704
:101BB000B7FD97F83930002B02D04E48FEF7B0FD44
:101BC00097F83A30002B6FD04B48FEF7A9FD6BE039
:101BD000FB683F4A93421ED10F2001F09BF9082079
:101BE00001F004F84548FEF79BFD97F83830002BCC
:101BF00002D04348FEF794FD97F83930002B02D00D
:101C00004048FEF78DFD97F83A30002B4CD03E4807
:101C1000FEF786FD48E0FB682E4A93421ED12B203A
:101C200001F078F9302000F0E1FF3848FEF778FD48
:101C300097F83830002B02D03548FEF771FD97F841
:101C40003930002B02D03348FEF76AFD97F83A305E
:101C5000002B29D03048FEF763FD25E0FB681E4AC3
:101C600093421ED12D2001F055F9312000F0BEFF26
:101C70002A48FEF755FD97F83830002B02D0284847
:101C8000FEF74EFD97F83930002B02D02548FEF7BD
:101C900047FD97F83A30002B06D02348FEF740FD69
:101CA00002E06FF001030AE0BB697A6901920093D8
:101CB000FB693A6A796AF86800F0BCF9034618468D
:101CC0002837BD4680BD00BF00600440007004405E
:101CD0000080044000E00B4000E40B408015002031
:101CE000DCB30210E8B30210F4B3021000B4021027
:101CF0000CB4021018B4021024B4021030B4021054
:101D00003CB4021048B4021054B4021060B4021083
:101D10006CB4021078B4021084B4021090B40210B3
:101D20009CB40210A8B40210B4B4021080B584B000
:101D300000AF78607B68294A93421AD07B68284AB2
:101D4000934214D07B68274A93420ED07B68264A80
:101D5000934208D07B68254A934201D1042309E0CD
:101D60004FF0FF3306E0032304E0022302E00123E7
:101D700000E00023FB60786800F05CFA7B68174A9B
:101D8000934203D1062000F0F3FE22E07B68144A60
:101D9000934203D1072000F0EBFE1AE07B68114A62
:101DA000934203D1082000F0E3FE12E07B680E4A64
:101DB000934203D1302000F0DBFE0AE07B680B4A3F
:101DC000934203D1312000F0D3FE02E06FF0010313
:101DD00000E0002318461037BD4680BD0060044077
:101DE000007004400080044000E00B4000E40B4021
:101DF00080B485B000AF78600023FB607B68434A05
:101E000093420FD07B68424A93420BD07B68414A91
:101E1000934207D07B68404A934203D07B683F4A95
:101E2000934218D17B68394A93420FD07B68384A75
:101E300093420BD07B68374A934207D07B68364A7F
:101E4000934208D07B68354A934204D0344B1B68D8
:101E50005B08FB604FE07B682C4A934248D07B686C
:101E60002B4A934244D07B682A4A934240D07B68F5
:101E7000294A934203D07B68284A934238D14FF0D5
:101E800080439B685B0A03F00703BB60BB68072BBA
:101E90002AD801A252F823F0CD1E0010E91E00102E
:101EA000BF1E0010D31E0010B91E0010C51E00106A
:101EB000DB1E0010E31E00101A4BFB6017E01A4BEC
:101EC000FB6014E04FF4E103FB6010E0174BFB6094
:101ED0000DE04FF4FA53FB6009E04FF40043FB6060
:101EE00005E0134BFB6002E06FF0020307E002E045
:101EF0006FF0020303E0FB68DA0F13445B1018462F
:101F00001437BD465DF8047B704700BF0060044095
:101F1000007004400080044000E00B4000E40B40EF
:101F200080150020000E27070048E8010087930372
:101F30000080BB0080B582B000AF7860396039683E
:101F4000786800F045FA034618460837BD4680BD5C
:101F500080B582B000AF786039603968786800F089
:101F60009FFA034618460837BD4680BD80B582B04B
:101F700000AF7860786800F015FB03461846083714
:101F8000BD4680BD80B582B000AF78600B46FB7067
:101F9000FB781946786800F01DFB034618460837A1
:101FA000BD4680BD80B582B000AF78600B46FB7047
:101FB000FB781946786800F049FB03461846083755
:101FC000BD4680BD80B584B000AFF860B9607A606E
:101FD0007A68B968F86800F089FB0346184610373C
:101FE000BD4680BD80B582B000AF7860786800F0F3
:101FF000DFFB034618460837BD4680BD80B584B078
:1020000000AFF860B9607A607A68B968F86800F083
:10201000DEFB034618461037BD4680BD80B582B052
:1020200000AF7860786800F030FC03461846083747
:10203000BD4680BD80B586B000AFF860B9607A60FB
:102040003B60FB68744A93421AD0FB68734A934220
:1020500014D0FB68724A93420ED0FB68714A9342D7
:1020600008D0FB68704A934201D1042309E04FF085
:10207000FF3306E0032304E0022302E0012300E033
:1020800000237B617B69002B02DA6FF00203BEE064
:1020900066497A6913469B001344DB000B44002217
:1020A0001A6062497A6913469B001344DB000B44B3
:1020B000083300221A605D497A6913469B00134475
:1020C000DB000B440C3301221A6058497A6913462D
:1020D0009B001344DB000B44103300221A60534969
:1020E0007A6913469B001344DB000B441C33002227
:1020F0001A604E497A6913469B001344DB000B4477
:10210000203300221A6049497A6913469B00134420
:10211000DB000B4414336FF001021A6043497A6903
:1021200013469B001344DB000B4418336FF001028D
:102130001A603E497A6913469B001344DB000B4446
:10214000273301221A70FB6801225A60FB68384A63
:102150001A61BB68002B06D0FB685B6843F0020283
:10216000FB685A6005E0FB685B6823F00202FB68CD
:102170005A60796AF868FFF7DDFE3B6AFF2B02D9E7
:102180006FF0020343E0FB68DA683B6A1B041A4302
:10219000FB68DA60FB681A6AFB681A6223497A698D
:1021A00013469B001344DB000B4427331B78002BA2
:1021B00023D03B68012B05D1FB685B6843F4803278
:1021C000FB685A603B68022B05D1FB685B6843F4EF
:1021D0004032FB685A603B68032B05D1FB685B68A3
:1021E00043F4E022FB685A603B68042B05D1FB688E
:1021F0005B6843F47022FB685A607B68002B05D053
:10220000FB68DB6843F40052FB68DA600023184681
:102210001837BD4680BD00BF006004400070044018
:102220000080044000E00B4000E40B4074190020E3
:102230000101010080B584B000AF78607B685E4A20
:1022400093421AD07B685D4A934214D07B685C4A03
:1022500093420ED07B685B4A934208D07B685A4A0F
:10226000934201D1042309E04FF0FF3306E003233A
:1022700004E0022302E0012300E00023FB607B680E
:1022800000225A627B681A6A7B681A627B685B6804
:1022900023F001027B685A607B68DB6923F04012FF
:1022A0007B68DA614949FA6813469B001344DB00F6
:1022B0000B441B68002B2AD04449FA6813469B0044
:1022C0001344DB000B441B68BB60FA6813469B0099
:1022D0001344DB003D4A1344184600F038FC3B49E8
:1022E000FA6813469B001344DB000B441B685B6ACF
:1022F000002B0CD03549FA6813469B001344DB00D1
:102300000B441B685B6A6FF00E01B86898477B68E6
:1023100000225A607B6800229A607B680022DA60A3
:102320007B6800221A612949FA6813469B0013440E
:10233000DB000B4414331B68002B16DB2349FA68BF
:1023400013469B001344DB000B4414331B681846F0
:10235000FEF728F91D49FA6813469B001344DB0079
:102360000B4414336FF001021A601849FA681346DF
:102370009B001344DB000B4418331B68002B16DB57
:102380001249FA6813469B001344DB000B441833D0
:102390001B681846FEF706F90C49FA6813469B00BD
:1023A0001344DB000B4418336FF001021A60002362
:1023B00018461037BD4680BD0060044000700440E0
:1023C0000080044000E00B4000E40B407419002042
:1023D00080B586B000AF78603960304B1B685B0811
:1023E0003A689A4202D96FF0020353E07868FFF727
:1023F000FFFC0346BB60BA683B68B2FBF3F3BB600B
:10240000BB685B087B61BB685B083B610023FB60CA
:10241000BB6803F00103002B10D07B6901337B61A3
:102420000CE07B69DA0F13445B107B613B69DA0FC8
:1024300013445B103B61FB680133FB607B690F2B2E
:1024400002DDFB68072BECDDFB68082B03D10F23B3
:102450003B610F237B617B685B6923F0FF023B6973
:10246000DBB21A437B685A617B685B6923F47F4265
:102470007B691B029BB21A437B685A617B685B696C
:1024800023F47022FB681B0403F470231A437B6857
:102490005A61002318461837BD4680BD80150020BC
:1024A00080B485B000AF786039603B68012B02D002
:1024B0003B68102B02DD6FF0020360E07B68334A5B
:1024C00093421AD07B68324A934214D07B68314AD7
:1024D00093420ED07B68304A934208D07B682F4AE3
:1024E000934201D1042309E04FF0FF3306E00323B8
:1024F00004E0022302E0012300E00023FB607B688C
:102500001B6B03F00103002B37D12549FA681346F2
:102510009B001344DB000B440C331B68012B2CD1B4
:102520007B685B6823F001027B685A6039681C484D
:10253000FA6813469B001344DB0003440833196018
:102540003B680F2B0BDC7B68DB6823F470623B6815
:102550001B0203F470631A437B68DA6005E07B6852
:10256000DB6823F470627B68DA607B685B6843F049
:1025700001027B685A60002301E06FF006031846F1
:102580001437BD465DF8047B704700BF006004400F
:10259000007004400080044000E00B4000E40B4069
:1025A0007419002080B483B000AF78607B68DB686A
:1025B00003F47063002B01D1102304E07B68DB6817
:1025C0001B0A03F00F0318460C37BD465DF8047B69
:1025D0007047000080B483B000AF78600B46FB709A
:1025E0007B68DB6823F430427B68DA60FB78032B7E
:1025F00024D801A252F823F0092600101726001053
:10260000212600102F2600107B68DB6843F400426F
:102610007B68DA6012E07B68DA687B68DA600DE07C
:102620007B68DB6843F480527B68DA6006E07B6895
:10263000DB6843F400527B68DA6000BF0023184671
:102640000C37BD465DF8047B704700BF80B483B093
:1026500000AF78600B46FB70FB78032B3ED801A2DD
:1026600052F823F0752600108F260010A9260010BE
:10267000C32600107B68DB6823F001027B68DA6008
:102680007B68DB6823F002027B68DA6027E07B6806
:10269000DB6843F001027B68DA607B68DB6823F06B
:1026A00002027B68DA601AE07B68DB6823F00102D3
:1026B0007B68DA607B68DB6843F002027B68DA6083
:1026C0000DE07B68DB6843F001027B68DA607B68C1
:1026D000DB6843F002027B68DA6000E000BF0023A1
:1026E00018460C37BD465DF8047B704780B588B04E
:1026F00000AFF860B9607A60BB68002B02D07B68DD
:10270000002B01D100234FE0F868FFF76BFCB861A4
:10271000F868FFF72BFC03467B617A68BB699A4235
:1027200001D9BB697B607B69082B03D97B6823F0E7
:1027300001037B600023FB6132E07B69082B23D916
:102740007B68032B0CD9BA68FB691344FA681268DA
:102750001A607B68043B7B60FB690433FB610FE01C
:102760007B68012B0CD9BA68FB691344FA6812889C
:1027700092B21A807B68023B7B60FB690233FB618B
:102780007B68012B0CD10EE0FB695A1CFA61BA6818
:102790001344FA681278D2B21A707B68013B7B60EE
:1027A0007B68002BC9D1FB6918462037BD4680BD28
:1027B00080B483B000AF78607B68DB691B0E03F0E8
:1027C0003F0318460C37BD465DF8047B704780B563
:1027D00088B000AFF860B9607A60BB68002B02D0A7
:1027E0007B68002B01D100234BE0F868FFF716FC53
:1027F000B861F868FFF7BAFB03467B617A68BB698A
:102800009A4201D9BB697B607B69082B03D97B683D
:1028100023F001037B600023FB612EE07B69082B22
:1028200020D97B68032B0CD9FB68B968FA690A4484
:1028300012681A607B68043B7B60FB690433FB61B0
:102840001BE07B68012B18D9FB68B968FA690A4458
:10285000128892B21A807B68023B7B60FB6902336C
:10286000FB610AE0FB695A1CFA61BA6813441A78E2
:10287000FB681A707B68013B7B607B68002BCDD1C5
:10288000FB6918462037BD4680BD80B483B000AFD9
:1028900078607B68DB691B0A03F03F03C3F1200308
:1028A00018460C37BD465DF8047B704780B500AF15
:1028B0000F4B1B6803F48033002B16D00D4B1B68A5
:1028C000002B05DD0B4B1B68013B0A4A13600CE033
:1028D00000F0BEF8084B1B68002B06D0064B1B68A7
:1028E00000209847044B00221A6000BF80BD00BF43
:1028F00010E000E004000020441A00202DE9B0435D
:1029000086B000AF786036498968796134490968D2
:1029100021F48031334801603149096801F0010137
:10292000002911D12E496FF07F4048602C496FF08B
:102930007F4088602A49052008606FF07F417961F7
:102940004FF08071396103E02549496801313961EF
:1029500079680020884681462349096800200A4694
:10296000034602FB09F008FB03F10144A8FB024502
:102970004B191D461D4A4FF00003204629461CF006
:1029800061F902460B461346FB60FA683B69B2FBED
:10299000F3F31A46164B1A60FB683A69B3FBF2F27E
:1029A000396901FB02F29B1ABB60BA687B699A42E3
:1029B0000CD30F4B1B6801330D4A13607A69BB6857
:1029C000D21A3B6913440B4A136004E07A69BB686E
:1029D000D31A084A136000BF1837BD46BDE8B0835C
:1029E00010E000E0401A00208015002040420F0057
:1029F000040000203C1A002080B582B000AF78604F
:102A00003960104A3B6813600F4B1B68002B02DDD6
:102A10006FF0050312E07B68002B01D100230DE06D
:102A20007868FFF76BFF084B1B68002B05DD074B31
:102A30001B68064A43F00203136000231846083758
:102A4000BD4680BD441A00200400002010E000E0D4
:102A500080B500AF0A4B1B68002B07D0084B1B68E2
:102A60006FF00F009847064B00221A60054A064B8C
:102A70001B681360054B4FF0FF321A6000BF80BD2A
:102A8000441A002010E000E0401A0020040000205A
:102A900080B582B000AF7860164B1B68002B02DD5A
:102AA0006FF0050321E07B68002B01D100231CE0BF
:102AB0007868FFF723FF0AE00F4B1B6803F48033AD
:102AC000002B04D00B4B1B68013B0A4A1360094BD7
:102AD0001B68002BF0DC00BF074B9A68074B1B6894
:102AE0009A42F9D8FFF7B4FF002318460837BD46CD
:102AF00080BD00BF0400002010E000E03C1A002070
:102B000080B489B000AF786039607B68FB61FB6995
:102B100053E8003FBB61BB69002B02D06FF0050397
:102B20000FE03B687B617B683B6139697A6941E80A
:102B30000023FB60FB68002BE7D1BFF35F8F00BF72
:102B4000002318462437BD465DF8047B704780B4E7
:102B500083B000AF7860BFF35F8F00BF7B68002257
:102B60001A6000BF0C37BD465DF8047B704700005B
:102B700080B483B000AF0346FB71FB793F2B0DD9C6
:102B8000FB79403BFB71184BDB68FA79012101FAB4
:102B900002F21146144A0B43D3601EE0FB791F2B4F
:102BA0000FD9FB79203BFB714FF080439B6CFA7986
:102BB000012101FA02F211464FF080420B43936467
:102BC0000BE04FF080435B6AFA79012101FA02F2CF
:102BD00011464FF080420B43536200BF0C37BD4695
:102BE0005DF8047B704700BF0000084080B483B0EC
:102BF00000AF0346FB71FB793F2B0ED9FB79403BBD
:102C0000FB71194BDB68FA79012101FA02F2D24318
:102C10001146154A0B40D36020E0FB791F2B10D9D9
:102C2000FB79203BFB714FF080439B6CFA790121CB
:102C300001FA02F2D24311464FF080420B409364F6
:102C40000CE04FF080435B6AFA79012101FA02F24D
:102C5000D24311464FF080420B40536200BF0C3705
:102C6000BD465DF8047B70470000084080B582B027
:102C700000AF0346FB71FB79072B6CD801A252F819
:102C800023F000BFDD2C0010572D00100F2D001079
:102C9000032D0010A52C0010C12C00103B2D00109E
:102CA000F92C00104FF080439B684FF0804243F4B2
:102CB000002393604FF0006000F056F803464CE0AC
:102CC0004FF080439B684FF0804243F48013936041
:102CD0004FF0805000F048F803463EE04FF080434C
:102CE0009B684FF0804243F4802393604FF08060F4
:102CF00000F03AF8034630E01A48FDF711FD0346AC
:102D00002BE04FF0005000F02FF8034625E04FF085
:102D100080435B6F4FF0804243F0110353674FF0E5
:102D200080439B684FF0804243F4803393604FF0C0
:102D3000807000F019F803460FE04FF080439B6865
:102D40004FF0804243F4003393604FF0007000F086
:102D50000BF8034601E06FF0020318460837BD4642
:102D600080BD00BF40B3021080B582B000AF786074
:102D700000214FF47A70FFF73FFE00BF4FF0804311
:102D80009A687B681340002BF8D000231846083758
:102D9000BD4680BD80B584B000AF0346FB714FF0E7
:102DA00080439B6803F46063FB60FB79072B00F2B0
:102DB000918001A252F823F0032E0010D52E0010AE
:102DC0006B2E0010952E0010D92D0010292E00100A
:102DD000AB2E0010532E00104FF080439B6803F47D
:102DE0000023002B02D10420FFF740FF4FF0804367
:102DF0009B6823F460634FF0804243F40063936068
:102E00006BE04FF080439B6803F48023002B02D1DA
:102E10000020FFF72BFF4FF080439B684FF080426C
:102E200023F46063936058E04FF080439B6803F4A1
:102E30008013002B02D10520FFF718FF4FF08043CD
:102E40009B6823F460634FF0804243F420639360F7
:102E500043E00720FFF70AFF4FF080439B684FF0E5
:102E6000804243F46063936037E04FF080439B6897
:102E700003F48033002B02D10220FFF7F7FE4FF05E
:102E800080439B6823F460634FF0804243F4806387
:102E9000936022E04FF080439B6823F460634FF01F
:102EA000804243F4C063936017E04FF080439B6817
:102EB00003F40033002B02D10620FFF7D7FE4FF0BA
:102EC00080439B6823F460634FF0804243F4406387
:102ED000936002E06FF0020318E04FF40050FFF738
:102EE00043FF0346002B0ED04FF080439B6823F432
:102EF0006062FB6803F460634FF0804113438B60B2
:102F00006FF0090302E0FDF7DDF9002318461037E2
:102F1000BD4680BD80B483B000AF0346FB71FB7932
:102F20003F2B12D9FB79403BFB71FB7901229A4080
:102F30001D4B9A6000BF1C4B9B68FA79012101FA76
:102F400002F21340002BF6D128E0FB791F2B14D995
:102F5000FB79203BFB71FB7901229A404FF08043C3
:102F60005A6400BF4FF080435B6CFA79012101FA8B
:102F700002F21340002BF5D110E0FB7901229A40B8
:102F80004FF080435A6000BF4FF080435B68FA798E
:102F9000012101FA02F21340002BF5D100BF0C37DA
:102FA000BD465DF8047B70470000084080B582B0E4
:102FB00000AF7860786800F01BF800BF0837BD46A6
:102FC00080BD80B582B000AF7860786800F054F8BA
:102FD00000BF0837BD4680BD80B582B000AF7860C5
:102FE000786800F08DF800BF0837BD4680BD00004E
:102FF00080B485B000AF78607B68194A934220D0D6
:103000007B68184A93421AD07B68174A934214D0BF
:103010007B68164A93420ED07B68154A934208D0CB
:103020007B68144A934201D105230BE04FF0FF3334
:1030300008E0042306E0032304E0022302E0012366
:1030400000E00023FB607B68DB6843F001127B68D3
:10305000DA6000BF1437BD465DF8047B704700BFDF
:1030600000000140001001400020014000300140FC
:10307000000C08400010084080B485B000AF7860B4
:103080007B68194A934220D07B68184A93421AD031
:103090007B68174A934214D07B68164A93420ED03D
:1030A0007B68154A934208D07B68144A934201D149
:1030B00005230BE04FF0FF3308E0042306E0032371
:1030C00004E0022302E0012300E00023FB607B68B0
:1030D0009B6943F001227B689A6100BF1437BD46AB
:1030E0005DF8047B704700BF000001400010014004
:1030F0000020014000300140000C08400010084052
:1031000080B485B000AF78607B68194A934220D0C4
:103110007B68184A93421AD07B68174A934214D0AE
:103120007B68164A93420ED07B68154A934208D0BA
:103130007B68144A934201D105230BE04FF0FF3323
:1031400008E0042306E0032304E0022302E0012355
:1031500000E00023FB607B689B6923F001227B6811
:103160009A6100BF1437BD465DF8047B704700BF0D
:1031700000000140001001400020014000300140EB
:10318000000C08400010084080B582B000AF7860A5
:1031900000BF786800F0A6FC0346002BF9D07868E1
:1031A00000F048FC034618460837BD4680BD80B590
:1031B00082B000AF786039603968786801F032FB1E
:1031C000034618460837BD4680BD80B582B000AFC3
:1031D0007860786801F084FB034618460837BD46DE
:1031E00080BD000080B586B000AFF860B9601346BE
:1031F000FB71F86800F05AFF034683F00103DBB26D
:10320000002B08D0F86800F075F878617B69002B16
:1032100001D07B695AE0FB682E4A934214D0FB68C8
:103220002D4A93420ED0FB682C4A934208D0FB688B
:103230002B4A934201D1032307E04FF0FF3304E010
:10324000022302E0012300E00023032B26D801A281
:1032500052F823F0653200107332001081320010F2
:103260008F3200101F48FDF75BFA0920FFF7BEFC04
:1032700017E01D48FDF754FA0A20FFF7B7FC10E0ED
:103280001A48FDF74DFA2120FFF7B0FC09E0184875
:10329000FDF746FA4420FFF7A9FC02E06FF00203B5
:1032A00014E0FB791946F86800F0CCFA78617B6984
:1032B000002B01D07B6909E0F86800F061FB034650
:1032C0001A46B968F86800F01DFD0346184618371D
:1032D000BD4680BD00200440003004400040044052
:1032E000001408404CB3021070B3021094B30210E3
:1032F000B8B3021080B582B000AF78607B68254A11
:10330000934214D07B68244A93420ED07B68234AB0
:10331000934208D07B68224A934201D1032307E0FD
:103320004FF0FF3304E0022302E0012300E000231A
:10333000032B27D801A252F823F000BF4D33001011
:103340005B33001069330010773300100B20FFF758
:10335000E1FD0920FFF70CFC17E00C20FFF7DAFD78
:103360000A20FFF705FC10E01C20FFF7D3FD212009
:10337000FFF7FEFB09E04420FFF7CCFD4420FFF7F8
:10338000F7FB02E06FF0020300E000231846083765
:10339000BD4680BD00200440003004400040044091
:1033A0000014084080B588B000AFF860B9601346DB
:1033B000FB710023BB6100237B61FB68784A934269
:1033C0000ED0FB68774A93420AD0FB68764A934254
:1033D00006D0FB68754A934202D06FF00203DAE030
:1033E000FB68724A934260D1FB6805225A61FB79FF
:1033F000022B02D0032B11D041E04FF4E102BB6855
:10340000B2FBF3F37B614FF4E103BA68B3FBF2F272
:10341000B96801FB02F29B1ABB6133E0FB681B68D1
:1034200043F48032FB681A60FB681B6843F40012A7
:10343000FB681A60BB68B3F5165F04D107237B6194
:103440000023BB610FE04FF48032BB68B2FBF3F3A3
:103450007B614FF48033BA68B3FBF2F2B96801FBC9
:1034600002F29B1ABB61BB68B3F5166F03D9FB6808
:1034700000225A6106E0FB6801225A6102E06FF007
:10348000020388E07B69002B04D0BB685A08BB6943
:103490009A4202D27B6901337B617A69FB681A61C7
:1034A000F86800F089F8F86164E0FB6805225A6169
:1034B000FB79022B32D0022B47DC002B02D0012BF0
:1034C00017D042E0FB681A68FB681A60384B1B682B
:1034D0005A08BB68B2FBF3F37B61354B1B685B0892
:1034E000BA68B3FBF2F2B96801FB02F29B1ABB6146
:1034F0002EE0FB681B6843F48032FB681A602D4A9B
:10350000BB68B2FBF3F37B612A4BBA68B3FBF2F200
:10351000B96801FB02F29B1ABB6119E0FB681B68EA
:1035200043F40032FB681A604FF4E102BB68B2FB5F
:10353000F3F37B614FF4E103BA68B3FBF2F2B968CD
:1035400001FB02F29B1ABB6102E06FF0020322E072
:103550007B69002B04D0BB685A08BB699A4202D22F
:103560007B6901337B617A69FB681A61F86800F056
:1035700023F8F861FB69002B0CDDFB681B6843F442
:103580000042FB681A6000BFFB681B6803F400235D
:10359000002BF9D0FB6918462037BD4680BD00BF1F
:1035A0000020044000300440004004400014084063
:1035B000801500200048E80180B485B000AF786035
:1035C0000023FB607B68314A93420ED07B68304A0F
:1035D00093420AD07B682F4A934206D07B682E4ADA
:1035E000934202D06FF0020349E07B682A4A93427B
:1035F0001DD17B681B6803F44033B3F5803F03D1D2
:103600004FF48033FB600CE07B681B6803F44033AD
:10361000002B03D14FF4E103FB6002E06FF00203E3
:103620002DE0FA687B681B69B2FBF3F327E07B6847
:103630001B6803F44033B3F5803F02D1174BFB60A6
:1036400018E07B681B6803F44033002B04D1144B53
:103650001B685B08FB600DE07B681B6803F440336C
:10366000B3F5003F03D14FF4E103FB6002E06FF0DC
:10367000020304E0FA687B681B69B2FBF3F31846A7
:103680001437BD465DF8047B704700BF002004403E
:103690000030044000400440001408400048E801A5
:1036A0008015002080B582B000AF7860396039683D
:1036B000786800F0C9FB034618460837BD4680BD50
:1036C00080B582B000AF78600B46FB70FB7819467E
:1036D000786800F0DCFB034618460837BD4680BD1D
:1036E00080B582B000AF78600B46FB70FB7819465E
:1036F000786800F0F1FB034618460837BD4680BDE8
:1037000080B584B000AFF8600B467A60FB72FB7A3C
:10371000012B3AD1FB683F4A934214D0FB683E4AE2
:1037200093420ED0FB683D4A934208D0FB683C4A66
:10373000934201D1032307E04FF0FF3304E002235B
:1037400002E0012300E00023032B1BD801A252F862
:1037500023F000BF653700106D370010753700107B
:103760007D3700102F48FCF7DBFF48E02E48FCF7C0
:10377000D7FF44E02D48FCF7D3FF40E02C48FCF78E
:10378000CFFF3CE06FF0020340E0FB68214A934228
:1037900014D0FB68204A93420ED0FB681F4A934224
:1037A00008D0FB681E4A934201D1032307E04FF083
:1037B000FF3304E0022302E0012300E00023032B97
:1037C0001AD801A252F823F0D9370010E1370010BF
:1037D000E9370010F13700101648FCF7A1FF0EE0A2
:1037E0001548FCF79DFF0AE01448FCF799FF06E036
:1037F0001348FCF795FF02E06FF0020306E0FB7A46
:103800007A681946F86800F081FC034618461037BC
:10381000BD4680BD0020044000300440004004400C
:103820000014084058B302107CB30210A0B3021079
:10383000C4B3021064B3021088B30210ACB3021018
:10384000D0B3021080B586B000AF78600B46FB7035
:1038500000237B610023FB747B68454A934214D0AC
:103860007B68444A93420ED07B68434A934208D017
:103870007B68424A934201D1032307E04FF0FF33B4
:1038800004E0022302E0012300E00023FB60FB6868
:10389000002B02DA6FF0020366E07B68344A934241
:1038A00014D07B68334A93420ED07B68324A9342ED
:1038B00008D07B68314A934201D1032307E04FF0DF
:1038C000FF3304E0022302E0012300E00023022B87
:1038D00002DC002B03DA39E0032B1FD036E0FB7843
:1038E000022B10D0022B15DC002B02D0012B03D0B1
:1038F00010E00023FB7410E00220FFF7B7F97861B5
:103900000123FB7409E00520FFF7B0F97861022379
:10391000FB7402E06FF0020326E01AE0FB78022B52
:1039200002D0032B07D00DE00520FFF79FF9786147
:103930000023FB7409E00620FFF798F97861012362
:10394000FB7402E06FF002030EE002E06FF002038E
:103950000AE07B69002B01D07B6905E0FB7C1946FE
:10396000786800F02DFB034618461837BD4680BD29
:10397000002004400030044000400440001408408F
:1039800080B584B000AF7860786800F07FFBF860A5
:103990007B68244A934214D07B68234A93420ED01A
:1039A0007B68224A934208D07B68214A934201D126
:1039B000032307E04FF0FF3304E0022302E001237A
:1039C00000E00023022B02DC002B03DA24E0032BAF
:1039D00015D021E0FB68022B0DD0FB68022B0CD820
:1039E000FB68002B03D0FB68012B02D005E000230D
:1039F00013E0012311E002230FE0F9230DE0FB683F
:103A0000002B03D0FB68012B02D003E0022304E06B
:103A1000032302E0F92300E0FD2318461037BD46DA
:103A200080BD00BF0020044000300440004004403E
:103A30000014084080B582B000AF7860786800F06C
:103A40008AFB034618460837BD4680BD80B582B064
:103A500000AF78600B46FB70FB781946786800F081
:103A60008FFB034618460837BD4680BD80B582B03F
:103A700000AF78607868FFF787FB03461846083781
:103A8000BD4680BD80B584B000AFF860B9607A6093
:103A90007A68B968F86800F08CFB0346184610375E
:103AA000BD4680BD80B584B000AFF860B9607A6073
:103AB0007A68B968F86800F0B2FB03461846103718
:103AC000BD4680BD80B584B000AFF860B9607A6053
:103AD0007A68B968F86800F0D7FB034618461037D3
:103AE000BD4680BD80B582B000AF7860786800F0D8
:103AF000F1FB034618460837BD4680BD80B584B04B
:103B000000AFF860B9607A607A68B968F86800F068
:103B1000F0FB034618461037BD4680BD80B582B025
:103B200000AF7860786800F00AFC03461846083752
:103B3000BD4680BD80B582B000AF7860786800F087
:103B400011FC034618460837BD4680BD80B582B0DB
:103B500000AF786039603968786800F01BFC034674
:103B600018460837BD4680BD80B582B000AF78608A
:103B7000786800F02EFC034618460837BD4680BD25
:103B800080B582B000AF786039603968786800F03D
:103B90002CFC034618460837BD4680BD80B582B070
:103BA00000AF786039603968786800F02DFC034612
:103BB00018460837BD4680BD80B582B000AF78603A
:103BC00039603968786800F031FC034618460837D8
:103BD000BD4680BD80B582B000AF7860786800F0E7
:103BE00038FC034618460837BD4680BD80B582B014
:103BF00000AF7860786800F039FC03461846083753
:103C0000BD4680BD80B582B000AF7860786800F0B6
:103C100075FE034618460837BD4680BD80B582B0A4
:103C200000AF7860786800F07BFE034618460837DE
:103C3000BD4680BD80B483B000AF0346FB71FB7905
:103C400003F01F03012202FA03F1064A97F9073035
:103C50005B09403342F8231000BF0C37BD465DF8C6
:103C6000047B704700E100E080B584B000AF78606D
:103C70007B681B6810211846FFF782FF7B681B6872
:103C80001846FFF72FFFF8607B681A697B689B690D
:103C9000D31AFA68934228BF1346FB607B68186802
:103CA0007B689A687B689B691344FA681946FFF73A
:103CB00009FFF8607B689A69FB681A447B689A611F
:103CC0007B681A697B689B69D31AFB60FB68072BCA
:103CD00001D90723FB607B681B68F9681846FFF76A
:103CE00035FFFB68002B08D07B681B681846FFF780
:103CF000F9FE0246FB689342BAD900BF1037BD46B1
:103D000080BD000080B586B000AFF860B960134692
:103D1000FB710121F868FFF719FF78617B69002BBF
:103D200001D07B6982E00821F868FFF7BBFC78616D
:103D30007B69002B01D07B6978E00021F868FFF7F0
:103D4000CFFC78617B69002B01D07B696EE000219C
:103D5000F868FFF7B5FC78617B69002B01D07B69BF
:103D600064E0FB791A46B968F868FFF71BFB7861D5
:103D70007B69002B01DA7B6958E0FB682D4A93428E
:103D800014D0FB682C4A93420ED0FB682B4A934216
:103D900008D0FB682A4A934201D1032307E04FF081
:103DA000FF3304E0022302E0012300E000233B6133
:103DB00024493A6913465B001344DB000B440C337F
:103DC0004FF0FF321A601F493A6913465B001344F3
:103DD000DB000B4408334FF0FF321A6019493A698F
:103DE00013465B001344DB000B4400221A601549A4
:103DF0003A6913465B001344DB000B440433002292
:103E00001A6010493A6913465B001344DB000B4407
:103E1000103300221A700B493A6913465B001344B1
:103E2000DB000B44143300221A60002318461837B5
:103E3000BD4680BD002004400030044000400440E6
:103E4000001408400800002080B483B000AF786000
:103E500039603B68042B02DD3B68082B02DD6FF004
:103E600002030EE03B68053B9B023B607B681B68DE
:103E700023F440623B6803F440631A437B681A6092
:103E8000002318460C37BD465DF8047B704780B4AC
:103E900083B000AF78600B46FB70FB78002B02D03C
:103EA000012B07D00DE07B681B6823F480527B68F0
:103EB0001A6009E07B681B6843F480527B681A60D3
:103EC00002E06FF0020300E0002318460C37BD4605
:103ED0005DF8047B7047000080B483B000AF786069
:103EE0000B46FB70FB78042B5FD801A252F823F03D
:103EF000053F0010133F0010393F00105F3F0010D6
:103F0000853F00107B681B6823F010027B681A60F5
:103F10004EE07B681B6843F010027B681A607B6888
:103F20001B6823F020027B681A607B681B6823F003
:103F300040027B681A603BE07B681B6843F010021C
:103F40007B681A607B681B6823F020027B681A601C
:103F50007B681B6843F040027B681A6028E07B683E
:103F60001B6843F010027B681A607B681B6843F093
:103F700020027B681A607B681B6823F040027B6824
:103F80001A6015E07B681B6843F010027B681A60BA
:103F90007B681B6843F020027B681A607B681B68A3
:103FA00043F040027B681A6002E06FF0020300E019
:103FB000002318460C37BD465DF8047B704700BFF0
:103FC00080B485B000AF78600B46FB707B682A4AEE
:103FD000934214D07B68294A93420ED07B68284ACA
:103FE000934208D07B68274A934201D1032307E01C
:103FF0004FF0FF3304E0022302E0012300E000233E
:10400000214AD35C002B01D000232EE07B681B6883
:1040100003F40043002B14BF01230023FB73FB7B3D
:10402000002B05D07B681B6823F400427B681A6074
:104030007B681B6823F44032FB781B0403F4403395
:104040001A437B681A60FB7B002B0DD07B681B68D2
:1040500043F400427B681A6000E000BF7B681B6885
:1040600003F40023002BF8D0002318461437BD4674
:104070005DF8047B704700BF00200440003004401E
:104080000040044000140840681A002080B483B047
:1040900000AF78607B681B681B0C03F003031846B5
:1040A0000C37BD465DF8047B7047000080B483B0D8
:1040B00000AF78607B68104A934214D07B680F4A47
:1040C00093420ED07B680E4A934208D07B680D4A1B
:1040D000934201D1032307E04FF0FF3304E00223B2
:1040E00002E0012300E00023074AD35C18460C37A6
:1040F000BD465DF8047B704700200440003004405A
:104100000040044000140840681A002080B485B0C4
:1041100000AFF8600B467A60FB72FB7A002B02D08E
:10412000012B07D00DE0FB681B6823F40052FB68ED
:104130001A6009E0FB681B6843F40052FB681A60D0
:1041400002E06FF0020300E0002318461437BD467A
:104150005DF8047B704780B483B000AF78607B6803
:104160005B6803F01003002B02D06FF00C0301E03A
:104170007B681B6A18460C37BD465DF8047B7047A8
:1041800080B483B000AF78600B46FB707B685B68DF
:1041900003F08003002B02D06FF00B0303E0FA78EA
:1041A0007B681A62002318460C37BD465DF8047B15
:1041B000704780B586B000AFF860B9607A600023C0
:1041C0007B61BB68002B02D14FF0FF3323E07B689B
:1041D000002B17D14FF0FF331DE0F868FFF746FCC6
:1041E00038613B69002B04DA7B687A691A603B69A5
:1041F00011E07B69BA6813443A69D2B21A707B69DC
:1042000001337B617B681B687A699A42E5DB7B68D6
:104210007A691A60002318461837BD4680BD80B5FC
:1042200086B000AFF860B9607A6000237B61BB683C
:10423000002B02D14FF0FF3322E07B68002B16D118
:104240004FF0FF331CE07B69BA6813441B781946B2
:10425000F868FFF7FBFB38613B69002B04D07B68F3
:104260007A691A603B690BE07B6901337B617B688B
:104270001B687A699A42E6DB7B687A691A600023D8
:1042800018461837BD4680BD80B487B000AFF860CF
:10429000B9607A6000237B610FE0FB685B6803F024
:1042A0001003002B0ED1FB68196ABA687B691344AE
:1042B000CAB21A707B6901337B617A697B689A4262
:1042C000EBD300E000BF7B6918461C37BD465DF8A4
:1042D000047B704780B483B000AF78607B685B6814
:1042E0001B0A03F00F0318460C37BD465DF8047B2C
:1042F000704780B487B000AFF860B9607A6000237F
:104300007B610FE0FB685B6803F08003002B0ED13C
:10431000BA687B6913441B781A46FB681A627B698A
:1043200001337B617A697B689A42EBD300E000BF7E
:104330007B6918461C37BD465DF8047B704780B426
:1043400085B000AF78607B685B681B0B03F00F03E0
:10435000FB60FB68C3F1080318461437BD465DF8DF
:10436000047B704780B483B000AF78607B681B68C3
:1043700043F480727B681A6000BF7B681B6803F49B
:104380008073002BF9D1002318460C37BD465DF829
:10439000047B704780B483B000AF786039603B68BD
:1043A000002B02D03B68082B02D96FF002030AE011
:1043B0007B681B6823F00F023B6803F00F031A436E
:1043C0007B681A60002318460C37BD465DF8047BF5
:1043D000704780B483B000AF78607B68DB681846B4
:1043E0000C37BD465DF8047B704780B483B000AFE6
:1043F000786039607B683A68DA60002318460C37C9
:10440000BD465DF8047B704780B483B000AF786030
:1044100039607B689A683B681A437B689A6000231E
:1044200018460C37BD465DF8047B704780B483B0F6
:1044300000AF786039607B689A683B68DB431A405C
:104440007B689A60002318460C37BD465DF8047BF4
:10445000704780B483B000AF78607B685B681846B3
:104460000C37BD465DF8047B7047000080B584B012
:1044700000AF78607B681B68964A934217D07B68D0
:104480001B68954A934210D07B681B68934A9342FD
:1044900009D07B681B68924A934201D1032307E04D
:1044A0004FF0FF3304E0022302E0012300E0002389
:1044B000FB608C4AFB6852F82330002B14D18A4AE7
:1044C000FB6852F82330002B0ED17B681B684FF03D
:1044D000FF311846FFF770FB7B681B684FF0FF3118
:1044E0001846FFF74DFB19E07F4AFB6852F823306E
:1044F000002B06D07B681B69002B02D06FF00503F0
:10450000FFE0784AFB6852F82330002B06D07B6826
:10451000DB68002B02D06FF00503F2E07B6800221D
:104520005A617B6800229A617B68DB68002B71D03E
:104530007B685B68002B02D16FF00203E1E07B68CF
:104540001B68644A934217D07B681B68624A934297
:1045500010D07B681B68614A934209D07B681B6856
:104560005F4A934201D1032307E04FF0FF3304E099
:10457000022302E0012300E000235A497A6841F84F
:1045800023207B681B681846FFF7C8FAB8607B6871
:10459000DA687B685B69D31ABA68934228BF13460E
:1045A000BB607B6818687B685A687B685B691344EA
:1045B000BA681946FFF7A2FA02467B685B691A449B
:1045C0007B685A617B685A697B68DB689A421BD1B9
:1045D000FB68002B13D0FB685BB2012B0DD0FB688E
:1045E0005BB2022B07D0FB685BB2032B01D15823CF
:1045F00006E0002304E0222302E00F2300E00E2364
:104600001846FFF717FB05E07B681B68402118463A
:10461000FFF7C4FA7B681B69002B71D07B689B682D
:10462000002B0ED17B681B684FF0FF311846FFF757
:10463000C3FA7B681B681846FFF77CFA6FF0020329
:104640005FE07B681B68234A934217D07B681B6836
:10465000214A934210D07B681B68204A934209D0BC
:104660007B681B681E4A934201D1032307E04FF089
:10467000FF3304E0022302E0012300E000231A4993
:104680007A6841F823207B681B6810211846FFF7E1
:1046900085FA7B681B680B211846FFF77FFA78685C
:1046A000FFF7E2FA7B681A697B689B699A4227D117
:1046B000FB68002B20D0FB685BB2012B1AD0FB6893
:1046C0005BB2022B14D0FB685BB2032B0ED15823D4
:1046D00013E000BF002004400030044000400440CC
:1046E00000140840481A0020581A0020002304E053
:1046F000222302E00F2300E00E231846FFF79AFA68
:10470000002318461037BD4680BD00BF80B584B079
:1047100000AF786039607B681A4A934214D07B6896
:10472000194A93420ED07B68184A934208D07B689E
:10473000174A934201D1032307E04FF0FF3304E00F
:10474000022302E0012300E00023FB60114AFB6822
:1047500052F82330BB60BB68002B0DD0BB68DB690F
:10476000002B09D00B4AFB68002142F82310BB68DC
:10477000DB693968B8689847002318461037BD468A
:1047800080BD00BF002004400030044000400440D1
:1047900000140840481A002080B584B000AF78604B
:1047A00039607B681A4A934214D07B68194A934255
:1047B0000ED07B68184A934208D07B68174A934210
:1047C00001D1032307E04FF0FF3304E0022302E0AE
:1047D000012300E00023FB60114AFB6852F82330FC
:1047E000BB60BB68002B0DD0BB68DB69002B09D018
:1047F0000B4AFB68002142F82310BB68DB6939686B
:10480000B8689847002318461037BD4680BD00BFE2
:1048100000200440003004400040044000140840E0
:10482000581A002080B584B000AF786039607B688A
:10483000184A934214D07B68174A93420ED07B6883
:10484000164A934208D07B68154A934201D103234C
:1048500007E04FF0FF3304E0022302E0012300E011
:104860000023FB6039687868FFF750FF0D4AFB684A
:1048700052F823200C49FB6851F823309A4203D0A8
:1048800039687868FFF788FF002318461037BD465F
:1048900080BD00BF002004400030044000400440C0
:1048A00000140840581A0020481A002080B582B031
:1048B00000AF786040217868FFF77EF90023184642
:1048C0000837BD4680BD80B582B000AF78600B214F
:1048D0007868FFF771F9002318460837BD4680BD98
:1048E00080B582B000AF78604FF0FF317868FFF795
:1048F00063F9002318460837BD4680BD80B582B0F5
:1049000000AF78607868FEF760FC6FF00F017868A0
:10491000FEF74DFC002318460837BD4680BD000059
:1049200080B586B000AF78607B68724A934214D03D
:104930007B68714A93420ED07B68704A934208D0DC
:104940007B686F4A934201D1032307E04FF0FF33A6
:1049500004E0022302E0012300E000237B61786889
:10496000FFF702F93861674A7B6952F82330002B60
:104970000ED1654A7B6952F82330002B08D17B6841
:10498000DB6819467868FFF7FBF86FF00303ACE0CB
:104990007B689A683B69134003F00B03002B0AD035
:1049A0007868FEF712FC6FF008017868FEF7FFFBED
:1049B0006FF0030399E0534A7B6952F82330FB60A0
:1049C000FB68002B31D0FB68DB68002B2DD0FB6827
:1049D0001B681846FFF7A2F8B860FB68DA68FB6846
:1049E0005B69D31ABA689A4205D9FB68DA68FB6832
:1049F0005B69D31A00E0BB68BB60FB681868FB68A2
:104A00005A68FB685B691344BA681946FFF776F881
:104A1000B860FB685A69BB681A44FB685A61FB6856
:104A20001B6840211846FFF7ABF8374A7B6952F8FC
:104A30002330FB60FB68002B06D0FB681B69002B52
:104A400002D0F868FFF710F92F4A7B6952F823204B
:104A50002C497B6951F823309A4217D1FB68002B0F
:104A600012D0FB689A69FB681B699A420CD1FB68FB
:104A70005A69FB68DB689A4206D17868FEF7A5FBA5
:104A800000217868FEF793FB00232EE01E4A7B6925
:104A900052F82330FB60FB68002B0ED0FB689A694C
:104AA000FB681B699A4208D17868FFF70CFF002168
:104AB0007868FFF771FE002317E0124A7B6952F80D
:104AC0002330FB60FB68002B0ED0FB685A69FB6843
:104AD000DB689A4208D17868FFF7E8FE0021786821
:104AE000FFF714FE002300E0002318461837BD46E8
:104AF00080BD00BF0020044000300440004004405E
:104B000000140840481A0020581A002080B588B0C8
:104B100000AF786039600023BB6100233B61002354
:104B20007B610023FB770023BB7700237B77002387
:104B3000BB600023FB607B68002B02D03B68002B2E
:104B400002D16FF01503A2E03B681B685BB203F073
:104B50003F035BB243F040035BB2DBB23B743B68A4
:104B60001B68022B09D17B685B6810335B6803F418
:104B70008063002B01D001237B777B6818687B68FA
:104B8000B3F90830002B05D03B689B689BB2023319
:104B90009BB204E03B689B689BB201339BB27A7F77
:104BA00092B213449AB207F11003194602F0B0FA18
:104BB000B861BB69002B01D0BB6968E07B68B3F9C1
:104BC0000830012B32D13B681B685BB203F03F0316
:104BD0005BB243F040035BB2DBB23B720123FB7775
:104BE0000CE0FA7FFB7F20323A4412F8102C20337D
:104BF0003B4403F8182CFB7F0133FB77FA7F3B68BB
:104C00009B68991C7B7F0B449A42EADB3B689B685C
:104C1000DAB27B7F1344DBB20233DAB207F1080366
:104C20001146184600F05DFA0346BB77BB7F002BA8
:104C300002D06FF04C032AE07B7F002B09D03B6849
:104C40009B68013320333B4413F8102C7B685B686E
:104C50005A603B6800225A600123FB7711E03B68F1
:104C60005B681A023B685A603B685B68FA7F2032D7
:104C70003A4412F8102C1A443B685A60FB7F013307
:104C8000FB773B689A68FB7F9A42E8DA0023184674
:104C90002037BD4680BD84B080B586B000AF786057
:104CA00007F1240080E80E0000237B610023BB6035
:104CB0000023FB600023FB740023BB747B68002B84
:104CC00002D16FF015034BE07B6ADBB203F03F03C8
:104CD000DBB23B72BB6A7B610023FB740EE0FA6AB5
:104CE000FB7CD31A7A69D2B218333B4403F8102CF8
:104CF0007B691B127B61FB7C0133FB74FA7CFB6AD2
:104D00009A42ECDB7B68B3F90830002B12D0FB6AC7
:104D1000DBB20133DAB207F108031146184600F09E
:104D2000E0F90346BB74FB6A013318333B44BA7C99
:104D300003F8102C7B6818687B68B3F90830002BE7
:104D400004D0FB6A9BB202339BB203E0FB6A9BB2C6
:104D500001339BB207F108011A4602F0D9F9034664
:104D600018461837BD46BDE8804004B0704780B58E
:104D700084B000AF786039603B681B68062B11D0A7
:104D80007B68B3F90A30002B0CD07B68B3F90C3088
:104D90001946786800F0B6F8F860FB68002B01D07F
:104DA000FB6804E039687868FFF7B0FE03461846F0
:104DB0001037BD4680BD80B586B000AFF860B960E1
:104DC0007A60FB685A68BB681B0113441946F8688F
:104DD000FFF7CDFF78617B69002B01D07B6909E08B
:104DE000FB685A68BB681B0113445B681A467B6802
:104DF0001A60002318461837BD4680BD84B080B5C0
:104E000086B002AF786007F11C0080E80E007B6876
:104E1000B3F90A30002B0CD07B68B3F90C3019467B
:104E2000786800F06FF8F860FB68002B01D0FB6831
:104E300008E0BB6A009307F11C030ECB7868FFF70C
:104E40002AFF034618461037BD46BDE8804004B02F
:104E5000704780B586B002AFF860B9607A60FB68D1
:104E60005A68BB681B0113447A685A60FB685A6829
:104E7000BB681B011344DA6800920ECBF868FFF799
:104E8000BDFF034618461037BD4680BD80B586B0CD
:104E900000AF786000237B61194A07F10C0392E8A8
:104EA000030083E803007B68002B02D16FF0150339
:104EB00021E07B681B6807F10C010822184602F00C
:104EC00027F978617B69002B01D07B6913E07B684F
:104ED00000221A817B68B3F90C301946786800F01B
:104EE0004EF878617B69002B01D07B6903E00420D8
:104EF00003F047FC002318461837BD4680BD00BFAD
:104F0000C0B4021080B586B000AF7860396000236D
:104F1000FB757B68002B02D16FF015032BE07B68DB
:104F20005B683B6116E03B69603319467868FFF7C0
:104F30001EFFF860FB68002B01D0FB681BE03B699B
:104F400060335B6803F04003002B0CBF0123002398
:104F5000DBB2FB7597F91730002B05D13B68013B9D
:104F60003B603B68002BDED13B68002B02D16FF029
:104F7000730300E0002318461837BD4680BD80B596
:104F800086B000AF786039600023FB757B68002B2A
:104F900002D16FF015032BE07B685B683B6113E087
:104FA00039697868FFF7E3FEF860FB68002B01D0F1
:104FB000FB681DE03B695B6803F01003002B0CBF2E
:104FC00001230023DBB2FB7597F91730002B04D1C6
:104FD0003B685A1E3A60002BE2D13B68002B06D199
:104FE00097F91730002B02D16FF0730300E0002314
:104FF00018461837BD4680BD80B586B000AF7860D2
:1050000039600023FB757B68002B02D16FF015031C
:1050100028E07B685B683B6113E039697868FFF7DB
:10502000A6FEF860FB68002B01D0FB681AE03B6924
:105030005B6803F08003002B0CBF01230023DBB26D
:10504000FB7597F91730002B05D13B68013B3B609E
:105050003B68002BE1D13B68002B02D16FF073035A
:1050600000E0002318461837BD4680BD80B584B0E7
:1050700000AF786039607B68002B02D16FF01503B8
:105080000FE07B685B68FB60FB682033194678683B
:10509000FFF76DFEB860FB6820335A683B681A6002
:1050A000002318461037BD4680BD80B584B000AFE0
:1050B0007860396007F108031A4600217868FFF725
:1050C0007AFEF860FB68002B01D0FB6805E0BB6846
:1050D00003F00F023B681A60002318461037BD46E4
:1050E00080BD80B485B000AF78600B46FB700023B4
:1050F000FB730023BB732CE08023FB7320E097F944
:105100000E30DBB2DB097B737B681A78FB7B1340C4
:10511000DBB2002B14BF012300233B737A7B3B7B64
:105120009A4207D0BB7B5B00BB73BB7B83F007035A
:10513000BB7302E0BB7B5B00BB73FB7B5B08FB7359
:10514000FB7B002BDBD17B6801337B60FB78013B71
:10515000FB70FB78002BCFD1BB7B18461437BD46C4
:105160005DF8047B704780B485B000AF78607B68E1
:10517000002B11D07B685B68FB60FB6870335B6859
:1051800003F00403002B03D07B6801221A8104E0A2
:105190007B6800221A8100E000BF1437BD465DF82D
:1051A000047B704780B485B000AF78607B68002BCB
:1051B00011D07B685B68FB60FB6870335B6803F051
:1051C0004003002B03D07B6801225A8104E07B68F6
:1051D00000225A8100E000BF1437BD465DF8047B11
:1051E0007047000080B588B000AF78603960184B18
:1051F000FB61184BBB61184B7B6107F10C031A462E
:1052000001217868FFF7D7FD38613B69002B01D099
:105210003B6919E07B685B7C032B12DC022B0CDA08
:10522000002B02D0012B04D00BE03B687A691A6096
:1052300009E03B68BA691A6005E03B68FA691A60E0
:1052400001E03B6900E0002318462037BD4680BDE1
:1052500000001649000016480000964780B588B047
:1052600000AFF8600B467A607B8107F114031A46A1
:105270000121F868FFF79FFDF861FB69002B01D061
:10528000FB696EE0FB685B7C7B83B7F90A302133F6
:10529000194607F114031A46F868FFF78CFDF86108
:1052A000FB69002B01D0FB695BE07B6820221A8040
:1052B0007B6903F48033002B18D07B6903F460030F
:1052C000002B05D17B681B889B009AB27B681A80F3
:1052D0007B6903F46003B3F5800F07D17B681B88FB
:1052E0001A46520013449AB27B681A807B6903F411
:1052F0006003B3F5000F17D17B8B002B0AD17B68BD
:105300001B881A4692001A44520013449AB27B68D2
:105310001A8009E07B681B881A46D2001A445200A2
:1053200013449AB27B681A807B6903F46003B3F577
:10533000200F15D17B8B002B09D17B681B881A4667
:10534000920013445B009AB27B681A8008E07B6885
:105350001B881A46D20013445B009AB27B681A80FD
:10536000002318462037BD4680BD000080B588B0B8
:1053700000AF78600B467B8007F11403194678680C
:10538000FFF730FFF861FB69002B05D0FB6907EEE2
:10539000903AF8EEE77A61E0B7F902302133194626
:1053A00007F10C031A467868FFF705FDF861FB6901
:1053B000002B05D0FB6907EE903AF8EEE77A4DE056
:1053C000FB689BB2C3F30A037B83FB6803F46003AF
:1053D000B3F5600F23D1FB685B0C03F00703023BBE
:1053E000042B19D801A252F823F000BF0154001079
:1053F00007540010195400100D54001013540010DD
:10540000DFED197A2AE0F3EE097A27E0F3EE047A69
:1054100024E0DFED167A21E0FFEE007A1EE007F1CE
:105420001202B7F9023019467868FFF717FFF861E2
:10543000FB69002B05D0FB6907EE903AF8EEE77A9E
:105440000CE0D7ED056A7B8A1A467B8B02FB03F3DF
:1054500007EE903AB8EEE77AC6EE877AB0EE670AC2
:105460002037BD4680BD00BFF628DA419A998541B4
:1054700080B58AB000AFF86087ED020A0B46FB806A
:1054800007F11C031946F868FFF7ACFE38623B6A67
:10549000002B01D03B6A51E007F11A02B7F9063040
:1054A0001946F868FFF7DAFE38623B6A002B01D034
:1054B0003B6A43E0D7ED076A7B8B07EE903AB8EE84
:1054C000E77AD7ED027A27EE277AC6EE877AFCEEE6
:1054D000E77A17EE903AFB84FB8C002B01D1012375
:1054E000FB84FB8CB3F5006F02D340F2FF73FB84A7
:1054F000B7F906302133194607F114031A46F86844
:10550000FFF759FC38623B6A002B01D03B6A15E07B
:105510007B6923F4FF6323F007037B61FB8CC3F3F8
:105520000A027B6913437B61B7F9063021331946C0
:105530007B691A46F868FFF78CFC03461846283743
:10554000BD4680BD80B586B000AFF860B9607A60B6
:105550003B6007F110031A46B968F868FFF72BFCA7
:1055600078617B69002B01D07B690FE03B68DA43EF
:105570003B6913403B613A697B6813433B613B697C
:105580001A46B968F868FFF764FC034618461837EE
:10559000BD4680BD80B586B000AF78600B46FB701D
:1055A0007B68002B02D0FB78082B02D96FF0150323
:1055B00027E04FF0FF337B617B691B077B617B69D1
:1055C0009B0E7B617B69FA781146184617F03AFD0D
:1055D00002464FF0FF333B613B691B073B613B6970
:1055E0009B0E3B613B6901217868FFF7ABFFF860D8
:1055F000FB68002B01D0FB6803E07B68FA789A73A4
:10560000002318461837BD4680BD80B584B000AF72
:1056100078600B46FB701346BB70BB78002B03D041
:105620004FF40043FB8101E00023FB81FB78093349
:105630001946FA894FF400437868FFF783FFB86092
:10564000BB68002B01D0BB6807E0FB787A68103399
:105650009B001344BA789A70002318461037BD4651
:1056600080BD90B58BB000AFF8600B46BA80FB727E
:10567000FB7A09331C464FF0FF337B627B6ADB0603
:105680007B627B6A9B0D7B627B6A3A791146184686
:1056900017F0D8FC02464FF0FF333B623B6ADB0653
:1056A0003B623B6A9B0D3B623B6A2146F868FFF711
:1056B00049FFF861FB69002B01D0FB6937E0FB7AF9
:1056C00009331C464FF0FF33BB61BB69DB06BB618E
:1056D000BB69DB0EBB61BB697A791146184617F0CE
:1056E000B1FC02464FF0FF337B617B69DB067B61D7
:1056F0007B69DB0E7B617B692146F868FFF722FF3F
:10570000F861FB69002B01D0FB6910E0FB7A397965
:10571000FA6810339B0013440A461A71FB7A7979B0
:10572000FA6810339B0013440A465A710023184646
:105730002C37BD4690BD90B587B000AF78600B4662
:10574000FB701346BB70FB7809331C464FF0FF33E8
:105750007B617B695B077B617B695B0C7B617B6940
:10576000BA781146184617F06DFC02464FF0FF3329
:105770003B613B695B073B613B695B0C3B613B69A0
:1057800021467868FFF7DEFEF860FB68002B01D049
:10579000FB6807E0FB787A6810339B001344BA7803
:1057A000DA70002318461C37BD4690BD80B584B022
:1057B00000AF78600B46FB701346BB70FB78002B84
:1057C00003D04FF40063FB6001E00023FB60BB7873
:1057D000193319464FF40063FA687868FFF7B2FE90
:1057E000B860BB68002B01D0BB680AE0BA78796862
:1057F00013465B0013445B000B441233FA781A70B3
:10580000002318461037BD4680BD90B587B000AF65
:1058100078600B46FB701346BB70BB7819331C468F
:105820004FF0FF337B617B699B077B617B695B0D7D
:105830007B617B69FA781146184617F003FC024633
:105840004FF0FF333B613B699B073B613B695B0D5D
:105850003B613B6921467868FFF774FEF860FB689E
:10586000002B01D0FB680AE0BA78796813465B0028
:1058700013445B000B441333FA781A700023184664
:105880001C37BD4690BD90B587B000AF7860084624
:1058900011461A460346FB700B46BB7013467B70DD
:1058A0007B68002B02D0FB78032B02D96FF0150325
:1058B0004DE0BB7819331C464FF0FF333B613B6929
:1058C0009B073B613B69DB0E3B613B69FA78114604
:1058D000184617F0B7FB02464FF0FF33FB60FB683A
:1058E0009B07FB60FB68DB0EFB60FB68214678686A
:1058F000FFF728FEB860BB68002B01D0BB6826E02C
:10590000BA78796813465B0013445B000B44163386
:10591000FA781A707B78002B03D04FF48073FB82E7
:1059200001E00023FB82FB78022B0CD1FA8A4FF4B2
:10593000807301217868FFF705FEB860BB68002B13
:1059400001D0BB6803E07B687A781A74002318469C
:105950001C37BD4690BD80B586B000AF7860084664
:1059600011461A460346FB700B46BB7013467B700C
:10597000FB78002B02D060237B6101E000237B6178
:105980007B78193319464FF0FF333B613B699B0726
:105990003B613B695B0E3B613B697A697868FFF765
:1059A000D1FDF860FB68002B01D0FB6834E0BB78C8
:1059B000002B03D04FF4C0737B6101E000237B61B7
:1059C0007B78193319464FF0FF33BB60BB689B07E8
:1059D000BB60BB68DB0DBB60BB687A697868FFF7AA
:1059E000B1FDF860FB68002B01D0FB6814E07A7809
:1059F000796813465B0013445B000B441533FA7857
:105A00001A707A78796813465B0013445B000B4484
:105A10001433BA781A70002318461837BD4680BD73
:105A200090B587B000AF78600B46FB701346BB7033
:105A3000BB7819331C464FF0FF337B617B695B07F2
:105A40007B617B695B0F7B617B69FA781146184645
:105A500017F0F8FA02464FF0FF333B613B695B07F2
:105A60003B613B695B0F3B613B6921467868FFF70F
:105A700069FDF860FB68002B01D0FB680AE0BA788A
:105A8000796813465B0013445B000B441733FA78C4
:105A90001A70002318461C37BD4690BD80B586B0ED
:105AA00000AF78600B46FB704FF0FF337B617B6982
:105AB0009B077B617B691B0E7B617B69FA781146D2
:105AC000184617F0BFFA02464FF0FF333B613B69BF
:105AD0009B073B613B691B0E3B613B690121786879
