:020000041000EA
:1000000000001020254602106146021065750010A0
:1000100065460210674602106946021000000000A3
:100020000000000000000000000000006B4602100D
:100030006D460210000000006F460210C5970010C8
:1000400075460210774602105DA4001001A400104E
:100050007D46021019A200102DA2001041A200102E
:100060008546021087460210894602108B46021010
:100070008D4602108F460210C9A10010DDA10010AC
:100080009546021097460210994602109B460210B0
:100090009D4602109F460210A1460210A346021080
:1000A000A5460210A7460210A9460210AB46021050
:1000B00021A300102FA300103DA300104BA300109C
:1000C000B5460210B7460210F1A10010BB4602105F
:1000D000BD460210BF460210C1460210C3460210C0
:1000E000C5460210C7460210C9460210CB46021090
:1000F000CD460210CF460210D1460210D346021060
:10010000D5460210D7460210D9460210DB4602102F
:10011000DD460210DF460210E1460210E3460210FF
:10012000E5460210E7460210E9460210EB460210CF
:10013000ED460210EF460210F1460210F34602109F
:10014000F5460210F7460210F9460210FB4602106F
:1001500059A3001067A3001075A3001083A300101B
:1001600091A300109FA30010ADA30010BBA300102B
:10017000C9A30010D7A30010E5A30010F3A300103B
:100180001547021017470210194702101B470210AB
:100190001D4702101F47021021470210234702107B
:1001A00005A2001027470210294702102B47021012
:1001B0002D4702102F47021031470210334702101B
:1001C0003547021037470210394702103B470210EB
:1001D0003D4702103F4702104147021043470210BB
:1001E0004547021047470210494702104B4702108B
:1001F0004D4702104F47021051470210534702105B
:100200000348044B834202D0034B03B118477047A5
:10021000A4100020A4100020000000000548064B98
:100220001B1AD90F01EBA301491002D0034B03B1F4
:1002300018477047A4100020A41000200000000000
:1002400010B5064C237843B9FFF7DAFF044B13B11E
:100250000448AFF300800123237010BDC0100020BC
:10026000000000006807041008B5044B1BB10449E6
:100270000448AFF30080BDE80840CFE7000000006D
:10028000C41000206807041080B584B000AF786007
:10029000124B1B68002B02D1104B114A1A600F4BF6
:1002A0001B68FB600D4B1A687B6813441A460D4BA4
:1002B0009A4207D92EF09CFB03460C221A604FF09D
:1002C000FF3306E0054B1A687B681344034A13604A
:1002D000FB6818461037BD4680BD00BFDC1000200B
:1002E0002886022000F00F2080B400AF6FF01003CA
:1002F0001846BD465DF8047B704780B400AF6FF0D0
:1003000010031846BD465DF8047B704780B485B085
:1003100000AF4FF080439B6803F46063BB60BB6831
:10032000B3F5606F2BD0BB68B3F5606F3FD8BB6887
:10033000B3F5406F34D0BB68B3F5406F37D8BB68B6
:10034000B3F5206F25D0BB68B3F5206F2FD8BB68FD
:10035000B3F5006F1AD0BB68B3F5006F27D8BB6840
:10036000B3F5C06F0ED0BB68B3F5C06F1FD8BB68C4
:10037000002B12D0BB68B3F5806F15D017E0174B78
:10038000FB6017E04FF4FA53FB6013E0144BFB6083
:1003900010E04FF4E103FB600CE0124BFB6009E05E
:1003A0004FF40043FB6005E00F4BFB6002E00C4B99
:1003B000FB6000BF4FF080439B689B0903F007037D
:1003C0007B60FA687B6822FA03F3084A136000BF77
:1003D0001437BD465DF8047B704700BF0080BB004A
:1003E000000E2707008793030048E801E010002073
:1003F00080B400AF00231846BD465DF8047B70470B
:1004000080B400AF00BFBD465DF8047B704780B488
:1004100000AF00231846BD465DF8047B704780B4EA
:1004200000AF00BFBD465DF8047B704780B500AFEC
:1004300000BF00BF194B1A4A9A601A4B01221A607A
:10044000194B40221A60174B00221A60174801F01E
:1004500027FA164801F02FFA144801F021FA0F4B41
:10046000D3F888300D4A43F47003C2F88830BFF3E4
:100470004F8F00BFBFF36F8F00BF042003F08EFAD1
:10048000FFF744FFFFF7CBFFFFF7BAFFFFF7BFFF10
:1004900009F0B2FC62B600BF00BF80BD00ED00E015
:1004A00000000010000C00400C04004000A00240BE
:1004B00080B582B000AFFB1D0021184600F0C8FADD
:1004C000FB7903F00103002B02D06FF0620300E020
:1004D000002318460837BD4680BD000090B583B0A4
:1004E00000AF00237B600623FB70124B9C68F81C56
:1004F000002301220121A04778607B68002B01D0F6
:100500007B6813E0BB1C0021184600F0A1FA78605C
:100510007B68002B01D07B6808E0BB7803F0020306
:10052000002B01D0002301E06FF0610318460C3767
:10053000BD4690BDE410002090B585B000AF0346E5
:100540003960FB710023FB603B68002B02D16FF028
:100550005F031AE00F4B9C68F81D00230022012165
:10056000A047F860FB68002B01D0FB680DE0094B49
:100570005C680023012201213868A047F860FB680D
:10058000002B01D0FB6800E0002318461437BD465D
:1005900090BD00BFE410002090B585B000AF78603A
:1005A00039600023FB607B68002B02D03B68002B86
:1005B00002D16FF05F0315E0FFF790FFF860FB6872
:1005C000002B01D0FB680DE0084B9C680023012242
:1005D00039687868A047F860FB68002B01D0FB6899
:1005E00000E0002318461437BD4690BDE4100020FB
:1005F00090B484B000AF78600023FB607B68002B70
:1006000002D16FF05F0309E0074A7B6814460FCB05
:1006100084E80F00054B01221A70FB68184610375A
:10062000BD4690BC704700BFE4100020F4100020CD
:1006300080B500AF064B1B78002B02D16FF0610331
:1006400003E0044B1B6898470346184680BD00BF73
:10065000F4100020E410002090B585B000AF002316
:10066000BB600023FB606623FB71184B9C68F81D80
:10067000002301220121A047B860BB68002B01D0F4
:10068000BB681FE09923FB71104B9C68F81D002389
:1006900001220121A047B860BB68002B0CD0BB68C9
:1006A00010E0FB680133FB60FB6842F2107293427A
:1006B00002DD6FF0600305E0FFF7FAFE0346002B52
:1006C000EFD1002318461437BD4690BDE41000203A
:1006D00090B583B000AF00237B609F23FB703B4647
:1006E00000210A461A800A469A70134B9C68F81C2F
:1006F000002300220121A04778607B68002B01D0F5
:100700007B6814E00C4B5C6838460023012203210F
:10071000A04778607B68002B01D07B6807E0BB783E
:100720001A467B781B021A433B781B041343184676
:100730000C37BD4690BD00BFE410002080B584B0EA
:1007400000AF78600023FB600023FB720023BB72C4
:1007500000BFFFF7ADFE0346002BFAD107F10B03F4
:100760000021184600F074F9F860FB68002B01D0F6
:10077000FB684CE07B68002B05D0FB7A43F040031C
:10078000DBB2FB7204E0FB7A23F04003DBB2FB72C6
:10079000FFF7A4FE0346002B02D06FF0610336E0A2
:1007A000FB7A0021184600F065F9F860FB68002B21
:1007B00001D0FB682BE000BFFFF77AFE0346002B59
:1007C000FAD107F10A030021184600F041F9F86058
:1007D000FB68002B01D0FB6819E000BFFFF768FE43
:1007E0000346002BFAD17B68002B07D0BB7A03F0BD
:1007F0004003002B0AD14FF0FF3308E0BB7A03F02F
:100800004003002B02D04FF0FF3300E000231846D6
:100810001037BD4680BD000090B58BB000AFF860CA
:10082000B9607A60FB700023FB6100237B610023C9
:100830003B6100237B620023BB6100233B62BB68FA
:10084000002B02D16FF05F03A0E0FB68B3F1006FF3
:1008500005D2FA687B681344B3F1006F02D36FF0DE
:100860005F0393E0BB683B62FFF722FE0346002B69
:1008700000F088806FF0620388E07B6901337B6160
:100880007B69444A934202DD6FF060037EE0FFF72C
:1008900025FE0346002BF0D1FB681B0CDBB27B74FA
:1008A000FB681B0ADBB2BB74FB68DBB2FB74FB7832
:1008B000022B02D138233B7401E002233B74364BF8
:1008C0009C6807F11000002300220121A047F86175
:1008D000FB69002B01D0FB6958E02F4B9C68FA782C
:1008E00007F11003581C134600220321A047F861AA
:1008F000FB69002B01D0FB6948E0FB6823F0FF0394
:1009000003F58073BB61FA687B681344BA699A4245
:1009100002D97B687B6203E0BA69FB68D31A7B6209
:100920001D4B9C68FB780122796A386AA047F86100
:10093000FB69002B01D0FB6928E07A687B6A9A4248
:1009400003D37A687B6AD31A7B607B68002B07D05D
:10095000FA687B6A1344FB603A6A7B6A13443B6221
:1009600000237B6109E07B6901337B617B69094A74
:10097000934202DD6FF0600308E0FFF799FD034644
:10098000002BF0D17B68002B81D1002318462C3737
:10099000BD4690BD40420F00E410002090B587B0E6
:1009A00000AF78600B46FB7000237B6100233B6146
:1009B0000023FB60FFF77CFD0346002B02D06FF0A5
:1009C00062033FE0FFF78AFD0346002B02D06FF081
:1009D000610337E0FB78012B04D0022B05D02023E4
:1009E0003B7405E052233B7402E0D8233B7400BF04
:1009F0007B681B0CDBB27B747B681B0ADBB2BB74AD
:100A00007B68DBB2FB74114B9C6807F1100000237C
:100A100001220421A04778617B69002B0CD07B69FF
:100A200010E0FB680133FB60FB684EF660229342E6
:100A300002DD6FF0600305E0FFF73AFD0346002B8F
:100A4000EFD1002318461C37BD4690BDE4100020AE
:100A500080B584B000AF78600B46FB700523FB7354
:100A6000FB7B79681846FFF767FD03461846103789
:100A7000BD4680BD80B584B000AF03460A46FB7119
:100A80001346BB7101233B73FB797B7307F10C03A6
:100A900002211846FFF780FD034618461037BD4671
:100AA00080BD000080B582B000AF78607B68002B0D
:100AB00043DB7B680F2B40DC23497A6813469B009D
:100AC00013449B000B441B68002B36D001211F48A8
:100AD00002F01AFE0346002B02D06FF005032EE051
:100AE00019497A6813469B0013449B000B4400226B
:100AF0001A6015497A6813469B0013449B000B4407
:100B00000C331B6800221A600F497A6813469B0059
:100B100013449B000B440C3319680B487A68134646
:100B20009B0013449B0003440C331B684A685A60C3
:100B3000064802F010FE002301E06FF002031846A1
:100B40000837BD4680BD00BFF810002038120020D5
:100B500080B500AF4FF080431B684FF0804223F414
:100B600000731360024800F017F800BF80BD00BF9B
:100B70000030034080B500AF064800F01FF84FF08A
:100B800080431B684FF0804243F40073136000BF42
:100B900080BD00BF0030034080B483B000AF7860F8
:100BA0007B68D3F8003143F001027B68C3F8002171
:100BB00000BF0C37BD465DF8047B704780B483B03E
:100BC00000AF78607B68D3F8003123F001027B68C6
:100BD000C3F8002100BF0C37BD465DF8047B7047A9
:100BE00080B485B000AF7860134B1B78002B1CD10C
:100BF0000023FB6013E00023BB600AE00F49FB68A1
:100C00005A01BB681344002241F82320BB6801331A
:100C1000BB60BB681F2BF1DDFB680133FB60FB6829
:100C2000042BE8DD044B01221A7000231846143708
:100C3000BD465DF8047B7047BC1400203C120020C8
:100C400080B400AF034B1B781846BD465DF8047BAB
:100C5000704700BFBD14002080B582B000AF78603F
:100C60007B6803F00103002B02D0002002F0C2FDDC
:100C70007B6803F00203002B02D0012002F0BAFDD2
:100C80007B6803F00403002B02D0022002F0B2FDC7
:100C90007B6803F00803002B02D0402002F0AAFD7D
:100CA0007868FFF79DFF034618460837BD4680BDAC
:100CB00080B586B000AF78607B681B683B617B685D
:100CC0001B68964A93421ED07B681B68944A9342E5
:100CD00017D07B681B68934A934210D07B681B68CF
:100CE000914A934209D07B681B68904A934201D194
:100CF000042309E04FF0FF3306E0032304E002235E
:100D000002E0012300E00023FB60FB68B3F1FF3F3A
:100D100002D16FF00203CEE10122FB6802FA03F375
:100D20001846FFF799FF00F0C5FA0346012B01D1E1
:100D30000023C0E1FB68032B0DDC7B68997A7B689C
:100D40005B681A46386900F087FA78617B69002B86
:100D500001D07B69AFE1FB68032B09DC7B68197A62
:100D60007B685B681A46386900F02CFB786176E096
:100D700000237B617B681B7A022B06D0022B6ADC86
:100D8000002B45D0012B21D065E0694B1A6A7B68A6
:100D90005B685B0003F002017B685B681B0103F08A
:100DA00020030B43624913430B62614B9A687B68D3
:100DB0005B685B0003F002017B685B685B0803F023
:100DC00001030B435A4913438B6048E0584B1A6A9E
:100DD0007B685B685B0003F002017B685B681B015A
:100DE00003F020030B43524913430B62504B9A68A4
:100DF0007B685B685B0003F002017B685B685B08F3
:100E000003F001030B43DB43494913408B6026E0A9
:100E1000474B1A6A7B685B685B0003F002017B68E2
:100E20005B681B0103F020030B43DB434049134085
:100E30000B623F4B9A687B685B685B0003F00201C2
:100E40007B685B685B0803F001030B43DB433849B5
:100E500013408B6003E06FF010037B6100BF7B6980
:100E6000002B01D07B6926E1FB68032B00F39880FF
:100E70007B685B7A042B00F2908001A252F823F089
:100E8000950E0010E90E0010670F0010B70E00104D
:100E9000350F00103B691A6E7B685B68DB431A40B4
:100EA0003B691A663B695A6E7B685B68DB431A4094
:100EB0003B695A66F0E03B691A6E7B685B681A43CF
:100EC0003B691A663B695A6E7B685B68DB431A4074
:100ED0003B695A663B69D3F8B8207B685B681A4364
:100EE0003B69C3F8B820D7E03B691A6E7B685B6842
:100EF0001A433B691A663B695A6E7B685B68DB4341
:100F00001A403B695A663B69D3F8B8207B685B6836
:100F1000DB431A403B69C3F8B820BDE000800040C5
:100F20000090004000A000400004084000C00040C5
:100F3000006C00403B691A6E7B685B68DB431A40BB
:100F40003B691A663B695A6E7B685B681A433B696A
:100F50005A663B69D3F8B8207B685B681A433B69E3
:100F6000C3F8B82098E03B691A6E7B685B68DB4386
:100F70001A403B691A663B695A6E7B685B681A4384
:100F80003B695A663B69D3F8B8207B685B68DB43F2
:100F90001A403B69C3F8B8207EE06FF002038AE094
:100FA0007B685B7A042B74D801A252F823F000BF4F
:100FB000C50F0010E70F001041100010E70F0010E0
:100FC000411000103E4B1A6A7B685B689B0003F07F
:100FD00004017B685B685B0103F040030B43384905
:100FE00013430B6258E0364B1A6A7B685B685B0000
:100FF00003F002017B685B681B0103F020031943C7
:101000007B685B689B0003F004007B685B685B01A6
:1010100003F0400303430B43DB43294913400B62B6
:10102000274B1A6A7B685B6803F001017B685B6889
:10103000DB0003F010030B43214913430B622BE049
:101040001F4B1A6A7B685B685B0003F002017B68D8
:101050005B681B0103F0200319437B685B689B00FE
:1010600003F004007B685B685B0103F0400303430B
:1010700019437B685B6803F001007B685B68DB00F9
:1010800003F0100303430B43DB430D4913400B6292
:1010900002E06FF002030EE07B681B7A002B01D1A7
:1010A000002308E07B68D97A7B685B681A46386958
:1010B00000F0EEF8034618461837BD4680BD00BF65
:1010C000006C004080B584B000AF786039607B6808
:1010D0000E4A934211D10E4B1B6ADB0803F0010349
:1010E000FB600B4B1B6A9B0903F00203BB60FA68B1
:1010F000BB681A433B68134004E03968786800F025
:10110000E0F8034618461037BD4680BD00C00040D9
:10111000006C004080B582B000AF786039607B68B9
:101120000B4A93420DD10B4B1A6A3B6803F0010145
:101130003B68DB0003F010030B43064913430B62CB
:1011400003E03968786800F0CBF80837BD4680BD09
:1011500000C00040006C004080B582B000AF7860F5
:1011600039607B680C4A93420ED10C4B1A6A3B687B
:1011700003F001013B68DB0003F010030B43DB438A
:10118000064913400B6203E03968786800F0B6F84E
:101190000837BD4680BD00BF00C00040006C004065
:1011A00080B584B000AF786039607B680E4A9342A6
:1011B00010D10E4B1B6A03F00103FB600B4B1B6A43
:1011C000DB0803F00203BB60FA68BB681A433B68A4
:1011D000134004E03968786800F09EF8034618462A
:1011E0001037BD4680BD00BF00C00040006C00400D
:1011F00080B586B000AFF860B9607A60FB68144AC9
:1012000093421DD1134B1B6A7B61BB6803F0010243
:10121000BB68DB0003F010031343DA437B691A4019
:10122000B9687B680B4003F00101B8687B68034034
:10123000DB0003F010030B43064913430B6204E089
:101240007A68B968F86800F076F81837BD4680BD4E
:1012500000C00040006C004080B584B000AFF86072
:101260000B467A60FB72FB68084A934202D16FF02A
:10127000100306E0FB7A7A681946F86800F072F805
:10128000034618461037BD4680BD00BF00C0004071
:1012900080B584B000AFF8600B467A60FB72FB7AD1
:1012A0007A681946F86800F019F9034618461037AD
:1012B000BD4680BD80B500AFFFF7C2FC03461846AF
:1012C00080BD80B483B000AF786039607B685A6AB3
:1012D0003B68134018460C37BD465DF8047B7047E9
:1012E00080B483B000AF786039607B683A68DA61B7
:1012F00000BF0C37BD465DF8047B704780B483B0F7
:1013000000AF786039607B683A681A6200BF0C37BA
:10131000BD465DF8047B704780B483B000AF786051
:1013200039607B689A693B68134018460C37BD46A4
:101330005DF8047B704780B485B000AFF860B96099
:101340007A60FB689A69BB68DB431A407968BB68BE
:101350000B401A43FB689A6100BF1437BD465DF825
:10136000047B704780B584B000AFF8600B467A60AC
:10137000FB72FFF79FFF0346012B01D100231CE006
:10138000FB7A002B02D0012B0AD012E0FB68D3F8C5
:10139000C0207B68DB431A40FB68C3F8C0200BE029
:1013A000FB68D3F8C0207B681A43FB68C3F8C020F1
:1013B00002E06FF0020300E0002318461037BD463C
:1013C00080BD000080B584B000AFF8600B467A6045
:1013D000FB72FFF76FFF0346012B01D1002379E079
:1013E000FB681A6B7B681A43FB681A63FB687A68B0
:1013F0005A60FB7A052B69D801A252F823F000BF8E
:10140000191400103B1400105D1400107914001022
:1014100095140010B1140010FB687A685A61FB68DB
:101420007A685A60FB687A681A67FB687A68DA67D4
:10143000FB687A68C3F888204BE0FB687A681A6119
:10144000FB687A685A60FB687A681A67FB687A6892
:10145000DA67FB687A68C3F888203AE0FB687A6844
:10146000C3F88820FB687A68DA67FB687A681A67CD
:10147000FB687A689A602CE0FB687A68C3F8882079
:10148000FB687A68DA67FB687A68DA66FB687A680C
:101490009A601EE0FB687A68C3F88820FB687A6867
:1014A0009A67FB687A681A67FB687A689A6010E046
:1014B000FB687A68C3F88820FB687A689A67FB68DB
:1014C0007A68DA66FB687A689A6002E06FF0020375
:1014D00000E0002318461037BD4680BD80B584B0BB
:1014E00000AFF8600B467A60FB72FFF7E3FE03463D
:1014F000012B01D1002368E0FB7A032B52D801A213
:1015000052F823F0151500103B1500105F15001060
:1015100083150010FB68D3F8B0207B68DB431A40CA
:10152000FB68C3F8B020FB68D3F8B4207B68DB43CA
:101530001A40FB68C3F8B42046E0FB68D3F8B0203B
:101540007B681A43FB68C3F8B020FB68D3F8B4206B
:101550007B68DB431A40FB68C3F8B42034E0FB68C7
:10156000D3F8B0207B68DB431A40FB68C3F8B02097
:10157000FB68D3F8B4207B681A43FB68C3F8B42037
:1015800022E0FB68D3F8B0207B681A43FB68C3F8FD
:10159000B020FB68D3F8B4207B681A43FB68C3F81B
:1015A000B42011E0FB68D3F8B0207B68DB431A401D
:1015B000FB68C3F8B020FB68D3F8B4207B68DB433A
:1015C0001A40FB68C3F8B420002318461037BD4604
:1015D00080BD00BF80B584B000AFF860B9607A60AC
:1015E0007B68BA68F968034800F0CDF800BF10378F
:1015F000BD4680BD0090034080B584B000AFF86068
:10160000B9607A607B68BA68F968034800F0F4F85A
:1016100000BF1037BD4680BD0090034080B582B04A
:1016200000AF78603960242002F0E4F8272002F04F
:10163000E1F81A4B4FF481721A607B68002B03D0DB
:101640007B681B79012B06D13B68002B09D03B68D6
:101650001B79012B05D0114B1B68104A43F0200366
:1016600013607B68002B02D00D48FFF721FB3B681D
:10167000002B02D00B48FFF71BFB0B48FFF718FBB2
:10168000152002F04BFA3A687968084800F0EDF846
:10169000034618460837BD4680BD00BF00580040CD
:1016A00080A203108CA2031074A2031000900340C8
:1016B00080B586B000AFF860B9607A60BB68196821
:1016C000FB687A68043243F82210BB681B79DB00A0
:1016D00043F00303BA689269002A01D0402200E077
:1016E000002213431946FB687A68083243F8221037
:1016F000BB681B7C1A07BB685B7C1B061A43BB6874
:101700009B7C1B051A43BB68DB7C1B041A43BB682C
:101710001B7D1B031A43BB685B7D1B021343BA6826
:10172000927D13431946FB687A680C3243F8221005
:1017300000237B611DE0BB681B79012B0BD1BB68CB
:101740009A687B69DB00D018BB681B687A68194609
:10175000FFF740FF0AE0BB689A687B69DB00D0189E
:10176000BB681B687A681946FFF746FF7B6901333F
:101770007B61BB68DA687B699A42DCD800BF00BF36
:101780001837BD4680BD80B584B000AFF860B96041
:101790007A603B60FB68002B2AD0BB68002B27D007
:1017A0003B68012B24D8FFF7E5F9FB683A6808325B
:1017B00053F8223043F02001FB683A68083243F8BE
:1017C0002210BB685968BB681A687B681344CAB2A8
:1017D0001A70FB683A68083253F8223023F020016F
:1017E000FB683A68083243F82210FFF7B1F900E0CD
:1017F00000BF1037BD4680BD80B584B000AFF86033
:10180000B9607A603B60FB68002B2AD0BB68002B74
:1018100027D03B68012B24D8FFF7ACF9FB683A6866
:10182000083253F8223043F02001FB683A6808324E
:1018300043F82210BB685968BB681A687B68134478
:101840008AB21A80FB683A68083253F8223023F0D3
:101850002001FB683A68083243F82210FFF778F954
:1018600000E000BF1037BD4680BD80B584B000AF3A
:10187000F860B9607A60BB68002B04D00022B968B8
:10188000F868FFF715FF7B68002B04D00122796808
:10189000F868FFF70DFF002318461037BD4680BDDE
:1018A00080B582B000AF7860786800F01EF800BFA5
:1018B0000837BD4680BD80B582B000AF78607868DB
:1018C00000F03EF800BF0837BD4680BD80B483B04D
:1018D00000AF78607B68D3F8003103F4803318469A
:1018E0000C37BD465DF8047B704780B582B000AF11
:1018F00078607B68D3F8003123F001027B68C3F87D
:1019000000217B680122C3F8002700BF7868FFF739
:10191000DDFF0346002BF9D07B68D3F8003143F09C
:1019200001027B68C3F8002100BF7868FFF7CEFF93
:101930000346002BF9D000BF00BF0837BD4680BD6D
:1019400080B483B000AF78607B68D3F8003123F0B7
:1019500001027B68C3F8002100BF0C37BD465DF86B
:10196000047B704780B582B000AF78607968044826
:1019700000F044F8034618460837BD4680BD00BF56
:101980000060004080B582B000AF7860796804489C
:1019900000F059F8034618460837BD4680BD00BF21
:1019A0000060004080B500AF024800F072F80346C6
:1019B000184680BD0060004080B582B000AF7860FE
:1019C0007968044800F073F8034618460837BD46A6
:1019D00080BD00BF0060004080B400AF00BF064B78
:1019E0001B6903F00803002BF9D100BF00BFBD46FF
:1019F0005DF8047B704700BF0060004080B582B096
:101A000000AF786039603B6803F026033B603B68B9
:101A1000002B02D16FF0020311E0FFF7DDFF7B68BE
:101A20001A693B681A437B681A613B6823F02003FC
:101A30003B603B68002B01D0FFF7CEFF0023184628
:101A40000837BD4680BD80B582B000AF7860396090
:101A50003B6803F026033B603B68002B02D16FF02C
:101A6000020312E0FFF7B8FF7B681A693B68DB43AB
:101A70001A407B681A613B6823F020033B603B6897
:101A8000002B01D0FFF7A8FF002318460837BD46FA
:101A900080BD80B483B000AF78607B681B6903F0C1
:101AA000D00318460C37BD465DF8047B704780B400
:101AB00083B000AF786039607B681A693B6803F0D7
:101AC000D003DB431A407B681A61002318460C37A9
:101AD000BD465DF8047B704780B58CB002AFF860FE
:101AE0007B600B46FB721346BB72FB7A7B62BB7A50
:101AF0003B627B68FB6197F83030BB617B6B7B613D
:101B0000FB687F4A93421AD0FB687E4A934214D006
:101B1000FB687D4A93420ED0FB687C4A934208D012
:101B2000FB687B4A934201D1042309E04FF0FF3365
:101B300006E0032304E0022302E0012300E0002387
:101B40003B61FB69042B02DD6FF00203D3E03B69CC
:101B5000022B08DC6F4B1B685A087B699A4202D241
:101B60006FF00203C7E03B69022B07DD7A69694B1E
:101B70001B689A4202D96FF00203BCE0FB68604A1E
:101B800093421ED10D2001F0C9FF062001F032FE64
:101B90006148FFF78DF897F83830002B02D05F4886
:101BA000FFF786F897F83930002B02D05C48FFF732
:101BB0007FF897F83A30002B00F092806FF0020324
:101BC00099E0FB684F4A93421ED10E2001F0A6FF18
:101BD000072001F00FFE5348FFF76AF897F83830F6
:101BE000002B02D05048FFF763F897F83930002BEC
:101BF00002D04E48FFF75CF897F83A30002B6FD0D0
:101C00004B48FFF755F86BE0FB683F4A93421ED103
:101C10000F2001F083FF082001F0ECFD4548FFF79D
:101C200047F897F83830002B02D04348FFF740F8C8
:101C300097F83930002B02D04048FFF739F897F871
:101C40003A30002B4CD03E48FFF732F848E0FB68B2
:101C50002E4A93421ED12B2001F060FF302001F06C
:101C6000C9FD3848FFF724F897F83830002B02D028
:101C70003548FFF71DF897F83930002B02D033486C
:101C8000FFF716F897F83A30002B29D03048FFF7C5
:101C90000FF825E0FB681E4A93421ED12D2001F06B
:101CA0003DFF312001F0A6FD2A48FFF701F897F823
:101CB0003830002B02D02848FEF7FAFF97F8393069
:101CC000002B02D02548FEF7F3FF97F83A30002B9F
:101CD00006D02348FEF7ECFF02E06FF001030AE0B4
:101CE000BB697A6901920093FB693A6A796AF8687C
:101CF00000F0BCF9034618462837BD4680BD00BF3A
:101D000000600440007004400080044000E00B408C
:101D100000E40B40E010002084A1031090A1031008
:101D20009CA10310A8A10310B4A10310C0A103102B
:101D3000CCA10310D8A10310E4A10310F0A103105B
:101D4000FCA1031008A2031014A2031020A2031088
:101D50002CA2031038A2031044A2031050A20310B7
:101D60005CA2031080B584B000AF78607B68294A1C
:101D700093421AD07B68284A934214D07B68274A42
:101D800093420ED07B68264A934208D07B68254A4E
:101D9000934201D1042309E04FF0FF3306E003230F
:101DA00004E0022302E0012300E00023FB607868E6
:101DB00000F05CFA7B68174A934203D1062001F0D9
:101DC000DBFC22E07B68144A934203D1072001F038
:101DD000D3FC1AE07B68114A934203D1082001F03A
:101DE000CBFC12E07B680E4A934203D1302001F015
:101DF000C3FC0AE07B680B4A934203D1312001F017
:101E0000BBFC02E06FF0010300E00023184610372E
:101E1000BD4680BD00600440007004400080044066
:101E200000E00B4000E40B4080B485B000AF786068
:101E30000023FB607B68434A93420FD07B68424A91
:101E400093420BD07B68414A934207D07B68404A5B
:101E5000934203D07B683F4A934218D17B68394A4A
:101E600093420FD07B68384A93420BD07B68374A45
:101E7000934207D07B68364A934208D07B68354A44
:101E8000934204D0344B1B685B08FB604FE07B68D7
:101E90002C4A934248D07B682B4A934244D07B68BB
:101EA0002A4A934240D07B68294A934203D07B68F8
:101EB000284A934238D14FF080439B685B0A03F075
:101EC0000703BB60BB68072B2AD801A252F823F096
:101ED000051F0010211F0010F71E00100B1F00101F
:101EE000F11E0010FD1E0010131F00101B1F00101C
:101EF0001A4BFB6017E01A4BFB6014E04FF4E10350
:101F0000FB6010E0174BFB600DE04FF4FA53FB60F1
:101F100009E04FF40043FB6005E0134BFB6002E077
:101F20006FF0020307E002E06FF0020303E0FB68DA
:101F3000DA0F13445B1018461437BD465DF8047B76
:101F4000704700BF006004400070044000800440FF
:101F500000E00B4000E40B40E0100020000E2707DB
:101F60000048E801008793030080BB0080B582B081
:101F700000AF786039603968786800F045FA034648
:101F800018460837BD4680BD80B582B000AF786086
:101F900039603968786800F09FFA034618460837B8
:101FA000BD4680BD80B582B000AF7860786800F033
:101FB00015FB034618460837BD4680BD80B582B084
:101FC00000AF78600B46FB70FB781946786800F02C
:101FD0001DFB034618460837BD4680BD80B582B05C
:101FE00000AF78600B46FB70FB781946786800F00C
:101FF00049FB034618460837BD4680BD80B584B00E
:1020000000AFF860B9607A607A68B968F86800F083
:1020100089FB034618461037BD4680BD80B582B0A7
:1020200000AF7860786800F0DFFB03461846083799
:10203000BD4680BD80B584B000AFF860B9607A60FD
:102040007A68B968F86800F0DEFB03461846103776
:10205000BD4680BD80B582B000AF7860786800F082
:1020600030FC034618460837BD4680BD80B586B0B3
:1020700000AFF860B9607A603B60FB68744A9342D5
:102080001AD0FB68734A934214D0FB68724A934299
:102090000ED0FB68714A934208D0FB68704A9342A5
:1020A00001D1042309E04FF0FF3306E0032304E0ED
:1020B000022302E0012300E000237B617B69002B07
:1020C00002DA6FF00203BEE066497A6913469B00AC
:1020D0001344DB000B4400221A6062497A691346FC
:1020E0009B001344DB000B44083300221A605D4957
:1020F0007A6913469B001344DB000B440C33012226
:102100001A6058497A6913469B001344DB000B445C
:10211000103300221A6053497A6913469B00134416
:10212000DB000B441C3300221A604E497A691346C7
:102130009B001344DB000B44203300221A60494902
:102140007A6913469B001344DB000B4414336FF091
:1021500001021A6043497A6913469B001344DB006D
:102160000B4418336FF001021A603E497A69134636
:102170009B001344DB000B44273301221A70FB68D9
:1021800001225A60FB68384A1A61BB68002B06D0EE
:10219000FB685B6843F00202FB685A6005E0FB687D
:1021A0005B6823F00202FB685A60796AF868FFF7FF
:1021B000DDFE3B6AFF2B02D96FF0020343E0FB68B0
:1021C000DA683B6A1B041A43FB68DA60FB681A6A28
:1021D000FB681A6223497A6913469B001344DB00AB
:1021E0000B4427331B78002B23D03B68012B05D1F0
:1021F000FB685B6843F48032FB685A603B68022BE3
:1022000005D1FB685B6843F44032FB685A603B6869
:10221000032B05D1FB685B6843F4E022FB685A603E
:102220003B68042B05D1FB685B6843F47022FB68B4
:102230005A607B68002B05D0FB68DB6843F40052D2
:10224000FB68DA60002318461837BD4680BD00BF22
:1022500000600440007004400080044000E00B4037
:1022600000E40B40C01400200101010080B584B0DF
:1022700000AF78607B685E4A93421AD07B685D4A03
:10228000934214D07B685C4A93420ED07B685B4AD1
:10229000934208D07B685A4A934201D1042309E053
:1022A0004FF0FF3306E0032304E0022302E00123A2
:1022B00000E00023FB607B6800225A627B681A6A98
:1022C0007B681A627B685B6823F001027B685A6056
:1022D0007B68DB6923F040127B68DA614949FA6860
:1022E00013469B001344DB000B441B68002B2AD0D1
:1022F0004449FA6813469B001344DB000B441B68F7
:10230000BB60FA6813469B001344DB003D4A13444C
:10231000184601F020FA3B49FA6813469B00134423
:10232000DB000B441B685B6A002B0CD03549FA6854
:1023300013469B001344DB000B441B685B6A6FF081
:102340000E01B86898477B6800225A607B680022BB
:102350009A607B680022DA607B6800221A61294952
:10236000FA6813469B001344DB000B4414331B68CC
:10237000002B16DB2349FA6813469B001344DB004D
:102380000B4414331B681846FEF78CFB1D49FA6892
:1023900013469B001344DB000B4414336FF001021F
:1023A0001A601849FA6813469B001344DB000B447B
:1023B00018331B68002B16DB1249FA6813469B0082
:1023C0001344DB000B4418331B681846FEF76AFB06
:1023D0000C49FA6813469B001344DB000B44183386
:1023E0006FF001021A60002318461037BD4680BD09
:1023F00000600440007004400080044000E00B4096
:1024000000E40B40C014002080B586B000AF7860B7
:102410003960304B1B685B083A689A4202D96FF00A
:10242000020353E07868FFF7FFFC0346BB60BA681D
:102430003B68B2FBF3F3BB60BB685B087B61BB68C6
:102440005B083B610023FB60BB6803F00103002BCA
:1024500010D07B6901337B610CE07B69DA0F134498
:102460005B107B613B69DA0F13445B103B61FB68D7
:102470000133FB607B690F2B02DDFB68072BECDD72
:10248000FB68082B03D10F233B610F237B617B6823
:102490005B6923F0FF023B69DBB21A437B685A6138
:1024A0007B685B6923F47F427B691B029BB21A4302
:1024B0007B685A617B685B6923F47022FB681B04AC
:1024C00003F470231A437B685A61002318461837B7
:1024D000BD4680BDE010002080B485B000AF7860BC
:1024E00039603B68012B02D03B68102B02DD6FF096
:1024F000020360E07B68334A93421AD07B68324A19
:10250000934214D07B68314A93420ED07B68304AA4
:10251000934208D07B682F4A934201D1042309E0FB
:102520004FF0FF3306E0032304E0022302E001231F
:1025300000E00023FB607B681B6B03F00103002BB2
:1025400037D12549FA6813469B001344DB000B443E
:102550000C331B68012B2CD17B685B6823F00102D4
:102560007B685A6039681C48FA6813469B0013441C
:10257000DB000344083319603B680F2B0BDC7B68DE
:10258000DB6823F470623B681B0203F470631A4338
:102590007B68DA6005E07B68DB6823F470627B6847
:1025A000DA607B685B6843F001027B685A60002355
:1025B00001E06FF0060318461437BD465DF8047B52
:1025C000704700BF00600440007004400080044079
:1025D00000E00B4000E40B40C014002080B483B046
:1025E00000AF78607B68DB6803F47063002B01D177
:1025F000102304E07B68DB681B0A03F00F03184616
:102600000C37BD465DF8047B7047000080B483B092
:1026100000AF78600B46FB707B68DB6823F43042C8
:102620007B68DA60FB78032B24D801A252F823F0F0
:10263000412600104F260010592600106726001072
:102640007B68DB6843F400427B68DA6012E07B68F9
:10265000DA687B68DA600DE07B68DB6843F48052FF
:102660007B68DA6006E07B68DB6843F400527B68D5
:10267000DA6000BF002318460C37BD465DF8047BC6
:10268000704700BF80B483B000AF78600B46FB702A
:10269000FB78032B3ED801A252F823F0AD260010A0
:1026A000C7260010E1260010FB2600107B68DB68BF
:1026B00023F001027B68DA607B68DB6823F00202AA
:1026C0007B68DA6027E07B68DB6843F001027B68A7
:1026D000DA607B68DB6823F002027B68DA601AE06C
:1026E0007B68DB6823F001027B68DA607B68DB686B
:1026F00043F002027B68DA600DE07B68DB6843F040
:1027000001027B68DA607B68DB6843F002027B6869
:10271000DA6000E000BF002318460C37BD465DF8C4
:10272000047B704780B588B000AFF860B9607A600C
:10273000BB68002B02D07B68002B01D100234FE047
:10274000F868FFF76BFCB861F868FFF72BFC0346ED
:102750007B617A68BB699A4201D9BB697B607B69FE
:10276000082B03D97B6823F001037B600023FB6106
:1027700032E07B69082B23D97B68032B0CD9BA681C
:10278000FB691344FA6812681A607B68043B7B603B
:10279000FB690433FB610FE07B68012B0CD9BA683D
:1027A000FB691344FA68128892B21A807B68023B74
:1027B0007B60FB690233FB617B68012B0CD10EE06F
:1027C000FB695A1CFA61BA681344FA681278D2B2EB
:1027D0001A707B68013B7B607B68002BC9D1FB6969
:1027E00018462037BD4680BD80B483B000AF786006
:1027F0007B68DB691B0E03F03F0318460C37BD46B0
:102800005DF8047B704780B588B000AFF860B960B0
:102810007A60BB68002B02D07B68002B01D10023BB
:102820004BE0F868FFF716FCB861F868FFF7BAFBF1
:1028300003467B617A68BB699A4201D9BB697B60B8
:102840007B69082B03D97B6823F001037B6000239D
:10285000FB612EE07B69082B20D97B68032B0CD908
:10286000FB68B968FA690A4412681A607B68043B1D
:102870007B60FB690433FB611BE07B68012B18D98B
:10288000FB68B968FA690A44128892B21A807B68B8
:10289000023B7B60FB690233FB610AE0FB695A1C67
:1028A000FA61BA6813441A78FB681A707B68013BB6
:1028B0007B607B68002BCDD1FB6918462037BD4675
:1028C00080BD80B483B000AF78607B68DB691B0A91
:1028D00003F03F03C3F1200318460C37BD465DF8F3
:1028E000047B704780B582B000AF786039601E20ED
:1028F00000F080FF1F2000F07DFF3B687A680449EC
:10290000044800F011F9034618460837BD4680BD5B
:10291000006002400070024080B584B002AF786071
:102920000B46FB70FB7800937B68054A0549064817
:1029300000F04CF9034618460837BD4680BD00BF7D
:1029400000C00B40006002400070024080B582B0C1
:1029500000AF78607A680449044800F0ABF9034698
:1029600018460837BD4680BD00C00B4000700240CD
:1029700080B582B000AF0346FB71FB791A4604496B
:10298000044800F0FEFA034618460837BD4680BDED
:10299000006002400070024080B500AF0349044867
:1029A00000F012FB0346184680BD00BF00600240E5
:1029B0000070024080B582B000AF78607A68044948
:1029C000044800F019FB034618460837BD4680BD91
:1029D000006002400070024080B582B000AF034644
:1029E000FB71FB791A460449044800F0F3FB0346E7
:1029F00018460837BD4680BD0060024000700240A6
:102A000080B582B000AF0346FB71FB7919460448DC
:102A100000F028FC034618460837BD4680BD00BFBD
:102A20000060024080B582B000AF0346FB71FB79C5
:102A30001946044800F02EFC034618460837BD46E8
:102A400080BD00BF0060024080B582B000AF034689
:102A5000FB71FB791946044800F034FC0346184624
:102A60000837BD4680BD00BF0060024080B500AFA2
:102A7000024800F03FFC0346184680BD006002405B
:102A800080B582B000AF0346FB71FB79194604485C
:102A900000F041FC034618460837BD4680BD00BF24
:102AA0000060024080B582B000AF0346FB71FB7945
:102AB0001946044800F08EFC034618460837BD4608
:102AC00080BD00BF0060024080B500AF03490448EC
:102AD00000F038FC0346184680BD00BF006002408D
:102AE0000070024080B500AF0349044800F042FC8A
:102AF0000346184680BD00BF0060024000700240DF
:102B000080B500AF024800F0B2FC0346184680BD15
:102B10000070024080B500AF024800F0B9FC0346E7
:102B2000184680BD0070024080B584B000AFF860E8
:102B3000B9607A603B60244B00221A60224B00226D
:102B40005A60FB6800229A60F86800F06EFCF86832
:102B500000F07CFCB968F86800F00CFC3A68B968D1
:102B6000F86800F049FA0022B968F86800F032FB12
:102B70000022B968F86800F051FB7B68DBB21946A7
:102B8000B86800F027FC0021B86800F06BFB00215A
:102B9000B86800F07FFB0021B86800F093FBB868CC
:102BA00000F0A8FB0022B968F86800F0EAF90321F8
:102BB000F86800F024FCB968F86800F005FA002312
:102BC00018461037BD4680BD8815002080B588B0F6
:102BD00000AFF860B9607A603B600123FB833B681B
:102BE000BB613B68002B01D100235CE00121304830
:102BF00000F08AFD0346002B02D06FF0050352E07F
:102C000000BFFB68DB6803F4F853002BF9D1B96807
:102C1000F86800F0C7FB7B687B610DE07B69FA8B8D
:102C20001A807B694FF470421A807B694FF47042BE
:102C30001A803B68203B3B603B68202BEED83B680A
:102C4000002B21D03B681F2B06D83B689BB21B0191
:102C50009AB2FB8B1343FB8397F828301BB25B03BC
:102C60001AB2B7F91E3013431BB2FB837B69FA8B90
:102C70001A803B68102B03D97B694FF470421A808D
:102C80007B694FF470421A8000BFFB68DB6803F475
:102C9000F853002BF9D1B968F86800F06BFB0448D1
:102CA00000F059FDBB6918462037BD4680BD00BF06
:102CB0008815002080B58AB000AFF860B9607A60EE
:102CC0007B681B69002B01D100232EE101216348A1
:102CD00000F01AFD0346002B02D06FF0050324E13B
:102CE0007B6800225A617B6800229A615B4B00225C
:102CF0005A607B689B68002B14BF01230023DBB262
:102D00007B777B685B68002B14BF01230023DBB259
:102D10003B77BB68BB617B681B697B62F6E03B7FEE
:102D20001AB27B7F1BB25B001BB213431AB27B68E3
:102D30001B7B1BB25B021BB213431BB2FB837B6A80
:102D40001F2B43DD7B6A202B0CD17B681B785B0338
:102D50009AB2FB8B13439BB243F00403FB83202303
:102D60003B6228E0FB8B43F00803FB837B6A002B6C
:102D700000DA1F335B117B617B691F2B03D94FF492
:102D800080633B6209E07B699BB21B019AB2FB8BBB
:102D90001343FB837B695B013B623B6A7A6A9A421D
:102DA00009D17B681B781BB25B031AB2B7F91E30DE
:102DB00013431BB2FB83BB69FA8B1A803B6A274A19
:102DC00053607A6A3B6AD31A7B629AE07B6A1BB2D1
:102DD0001B011BB243F004031AB27B681B781BB2C1
:102DE0005B031BB213431AB2B7F91E3013431BB275
:102DF000FB83BB69FA8B1A80184A7B6A53600023F5
:102E00007B627EE03B7F002B3ED000BFFB68DB682F
:102E10001B0A03F01F030E2BF8D8104B5B68012B25
:102E20001EDD7B685A687B689B69013313441B78FD
:102E30001BB21B021AB27B6859687B689B690B4402
:102E40001B781BB213431BB29AB2BB691A807B6812
:102E50009B699A1C7B689A6116E000BF8815002068
:102E60007B685A687B689B6913441B781BB26FEAC6
:102E700003536FEA13531BB29AB2BB691A807B6883
:102E80009B695A1C7B689A617B7F002B2BD0294B56
:102E90005B68012B14DD00233B617B689A687B68CB
:102EA0005B691A440123B969F86800F045F8386194
:102EB0003B69012BF1D17B685B695A1C7B685A61C5
:102EC0007B689A687B685B691A440123B969F86872
:102ED00000F032F838613B69012BF1D17B685B6906
:102EE0005A1C7B685A61134B5B68012B04DD114B44
:102EF0005B68013B0F4A53600E4B5B68013B0D4A18
:102F000053600C4B5B68002B7FF47CAF7B6A002B1B
:102F10007FF405AF074800F01EFC3B7F002B02D07A
:102F20007B689B6901E07B685B6918462837BD4672
:102F300080BD00BF8815002080B487B000AFF86066
:102F4000B9607A603B6000237B6109E07B697A6845
:102F50001344BA681279D2B21A707B6901337B616B
:102F6000FB68DB6803F07C53002B03D03A687B6975
:102F70009A42EBD17B6918461C37BD465DF8047B4D
:102F8000704780B485B000AFF860B9601346FB713C
:102F9000BB681B6823F00302FB7903F003031A43A9
:102FA000BB681A60FB681B6823F03002FB791B01C9
:102FB00003F030031A43FB681A60002318461437E5
:102FC000BD465DF8047B704780B483B000AF786085
:102FD00039603B681B6843F004023B681A607B68F9
:102FE0005B6823F001027B685A60002318460C37A7
:102FF000BD465DF8047B704780B588B000AFF860CF
:10300000B9607A60544B1B687A689A4202D96FF0B3
:1030100002039DE0504B1A687B68B2FBF3F3BB617F
:10302000BB695B08FB61BB695B087B61BB6903F043
:103030000103002B02D0FB690133FB61BB68002B4D
:1030400038D0FB69002B10D1BB681B6823F4706378
:1030500043F48072BB681A60BB681B6823F470433A
:1030600043F48052BB681A6024E0FB690F2B0CD933
:10307000BB681B6843F47062BB681A60BB681B685E
:1030800043F47042BB681A6014E0BB681B6823F409
:1030900070627B691B0203F470631A43BB681A6099
:1030A000BB681B6823F47042FB691B039BB21A4385
:1030B000BB681A60FB68002B38D0FB69002B10D16D
:1030C000FB681B6823F4704343F48052FB681A606A
:1030D000FB681B6823F4706343F48072FB681A601A
:1030E00024E0FB690F2B0CD9FB681B6843F470428A
:1030F000FB681A60FB681B6843F47062FB681A6027
:1031000014E0FB681B6823F470427B691B039BB2CD
:103110001A43FB681A60FB681B6823F47062FB6942
:103120001B0203F470631A43FB681A60FB68002BF0
:1031300004D0F86800F030F8034609E0BB68002BC3
:1031400004D0B86800F00AF8034601E06FF002030B
:1031500018462037BD4680BDE010002080B485B001
:1031600000AF78607B681B681B0B03F00F03FB60EC
:10317000FB68002B01D11023FB60064B1A68FB682B
:103180005B00B2FBF3F318461437BD465DF8047BD1
:10319000704700BFE010002080B485B000AF7860B9
:1031A0007B681B681B0A03F00F03FB60FB68002BA6
:1031B00001D11023FB60064B1B685A08FB685B00BB
:1031C000B2FBF3F318461437BD465DF8047B704735
:1031D000E010002080B485B000AFF860B9601346FD
:1031E000FB71BB681B6823F44032FB791B0403F4BA
:1031F00040331A43BB681A60FB681B6823F44032F3
:10320000FB791B0403F440331A43FB681A60002364
:1032100018461437BD465DF8047B704780B485B00E
:1032200000AFF860B9601346FB71BB681B6823F4FC
:103230004022FB799B0403F440231A43BB681A60C5
:10324000FB681B6823F44022FB799B0403F44023B2
:103250001A43FB681A60002318461437BD465DF810
:10326000047B704780B483B000AF78600B46FB707E
:103270007B685B6823F44072FB781B0203F44073A5
:103280001A437B685A60002318460C37BD465DF828
:10329000047B704780B483B000AF78600B46FB704E
:1032A0007B685B6823F44062FB789B0203F4406315
:1032B0001A437B685A60002318460C37BD465DF8F8
:1032C000047B704780B483B000AF78600B46FB701E
:1032D0007B685B6823F44052FB781B0303F4405384
:1032E0001A437B685A60002318460C37BD465DF8C8
:1032F000047B704780B483B000AF78607B685B6804
:1033000023F480327B685A60002318460C37BD4690
:103310005DF8047B704780B483B000AF78600B46E3
:10332000FB707B689B6823F00F02FB7803F00F03B0
:103330001A437B689A60002318460C37BD465DF837
:10334000047B704780B483B000AF786039603B681D
:103350001B6923F002023B681A617B689B6823F0BB
:1033600000727B689A60002318460C37BD465DF8F2
:10337000047B704780B483B000AF786039603B68ED
:103380001B6943F001023B681A617B689B6843F04C
:1033900080727B689A60002318460C37BD465DF842
:1033A000047B704780B483B000AF786039603B68BD
:1033B0001B6923F001023B681A617B689B6823F05C
:1033C00080727B689A60002318460C37BD465DF812
:1033D000047B704780B483B000AF78600B46FB700D
:1033E0007B685B6823F0FF02FB781A437B685A60B6
:1033F000002318460C37BD465DF8047B704780B447
:1034000083B000AF78600B46FB707B681B6823F0CD
:10341000C002FB789B01DBB21A437B681A6000BFD5
:103420000C37BD465DF8047B704780B483B000AFB5
:1034300078607B689B6843F004027B689A60002395
:1034400018460C37BD465DF8047B704780B483B0E6
:1034500000AF78607B689B6843F002027B689A60EB
:10346000002318460C37BD465DF8047B704780B4D6
:1034700083B000AF78607B689B6843F001027B6893
:103480009A60002318460C37BD465DF8047B7047F0
:1034900080B483B000AF78607B689B6823F0010242
:1034A0007B689A60002318460C37BD465DF8047BA4
:1034B0007047000080B500AF0F4B1B6803F48033EA
:1034C000002B16D00D4B1B68002B05DD0B4B1B682A
:1034D000013B0A4A13600CE000F0BEF8084B1B6881
:1034E000002B06D0064B1B6800209847044B002297
:1034F0001A6000BF80BD00BF10E000E000000020A7
:10350000981500202DE9B04386B000AF78603649A9
:10351000896879613449096821F480313348016050
:103520003149096801F00101002911D12E496FF0DC
:103530007F4048602C496FF07F4088602A49052011
:1035400008606FF07F4179614FF08071396103E06D
:1035500025494968013139617968002088468146EA
:103560002349096800200A46034602FB09F008FBCC
:1035700003F10144A8FB02454B191D461D4A4FF0BB
:103580000003204629462AF071FB02460B461346EB
:10359000FB60FA683B69B2FBF3F31A46164B1A60FC
:1035A000FB683A69B3FBF2F2396901FB02F29B1A3C
:1035B000BB60BA687B699A420CD30F4B1B6801331E
:1035C0000D4A13607A69BB68D21A3B6913440B4AEF
:1035D000136004E07A69BB68D31A084A136000BF1D
:1035E0001837BD46BDE8B08310E000E09415002018
:1035F000E010002040420F00000000209015002045
:1036000080B582B000AF78603960104A3B681360C3
:103610000F4B1B68002B02DD6FF0050312E07B6887
:10362000002B01D100230DE07868FFF76BFF084BFA
:103630001B68002B05DD074B1B68064A43F002039D
:103640001360002318460837BD4680BD981500203A
:103650000000002010E000E080B500AF0A4B1B68BE
:10366000002B07D0084B1B686FF00F009847064BE4
:1036700000221A60054A064B1B681360054B4FF089
:10368000FF321A6000BF80BD9815002010E000E0F6
:10369000941500200000002080B582B000AF786053
:1036A000164B1B68002B02DD6FF0050321E07B68E1
:1036B000002B01D100231CE07868FFF723FF0AE00C
:1036C0000F4B1B6803F48033002B04D00B4B1B689B
:1036D000013B0A4A1360094B1B68002BF0DC00BF5A
:1036E000074B9A68074B1B689A42F9D8FFF7B4FF5B
:1036F000002318460837BD4680BD00BF00000020EB
:1037000010E000E09015002080B489B000AF786030
:1037100039607B68FB61FB6953E8003FBB61BB69B3
:10372000002B02D06FF005030FE03B687B617B68E4
:103730003B6139697A6941E80023FB60FB68002B33
:10374000E7D1BFF35F8F00BF002318462437BD4683
:103750005DF8047B704780B483B000AF7860BFF33E
:103760005F8F00BF7B6800221A6000BF0C37BD4628
:103770005DF8047B7047000080B483B000AF03465F
:10378000FB71FB793F2B0DD9FB79403BFB71184B4B
:10379000DB68FA79012101FA02F21146144A0B435F
:1037A000D3601EE0FB791F2B0FD9FB79203BFB7107
:1037B0004FF080439B6CFA79012101FA02F2114625
:1037C0004FF080420B4393640BE04FF080435B6A01
:1037D000FA79012101FA02F211464FF080420B43BF
:1037E000536200BF0C37BD465DF8047B704700BFD5
:1037F0000000084080B483B000AF0346FB71FB7942
:103800003F2B0ED9FB79403BFB71194BDB68FA79F2
:10381000012101FA02F2D2431146154A0B40D3604E
:1038200020E0FB791F2B10D9FB79203BFB714FF077
:1038300080439B6CFA79012101FA02F2D2431146CE
:103840004FF080420B4093640CE04FF080435B6A82
:10385000FA79012101FA02F2D24311464FF0804277
:103860000B40536200BF0C37BD465DF8047B7047C8
:103870000000084080B582B000AF0346FB71FB79C1
:10388000072B6CD801A252F823F000BFE5380010D6
:103890005F390010173900100B390010AD380010D7
:1038A000C938001043390010013900104FF080432F
:1038B0009B684FF0804243F4002393604FF0006018
:1038C00000F056F803464CE04FF080439B684FF001
:1038D000804243F4801393604FF0805000F048F82A
:1038E00003463EE04FF080439B684FF0804243F434
:1038F000802393604FF0806000F03AF8034630E098
:103900001A48FDF7D5F903462BE04FF0005000F0C0
:103910002FF8034625E04FF080435B6F4FF0804265
:1039200043F0110353674FF080439B684FF0804290
:1039300043F4803393604FF0807000F019F8034631
:103940000FE04FF080439B684FF0804243F4003318
:1039500093604FF0007000F00BF8034601E06FF049
:10396000020318460837BD4680BD00BFE8A003101B
:1039700080B582B000AF786000214FF47A70FFF715
:103980003FFE00BF4FF080439A687B681340002BD6
:10399000F8D0002318460837BD4680BD80B584B0F6
:1039A00000AF0346FB714FF080439B6803F46063F4
:1039B000FB60FB79072B00F2918001A252F823F003
:1039C0000B3A0010DD3A0010733A00109D3A0010D7
:1039D000E1390010313A0010B33A00105B3A0010A0
:1039E0004FF080439B6803F40023002B02D1042096
:1039F000FFF740FF4FF080439B6823F460634FF074
:103A0000804243F4006393606BE04FF080439B6817
:103A100003F48023002B02D10020FFF72BFF4FF08F
:103A200080439B684FF0804223F46063936058E0CA
:103A30004FF080439B6803F48013002B02D10520D4
:103A4000FFF718FF4FF080439B6823F460634FF04B
:103A5000804243F42063936043E00720FFF70AFFAE
:103A60004FF080439B684FF0804243F46063936063
:103A700037E04FF080439B6803F48033002B02D182
:103A80000220FFF7F7FE4FF080439B6823F460634A
:103A90004FF0804243F48063936022E04FF0804314
:103AA0009B6823F460634FF0804243F4C0639360EB
:103AB00017E04FF080439B6803F40033002B02D1E2
:103AC0000620FFF7D7FE4FF080439B6823F4606326
:103AD0004FF0804243F44063936002E06FF00203D2
:103AE00018E04FF40050FFF743FF0346002B0ED0C1
:103AF0004FF080439B6823F46062FB6803F46063CB
:103B00004FF0804113438B606FF0090302E0FCF734
:103B1000FDFB002318461037BD4680BD80B483B03E
:103B200000AF0346FB71FB793F2B12D9FB79403B79
:103B3000FB71FB7901229A401D4B9A6000BF1C4B20
:103B40009B68FA79012101FA02F21340002BF6D1A9
:103B500028E0FB791F2B14D9FB79203BFB71FB7903
:103B600001229A404FF080435A6400BF4FF08043D7
:103B70005B6CFA79012101FA02F21340002BF5D1B6
:103B800010E0FB7901229A404FF080435A6000BF59
:103B90004FF080435B68FA79012101FA02F2134089
:103BA000002BF5D100BF0C37BD465DF8047B704794
:103BB0000000084080B582B000AF7860786800F0FF
:103BC0001BF800BF0837BD4680BD80B582B000AF8E
:103BD0007860786800F054F800BF0837BD4680BDB3
:103BE00080B582B000AF7860786800F08DF800BFD3
:103BF0000837BD4680BD000080B485B000AF786056
:103C00007B68194A934220D07B68184A93421AD0A5
:103C10007B68174A934214D07B68164A93420ED0B1
:103C20007B68154A934208D07B68144A934201D1BD
:103C300005230BE04FF0FF3308E0042306E00323E5
:103C400004E0022302E0012300E00023FB607B6824
:103C5000DB6843F001127B68DA6000BF1437BD46B1
:103C60005DF8047B704700BF000001400010014078
:103C70000020014000300140000C084000100840C6
:103C800080B485B000AF78607B68194A934220D039
:103C90007B68184A93421AD07B68174A934214D023
:103CA0007B68164A93420ED07B68154A934208D02F
:103CB0007B68144A934201D105230BE04FF0FF3398
:103CC00008E0042306E0032304E0022302E00123CA
:103CD00000E00023FB607B689B6943F001227B6866
:103CE0009A6100BF1437BD465DF8047B704700BF82
:103CF0000000014000100140002001400030014060
:103D0000000C08400010084080B485B000AF786017
:103D10007B68194A934220D07B68184A93421AD094
:103D20007B68174A934214D07B68164A93420ED0A0
:103D30007B68154A934208D07B68144A934201D1AC
:103D400005230BE04FF0FF3308E0042306E00323D4
:103D500004E0022302E0012300E00023FB607B6813
:103D60009B6923F001227B689A6100BF1437BD462E
:103D70005DF8047B704700BF000001400010014067
:103D80000020014000300140000C084000100840B5
:103D900080B582B000AF786000BF786800F0A6FC04
:103DA0000346002BF9D0786800F048FC034618461B
:103DB0000837BD4680BD80B582B000AF78603960FD
:103DC0003968786801F032FB034618460837BD466B
:103DD00080BD80B582B000AF7860786801F084FB68
:103DE000034618460837BD4680BD000080B586B042
:103DF00000AFF860B9601346FB71F86800F05AFF35
:103E0000034683F00103DBB2002B08D0F86800F012
:103E100075F878617B69002B01D07B695AE0FB68FB
:103E20002E4A934214D0FB682D4A93420ED0FB6871
:103E30002C4A934208D0FB682B4A934201D10323BA
:103E400007E04FF0FF3304E0022302E0012300E02B
:103E50000023032B26D801A252F823F06D3E001058
:103E60007B3E0010893E0010973E00101F48FCF773
:103E70001FFF0920FFF7BEFC17E01D48FCF718FFE5
:103E80000A20FFF7B7FC10E01A48FCF711FF2120C9
:103E9000FFF7B0FC09E01848FCF70AFF4420FFF7E1
:103EA000A9FC02E06FF0020314E0FB791946F86800
:103EB00000F0CCFA78617B69002B01D07B6909E0C6
:103EC000F86800F061FB03461A46B968F86800F02C
:103ED0001DFD034618461837BD4680BD002004402E
:103EE000003004400040044000140840F4A00310D7
:103EF00018A103103CA1031060A1031080B582B08B
:103F000000AF78607B68254A934214D07B68244ACE
:103F100093420ED07B68234A934208D07B68224AA2
:103F2000934201D1032307E04FF0FF3304E0022363
:103F300002E0012300E00023032B27D801A252F85E
:103F400023F000BF553F0010633F0010713F001089
:103F50007F3F00100B20FFF7E1FD0920FFF70CFC6D
:103F600017E00C20FFF7DAFD0A20FFF705FC10E050
:103F70001C20FFF7D3FD2120FFF7FEFB09E04420C2
:103F8000FFF7CCFD4420FFF7F7FB02E06FF00203E0
:103F900000E0002318460837BD4680BD00200440DD
:103FA00000300440004004400014084080B588B050
:103FB00000AFF860B9601346FB710023BB610023BA
:103FC0007B61FB68784A93420ED0FB68774A934244
:103FD0000AD0FB68764A934206D0FB68754A934242
:103FE00002D06FF00203DAE0FB68724A934260D1BC
:103FF000FB6805225A61FB79022B02D0032B11D0FA
:1040000041E04FF4E102BB68B2FBF3F37B614FF494
:10401000E103BA68B3FBF2F2B96801FB02F29B1A42
:10402000BB6133E0FB681B6843F48032FB681A60B5
:10403000FB681B6843F40012FB681A60BB68B3F5A9
:10404000165F04D107237B610023BB610FE04FF4AF
:104050008032BB68B2FBF3F37B614FF48033BA6804
:10406000B3FBF2F2B96801FB02F29B1ABB61BB68B9
:10407000B3F5166F03D9FB6800225A6106E0FB68AE
:1040800001225A6102E06FF0020388E07B69002B95
:1040900004D0BB685A08BB699A4202D27B690133DB
:1040A0007B617A69FB681A61F86800F089F8F86149
:1040B00064E0FB6805225A61FB79022B32D0022BA7
:1040C00047DC002B02D0012B17D042E0FB681A68B6
:1040D000FB681A60384B1B685A08BB68B2FBF3F3E5
:1040E0007B61354B1B685B08BA68B3FBF2F2B968B9
:1040F00001FB02F29B1ABB612EE0FB681B6843F4D4
:104100008032FB681A602D4ABB68B2FBF3F37B6117
:104110002A4BBA68B3FBF2F2B96801FB02F29B1AB0
:10412000BB6119E0FB681B6843F40032FB681A604E
:104130004FF4E102BB68B2FBF3F37B614FF4E103A0
:10414000BA68B3FBF2F2B96801FB02F29B1ABB61D9
:1041500002E06FF0020322E07B69002B04D0BB6811
:104160005A08BB699A4202D27B6901337B617A6942
:10417000FB681A61F86800F023F8F861FB69002B0E
:104180000CDDFB681B6843F40042FB681A6000BF4B
:10419000FB681B6803F40023002BF9D0FB69184669
:1041A0002037BD4680BD00BF0020044000300440E1
:1041B0000040044000140840E01000200048E801DE
:1041C00080B485B000AF78600023FB607B68314A23
:1041D00093420ED07B68304A93420AD07B682F4AC4
:1041E000934206D07B682E4A934202D06FF00203BE
:1041F00049E07B682A4A93421DD17B681B6803F41F
:104200004033B3F5803F03D14FF48033FB600CE0C3
:104210007B681B6803F44033002B03D14FF4E103A8
:10422000FB6002E06FF002032DE0FA687B681B6917
:10423000B2FBF3F327E07B681B6803F44033B3F56C
:10424000803F02D1174BFB6018E07B681B6803F4CA
:104250004033002B04D1144B1B685B08FB600DE05E
:104260007B681B6803F44033B3F5003F03D14FF480
:10427000E103FB6002E06FF0020304E0FA687B6890
:104280001B69B2FBF3F318461437BD465DF8047B97
:10429000704700BF0020044000300440004004404C
:1042A000001408400048E801E010002080B582B00A
:1042B00000AF786039603968786800F0C9FB034660
:1042C00018460837BD4680BD80B582B000AF786023
:1042D0000B46FB70FB781946786800F0DCFB034660
:1042E00018460837BD4680BD80B582B000AF786003
:1042F0000B46FB70FB781946786800F0F1FB03462B
:1043000018460837BD4680BD80B584B000AFF86060
:104310000B467A60FB72FB7A012B3AD1FB683F4A6D
:10432000934214D0FB683E4A93420ED0FB683D4A4C
:10433000934208D0FB683C4A934201D1032307E033
:104340004FF0FF3304E0022302E0012300E00023EA
:10435000032B1BD801A252F823F000BF6D430010BD
:10436000754300107D430010854300102F48FCF773
:104370009FFC48E02E48FCF79BFC44E02D48FCF7EE
:1043800097FC40E02C48FCF793FC3CE06FF0020304
:1043900040E0FB68214A934214D0FB68204A9342D4
:1043A0000ED0FB681F4A934208D0FB681E4A934216
:1043B00001D1032307E04FF0FF3304E0022302E0C2
:1043C000012300E00023032B1AD801A252F823F0A6
:1043D000E1430010E9430010F1430010F9430010DD
:1043E0001648FCF765FC0EE01548FCF761FC0AE096
:1043F0001448FCF75DFC06E01348FCF759FC02E0AA
:104400006FF0020306E0FB7A7A681946F86800F05C
:1044100081FC034618461037BD4680BD002004408D
:1044200000300440004004400014084000A1031084
:1044300024A1031048A103106CA103100CA10310C8
:1044400030A1031054A1031078A1031080B586B0E9
:1044500000AF78600B46FB7000237B610023FB7488
:104460007B68454A934214D07B68444A93420ED0FD
:104470007B68434A934208D07B68424A934201D109
:10448000032307E04FF0FF3304E0022302E001239F
:1044900000E00023FB60FB68002B02DA6FF00203F0
:1044A00066E07B68344A934214D07B68334A934277
:1044B0000ED07B68324A934208D07B68314A9342DF
:1044C00001D1032307E04FF0FF3304E0022302E0B1
:1044D000012300E00023022B02DC002B03DA39E089
:1044E000032B1FD036E0FB78022B10D0022B15DCFB
:1044F000002B02D0012B03D010E00023FB7410E04E
:104500000220FFF7B7F978610123FB7409E0052069
:10451000FFF7B0F978610223FB7402E06FF0020349
:1045200026E01AE0FB78022B02D0032B07D00DE027
:104530000520FFF79FF978610023FB7409E006204E
:10454000FFF798F978610123FB7402E06FF0020332
:104550000EE002E06FF002030AE07B69002B01D05D
:104560007B6905E0FB7C1946786800F02DFB03466B
:1045700018461837BD4680BD002004400030044076
:10458000004004400014084080B584B000AF78605B
:10459000786800F07FFBF8607B68244A934214D06F
:1045A0007B68234A93420ED07B68224A934208D00C
:1045B0007B68214A934201D1032307E04FF0FF3388
:1045C00004E0022302E0012300E00023022B02DCCE
:1045D000002B03DA24E0032B15D021E0FB68022B2B
:1045E0000DD0FB68022B0CD8FB68002B03D0FB68B6
:1045F000012B02D005E0002313E0012311E0022388
:104600000FE0F9230DE0FB68002B03D0FB68012BC2
:1046100002D003E0022304E0032302E0F92300E0D8
:10462000FD2318461037BD4680BD00BF0020044062
:1046300000300440004004400014084080B582B0BF
:1046400000AF7860786800F08AFB034618460837A8
:10465000BD4680BD80B582B000AF78600B46FB7070
:10466000FB781946786800F08FFB03461846083738
:10467000BD4680BD80B582B000AF78607868FFF736
:1046800087FB034618460837BD4680BD80B584B019
:1046900000AFF860B9607A607A68B968F86800F0CD
:1046A0008CFB034618461037BD4680BD80B584B0EC
:1046B00000AFF860B9607A607A68B968F86800F0AD
:1046C000B2FB034618461037BD4680BD80B584B0A6
:1046D00000AFF860B9607A607A68B968F86800F08D
:1046E000D7FB034618461037BD4680BD80B582B063
:1046F00000AF7860786800F0F1FB03461846083791
:10470000BD4680BD80B584B000AFF860B9607A6006
:104710007A68B968F86800F0F0FB0346184610376D
:10472000BD4680BD80B582B000AF7860786800F08B
:104730000AFC034618460837BD4680BD80B582B0E6
:1047400000AF7860786800F011FC0346184608371F
:10475000BD4680BD80B582B000AF786039603968F1
:10476000786800F01BFC034618460837BD4680BD3C
:1047700080B582B000AF7860786800F02EFC034608
:1047800018460837BD4680BD80B582B000AF78605E
:1047900039603968786800F02CFC03461846083701
:1047A000BD4680BD80B582B000AF786039603968A1
:1047B000786800F02DFC034618460837BD4680BDDA
:1047C00080B582B000AF786039603968786800F0F1
:1047D00031FC034618460837BD4680BD80B582B01F
:1047E00000AF7860786800F038FC03461846083758
:1047F000BD4680BD80B582B000AF7860786800F0BB
:1048000039FC034618460837BD4680BD80B582B0E6
:1048100000AF7860786800F075FE034618460837E8
:10482000BD4680BD80B582B000AF7860786800F08A
:104830007BFE034618460837BD4680BD80B483B072
:1048400000AF0346FB71FB7903F01F03012202FA5C
:1048500003F1064A97F907305B09403342F8231009
:1048600000BF0C37BD465DF8047B704700E100E0F7
:1048700080B584B000AF78607B681B681021184653
:10488000FFF782FF7B681B681846FFF72FFFF86071
:104890007B681A697B689B69D31AFA68934228BFC0
:1048A0001346FB607B6818687B689A687B689B6925
:1048B0001344FA681946FFF709FFF8607B689A69A4
:1048C000FB681A447B689A617B681A697B689B69FC
:1048D000D31AFB60FB68072B01D90723FB607B68B9
:1048E0001B68F9681846FFF735FFFB68002B08D0F6
:1048F0007B681B681846FFF7F9FE0246FB68934287
:10490000BAD900BF1037BD4680BD000080B586B063
:1049100000AFF860B9601346FB710121F868FFF73A
:1049200019FF78617B69002B01D07B6982E0082147
:10493000F868FFF7BBFC78617B69002B01D07B69CD
:1049400078E00021F868FFF7CFFC78617B69002BE5
:1049500001D07B696EE00021F868FFF7B5FC786153
:104960007B69002B01D07B6964E0FB791A46B9684A
:10497000F868FFF71BFB78617B69002B01DA7B6924
:1049800058E0FB682D4A934214D0FB682C4A9342AE
:104990000ED0FB682B4A934208D0FB682A4A934208
:1049A00001D1032307E04FF0FF3304E0022302E0CC
:1049B000012300E000233B6124493A6913465B0070
:1049C0001344DB000B440C334FF0FF321A601F49D5
:1049D0003A6913465B001344DB000B4408334FF085
:1049E000FF321A6019493A6913465B001344DB0031
:1049F0000B4400221A6015493A6913465B001344C0
:104A0000DB000B44043300221A6010493A69134654
:104A10005B001344DB000B44103300221A700B4977
:104A20003A6913465B001344DB000B441433002245
:104A30001A60002318461837BD4680BD0020044088
:104A400000300440004004400014084004000020EE
:104A500080B483B000AF786039603B68042B02DD1E
:104A60003B68082B02DD6FF002030EE03B68053B5C
:104A70009B023B607B681B6823F440623B6803F445
:104A800040631A437B681A60002318460C37BD4602
:104A90005DF8047B704780B483B000AF78600B464C
:104AA000FB70FB78002B02D0012B07D00DE07B6858
:104AB0001B6823F480527B681A6009E07B681B68DE
:104AC00043F480527B681A6002E06FF0020300E05A
:104AD000002318460C37BD465DF8047B7047000084
:104AE00080B483B000AF78600B46FB70FB78042B7A
:104AF0005FD801A252F823F00D4B00101B4B0010A1
:104B0000414B0010674B00108D4B00107B681B68F9
:104B100023F010027B681A604EE07B681B6843F04C
:104B200010027B681A607B681B6823F020027B6898
:104B30001A607B681B6823F040027B681A603BE0C8
:104B40007B681B6843F010027B681A607B681B68F7
:104B500023F020027B681A607B681B6843F04002E8
:104B60007B681A6028E07B681B6843F010027B6852
:104B70001A607B681B6843F020027B681A607B68C0
:104B80001B6823F040027B681A6015E07B681B6895
:104B900043F010027B681A607B681B6843F02002B8
:104BA0007B681A607B681B6843F040027B681A6070
:104BB00002E06FF0020300E0002318460C37BD4608
:104BC0005DF8047B704700BF80B485B000AF7860AB
:104BD0000B46FB707B682A4A934214D07B68294AB3
:104BE00093420ED07B68284A934208D07B68274ABC
:104BF000934201D1032307E04FF0FF3304E0022387
:104C000002E0012300E00023214AD35C002B01D005
:104C100000232EE07B681B6803F40043002B14BFC5
:104C200001230023FB73FB7B002B05D07B681B68F3
:104C300023F400427B681A607B681B6823F44032CF
:104C4000FB781B0403F440331A437B681A60FB7B38
:104C5000002B0DD07B681B6843F400427B681A6010
:104C600000E000BF7B681B6803F40023002BF8D032
:104C7000002318461437BD465DF8047B704700BF1B
:104C8000002004400030044000400440001408406C
:104C9000BC15002080B483B000AF78607B681B68CF
:104CA0001B0C03F0030318460C37BD465DF8047B6C
:104CB0007047000080B483B000AF78607B68104A12
:104CC000934214D07B680F4A93420ED07B680E4A01
:104CD000934208D07B680D4A934201D1032307E039
:104CE0004FF0FF3304E0022302E0012300E0002341
:104CF000074AD35C18460C37BD465DF8047B704705
:104D000000200440003004400040044000140840EB
:104D1000BC15002080B485B000AFF8600B467A6007
:104D2000FB72FB7A002B02D0012B07D00DE0FB6851
:104D30001B6823F40052FB681A6009E0FB681B68DB
:104D400043F40052FB681A6002E06FF0020300E0D7
:104D5000002318461437BD465DF8047B704780B4C5
:104D600083B000AF78607B685B6803F01003002BB2
:104D700002D06FF00C0301E07B681B6A18460C3709
:104D8000BD465DF8047B704780B483B000AF7860A7
:104D90000B46FB707B685B6803F08003002B02D03E
:104DA0006FF00B0303E0FA787B681A620023184661
:104DB0000C37BD465DF8047B704780B586B000AF08
:104DC000F860B9607A6000237B61BB68002B02D178
:104DD0004FF0FF3323E07B68002B17D14FF0FF33F8
:104DE0001DE0F868FFF746FC38613B69002B04DAE8
:104DF0007B687A691A603B6911E07B69BA68134481
:104E00003A69D2B21A707B6901337B617B681B6897
:104E10007A699A42E5DB7B687A691A600023184652
:104E20001837BD4680BD80B586B000AFF860B96068
:104E30007A6000237B61BB68002B02D14FF0FF3307
:104E400022E07B68002B16D14FF0FF331CE07B691A
:104E5000BA6813441B781946F868FFF7FBFB386102
:104E60003B69002B04D07B687A691A603B690BE0D0
:104E70007B6901337B617B681B687A699A42E6DB58
:104E80007B687A691A60002318461837BD4680BDD2
:104E900080B487B000AFF860B9607A6000237B61AE
:104EA0000FE0FB685B6803F01003002B0ED1FB687A
:104EB000196ABA687B691344CAB21A707B690133F4
:104EC0007B617A697B689A42EBD300E000BF7B6923
:104ED00018461C37BD465DF8047B704780B483B02C
:104EE00000AF78607B685B681B0A03F00F0318460D
:104EF0000C37BD465DF8047B704780B487B000AFC7
:104F0000F860B9607A6000237B610FE0FB685B6842
:104F100003F08003002B0ED1BA687B6913441B7821
:104F20001A46FB681A627B6901337B617A697B6888
:104F30009A42EBD300E000BF7B6918461C37BD46A0
:104F40005DF8047B704780B485B000AF78607B6803
:104F50005B681B0B03F00F03FB60FB68C3F10803E6
:104F600018461437BD465DF8047B704780B483B0A3
:104F700000AF78607B681B6843F480727B681A60BE
:104F800000BF7B681B6803F48073002BF9D10023FA
:104F900018460C37BD465DF8047B704780B483B07B
:104FA00000AF786039603B68002B02D03B68082B6B
:104FB00002D96FF002030AE07B681B6823F00F023E
:104FC0003B6803F00F031A437B681A6000231846FE
:104FD0000C37BD465DF8047B704780B483B000AFEA
:104FE00078607B68DB6818460C37BD465DF8047B4B
:104FF000704780B483B000AF786039607B683A68EE
:10500000DA60002318460C37BD465DF8047B704714
:1050100080B483B000AF786039607B689A683B6881
:105020001A437B689A60002318460C37BD465DF82A
:10503000047B704780B483B000AF786039607B68D0
:105040009A683B68DB431A407B689A6000231846E5
:105050000C37BD465DF8047B704780B483B000AF69
:1050600078607B685B6818460C37BD465DF8047B4A
:105070007047000080B584B000AF78607B681B6823
:10508000964A934217D07B681B68954A934210D08A
:105090007B681B68934A934209D07B681B68924ADD
:1050A000934201D1032307E04FF0FF3304E00223D2
:1050B00002E0012300E00023FB608C4AFB6852F809
:1050C0002330002B14D18A4AFB6852F82330002B7E
:1050D0000ED17B681B684FF0FF311846FFF770FB5D
:1050E0007B681B684FF0FF311846FFF74DFB19E056
:1050F0007F4AFB6852F82330002B06D07B681B697F
:10510000002B02D06FF00503FFE0784AFB6852F8ED
:105110002330002B06D07B68DB68002B02D06FF0B9
:105120000503F2E07B6800225A617B6800229A61E5
:105130007B68DB68002B71D07B685B68002B02D139
:105140006FF00203E1E07B681B68644A934217D06A
:105150007B681B68624A934210D07B681B68614A77
:10516000934209D07B681B685F4A934201D10323B5
:1051700007E04FF0FF3304E0022302E0012300E0E8
:1051800000235A497A6841F823207B681B68184637
:10519000FFF7C8FAB8607B68DA687B685B69D31A86
:1051A000BA68934228BF1346BB607B6818687B6867
:1051B0005A687B685B691344BA681946FFF7A2FA1C
:1051C00002467B685B691A447B685A617B685A694E
:1051D0007B68DB689A421BD1FB68002B13D0FB680D
:1051E0005BB2012B0DD0FB685BB2022B07D0FB68D2
:1051F0005BB2032B01D1582306E0002304E02223F5
:1052000002E00F2300E00E231846FFF717FB05E02E
:105210007B681B6840211846FFF7C4FA7B681B694E
:10522000002B71D07B689B68002B0ED17B681B68BC
:105230004FF0FF311846FFF7C3FA7B681B6818462A
:10524000FFF77CFA6FF002035FE07B681B68234A7C
:10525000934217D07B681B68214A934210D07B6829
:105260001B68204A934209D07B681B681E4A934200
:1052700001D1032307E04FF0FF3304E0022302E0F3
:10528000012300E000231A497A6841F823207B6853
:105290001B6810211846FFF785FA7B681B680B21F5
:1052A0001846FFF77FFA7868FFF7E2FA7B681A6919
:1052B0007B689B699A4227D1FB68002B20D0FB6852
:1052C0005BB2012B1AD0FB685BB2022B14D0FB68D7
:1052D0005BB2032B0ED1582313E000BF0020044023
:1052E0000030044000400440001408409C15002099
:1052F000AC150020002304E0222302E00F2300E08D
:105300000E231846FFF79AFA002318461037BD46B9
:1053100080BD00BF80B584B000AF786039607B6825
:105320001A4A934214D07B68194A93420ED07B6884
:10533000184A934208D07B68174A934201D103234D
:1053400007E04FF0FF3304E0022302E0012300E016
:105350000023FB60114AFB6852F82330BB60BB6836
:10536000002B0DD0BB68DB69002B09D00B4AFB6812
:10537000002142F82310BB68DB693968B868984798
:10538000002318461037BD4680BD00BF00200440F2
:105390000030044000400440001408409C150020E8
:1053A00080B584B000AF786039607B681A4A934258
:1053B00014D07B68194A93420ED07B68184A9342F6
:1053C00008D07B68174A934201D1032307E04FF0CE
:1053D000FF3304E0022302E0012300E00023FB602E
:1053E000114AFB6852F82330BB60BB68002B0DD01C
:1053F000BB68DB69002B09D00B4AFB68002142F82F
:105400002310BB68DB693968B868984700231846E1
:105410001037BD4680BD00BF00200440003004406E
:105420000040044000140840AC15002080B584B052
:1054300000AF786039607B68184A934214D07B686B
:10544000174A93420ED07B68164A934208D07B6875
:10545000154A934201D1032307E04FF0FF3304E0E4
:10546000022302E0012300E00023FB603968786832
:10547000FFF750FF0D4AFB6852F823200C49FB68E8
:1054800051F823309A4203D039687868FFF788FFD3
:10549000002318461037BD4680BD00BF00200440E1
:1054A000003004400040044000140840AC150020C7
:1054B0009C15002080B582B000AF786040217868EC
:1054C000FFF77EF9002318460837BD4680BD80B53A
:1054D00082B000AF78600B217868FFF771F9002384
:1054E00018460837BD4680BD80B582B000AF7860F1
:1054F0004FF0FF317868FFF763F90023184608374B
:10550000BD4680BD80B582B000AF78607868FEF798
:1055100060FC6FF00F017868FEF74DFC0023184621
:105520000837BD4680BD000080B586B000AF78600A
:105530007B68724A934214D07B68714A93420ED0C2
:105540007B68704A934208D07B686F4A934201D1CE
:10555000032307E04FF0FF3304E0022302E00123BE
:1055600000E000237B617868FFF702F93861674A41
:105570007B6952F82330002B0ED1654A7B6952F8C3
:105580002330002B08D17B68DB6819467868FFF769
:10559000FBF86FF00303ACE07B689A683B6913404B
:1055A00003F00B03002B0AD07868FEF712FC6FF0B3
:1055B00008017868FEF7FFFB6FF0030399E0534A98
:1055C0007B6952F82330FB60FB68002B31D0FB680D
:1055D000DB68002B2DD0FB681B681846FFF7A2F88C
:1055E000B860FB68DA68FB685B69D31ABA689A42EC
:1055F00005D9FB68DA68FB685B69D31A00E0BB6811
:10560000BB60FB681868FB685A68FB685B691344F9
:10561000BA681946FFF776F8B860FB685A69BB6844
:105620001A44FB685A61FB681B6840211846FFF763
:10563000ABF8374A7B6952F82330FB60FB68002BDC
:1056400006D0FB681B69002B02D0F868FFF710F941
:105650002F4A7B6952F823202C497B6951F823306B
:105660009A4217D1FB68002B12D0FB689A69FB683D
:105670001B699A420CD1FB685A69FB68DB689A4245
:1056800006D17868FEF7A5FB00217868FEF793FB4A
:1056900000232EE01E4A7B6952F82330FB60FB6832
:1056A000002B0ED0FB689A69FB681B699A4208D1EF
:1056B0007868FFF70CFF00217868FFF771FE002380
:1056C00017E0124A7B6952F82330FB60FB68002B1D
:1056D0000ED0FB685A69FB68DB689A4208D178688B
:1056E000FFF7E8FE00217868FFF714FE002300E0D2
:1056F000002318461837BD4680BD00BF0020044077
:105700000030044000400440001408409C15002074
:10571000AC15002080B588B000AF786039600023F8
:10572000BB6107F1100300221A605A600023FB7767
:105730000023BB7700237B7707F1080300221A6060
:105740005A607B68002B02D03B68002B02D16FF0BF
:105750001503A2E03B681B685BB203F03F035BB23A
:1057600043F040035BB2DBB23B743B681B68022B27
:1057700009D17B685B6810335B6803F48063002B9E
:1057800001D001237B777B6818687B68B3F9083008
:10579000002B05D03B689B689BB202339BB204E0B0
:1057A0003B689B689BB201339BB27A7F92B21344F1
:1057B0009AB207F11003194601F060FDB861BB69A8
:1057C000002B01D0BB6968E07B68B3F90830012B7E
:1057D00032D13B681B685BB203F03F035BB243F01E
:1057E00040035BB2DBB23B720123FB770CE0FA7F34
:1057F000FB7F20323A4412F8102C20333B4403F84C
:10580000182CFB7F0133FB77FA7F3B689B68991C60
:105810007B7F0B449A42EADB3B689B68DAB27B7F72
:105820001344DBB20233DAB207F10803114618461B
:1058300000F0EAF90346BB77BB7F002B02D06FF084
:105840004C032AE07B7F002B09D03B689B68013327
:1058500020333B4413F8102C7B685B685A603B682C
:1058600000225A600123FB7711E03B685B681A0253
:105870003B685A603B685B68FA7F20323A4412F812
:10588000102C1A443B685A60FB7F0133FB773B685E
:105890009A68FB7F9A42E8DA002318462037BD4613
:1058A00080BD84B080B586B000AF786007F1240079
:1058B00080E80E0000237B6107F1080300221A60D4
:1058C0005A600023FB740023BB747B68002B02D159
:1058D0006FF015034BE07B6ADBB203F03F03DBB2F2
:1058E0003B72BB6A7B610023FB740EE0FA6AFB7CAF
:1058F000D31A7A69D2B218333B4403F8102C7B696F
:105900001B127B61FB7C0133FB74FA7CFB6A9A42BD
:10591000ECDB7B68B3F90830002B12D0FB6ADBB2FA
:105920000133DAB207F108031146184600F06CF9AA
:105930000346BB74FB6A013318333B44BA7C03F85B
:10594000102C7B6818687B68B3F90830002B04D0F2
:10595000FB6A9BB202339BB203E0FB6A9BB201334A
:105960009BB207F108011A4601F088FC034618466D
:105970001837BD46BDE8804004B0704780B584B09C
:1059800000AF786039603B681B68062B11D07B68DC
:10599000B3F90A30002B0CD07B68B3F90C301946F0
:1059A000786800F0B7F8F860FB68002B01D0FB685E
:1059B00004E039687868FFF7ADFE034618461037F3
:1059C000BD4680BD80B586B000AFF860B9607A6032
:1059D000FB685A68BB681B0113441946F868FFF757
:1059E000CDFF78617B69002B01D07B6909E0FB6802
:1059F0005A68BB681B0113445B681A467B681A60CF
:105A0000002318461837BD4680BD84B080B586B0E7
:105A100002AF786007F11C0080E80E007B68B3F9E4
:105A20000A30002B0CD07B68B3F90C30194678682B
:105A300000F070F8F860FB68002B01D0FB6808E00C
:105A4000BB6A009307F11C030ECB7868FFF729FFB0
:105A5000034618461037BD46BDE8804004B0704785
:105A600080B586B002AFF860B9607A60FB685A68AA
:105A7000BB681B0113447A685A60FB685A68BB68AC
:105A80001B011344DA6800920ECBF868FFF7BDFFE4
:105A9000034618461037BD4680BD000080B586B06D
:105AA00000AF786000237B61194A07F10C0392E88C
:105AB000030083E803007B68002B02D16FF015031D
:105AC00021E07B681B6807F10C010822184601F0F1
:105AD000D5FB78617B69002B01D07B6913E07B6883
