:020000041000EA
:1000000000001020450900109D070010AD070010EA
:100010008509001087090010890900100000000000
:100020000000000000000000000000008B0900102C
:100030008D090010000000008F09001091090010C8
:100040009509001097090010990900109B090010EC
:100050009D0900109F090010A1090010A3090010BC
:10006000A5090010A7090010A9090010AB0900108C
:10007000AD090010AF090010B1090010B30900105C
:10008000B5090010B7090010B9090010BB0900102C
:10009000BD090010BF090010C1090010C3090010FC
:1000A000C5090010C709001023070010CB09001074
:1000B000CD090010CF090010D1090010D30900109C
:1000C000D5090010D7090010D9090010DB0900106C
:1000D000DD090010DF090010E1090010E30900103C
:1000E000E5090010E7090010E9090010EB0900100C
:1000F000ED090010EF090010F1090010F3090010DC
:10010000F5090010F7090010F9090010FB090010AB
:10011000FD090010FF09001019070010030A001064
:10012000050A0010070A0010090A00100B0A001047
:100130000D0A00100F0A0010110A0010130A001017
:10014000150A0010170A0010190A00101B0A0010E7
:100150001D0A00101F0A0010210A0010230A0010B7
:10016000250A0010270A0010290A00102B0A001087
:100170002D0A00102F0A0010310A0010330A001057
:10018000350A0010370A0010390A00103B0A001027
:100190003D0A00103F0A0010410A0010430A0010F7
:1001A000450A0010470A0010490A00104B0A0010C7
:1001B0004D0A00104F0A0010510A0010530A001097
:1001C000550A0010570A0010590A00105B0A001067
:1001D0005D0A00105F0A0010610A0010630A001037
:1001E000650A0010670A0010690A00106B0A001007
:1001F0006D0A00106F0A0010710A0010730A0010D7
:100200000348044B834202D0034B03B118477047A5
:10021000E0030020E0030020000000000548064B3A
:100220001B1AD90F01EBA301491002D0034B03B1F4
:1002300018477047E0030020E003002000000000A2
:1002400010B5064C237843B9FFF7DAFF044B13B11E
:100250000448AFF300800123237010BDE0030020A9
:100260000000000000AD001008B5054B1BB10549AA
:100270000548AFF30080BDE80840FFF7CFBF00BFDF
:1002800000000000E403002000AD001010B50022C3
:100290004FF4E131184801F047FB06F0ADF810B11A
:1002A0000024204610BD01F080F900F023FA80B947
:1002B00000F066F898B9114807F0F8F800F006F970
:1002C000044690B90E4807F0F1F80E4807F0EEF832
:1002D000E7E70D4807F0EAF84FF0FF34E1E70B4895
:1002E00007F0E4F84FF0FF34DBE7094807F0DEF8E9
:1002F0004FF0FF34D5E700BF00140840989200107B
:10030000D8920010F492001080920010B892001061
:100310000493001010B588B0079000240194029453
:10032000039404940594069403930492BDF8283032
:10033000ADF80430059101230293069007A901A8A6
:1003400006F026FB044610B9204608B010BD014651
:10035000014807F03BF8F7E72093001010B582B092
:10036000049C009401F01AFF044610B9204602B024
:1003700010BD0146014807F029F8F7E72093001067
:1003800070B59CB0474807F091F847F212130093FC
:100390004FF48063444A4FF4807141F20400FFF748
:1003A000B9FF0546414807F081F81BAB0BAA0021B5
:1003B00041F2040001F044FF1B993D4807F006F8A4
:1003C000002408E004F170036B4413F8441C39481E
:1003D00006F0FCFF01341B99A142F3D803AA0BA835
:1003E00005F0F6FF2021344806F0F0FF002408E075
:1003F00004F170036B4413F8641C2E4806F0E6FF0A
:1004000001341F2CF4D92D4C0DF10C0CBCE80F005D
:100410000FC49CE80F0084E80F00244807F046F85A
:10042000274807F043F84CF6AB53ADF80830254B9E
:1004300000930223042219464FF40050FFF78EFF69
:1004400004460A2006F0D4FF022302AA00214FF43A
:10045000005001F02FFF0443022302AA00214FF4B1
:10046000005001F0EDFE40EA04060221164806F0B5
:10047000ADFF002408E004F170036B4413F8681C1E
:100480000C4806F0A3FF0134012CF4D9074807F00B
:100490000DF816B915B1012600E0012630461CB052
:1004A00070BD00BFB894001009060006C09300108C
:1004B000009500101895001020950010FC030020F6
:1004C0003C95001088950010A0950010F0B5E3B0A1
:1004D000774806F0EBFF022361AA00214FF4005099
:1004E00001F0AEFE06460221724806F06FFF0024BE
:1004F00008E004F5C4736B4413F8041C6E4806F05E
:1005000065FF0134012CF4D96C4806F0CFFF48A8F0
:1005100002F070F8064348A802F048FE42AC4DAD28
:100520000FCD0FC495E8030084E8030031AB32AA75
:10053000002141F2040001F083FE40EA060729AAE7
:10054000319932A805F044FF20215D4806F03EFFB6
:10055000002408E004F5C4736B4413F8E41C564807
:1005600006F034FF01341F2CF4D90A2006F040FFB6
:10057000202229A9534807F083F858BB524806F0B7
:1005800095FF0022202111A802F032F9044640BB59
:1005900003AD11AE0FCE0FC596E80F0085E80F0032
:1005A0000BAD42AE0FCE0FC596E8030085E8030001
:1005B0004025019519AB0093382303AA41F20401A9
:1005C0000A2001F0B9FE07432946404806F0FEFE26
:1005D000002510E03E4806F069FF0124204663B084
:1005E000F0BD3C4806F062FFF8E719AB595D3248B0
:1005F00006F0ECFE01353F2DF7D90A2006F0F8FE93
:100600004021354806F0E2FE254608E005F5C473B2
:100610006B4413F8C01C284806F0D8FE01353F2D66
:10062000F4DD0A2006F0E4FE38212C4806F0CEFE68
:10063000254605E003AB595D1F4806F0C7FE0135AE
:10064000372DF7D90A2006F0D3FE40211F4806F0C7
:10065000BDFE05E019AB195D174806F0B7FE013481
:100660003F2CF7D90A2006F0C3FE1D4806F01EFFF6
:1006700019AB382203A932A806F07EFA044619AB5A
:10068000382203A932A806F077FA04B920B1154838
:1006900006F00CFF0124A1E71349144806F096FE6A
:1006A000134806F003FF0FB93C4697E7012495E78E
:1006B000C4950010A095001018950010C09300106C
:1006C000F0950010FC030020309600106896001092
:1006D0000C96001048960010809600109C96001012
:1006E000AC960010C496001097E899CCEC960010D8
:1006F0001497001008B506F0EBF9042002F012F888
:10070000032002F00FF808BD08B50346014806F0C3
:100710005DFEFEE73497001008B5042000F0D2FC1F
:1007200008BD08B5022000F0CDFC08BD08B50222C6
:100730004FF4E131024B186801F0F6F808BD00BF34
:100740000000002008B5124800F003FF002000F070
:100750007BFA012000F078FA022000F075FA4020C0
:1007600000F072FAFFF7E2FF002805DB00F0BAF8AC
:1007700018B900F099F828B908BD7A220549064849
:10078000FFF7C2FF7F2203490348FFF7BDFF00BF09
:1007900000A0024050970010A097001008B5024832
:1007A00006F084FEFEE700BFA897001008B50248D7
:1007B00006F07CFEFEE700BFB49700104FF0FF305C
:1007C00070474FF0FF3070474FF0FF3070474FF0E9
:1007D000FF3070472DE9F041D8B90C4690460546E8
:1007E000074602E001340137013545450EDA0C4E6B
:1007F000304601F0FBF8C1B22170304601F0FAF842
:1008000023780D2BEED10A23237001373846BDE83B
:10081000F08106F0A3FF092303604FF0FF37F5E7EF
:100820000020044070B50138012813D80C46164644
:10083000002505E014F8011B0A4801F0DBF801353A
:10084000B5420DDA23780A2BF4D10D21054801F0C9
:10085000D1F8EFE706F082FF092303604FF0FF367F
:10086000304670BD0020044010B504460A4B1B689A
:1008700083420AD9094B04EB440203EB820461680A
:1008800053F8220000F0F0FB10BD3922044905485E
:10089000FFF73AFFEEE700BFC8970010CC970010B3
:1008A000189800105498001038B50024254600E030
:1008B00001340A4B1B68A3420ED92046FFF7D4FF30
:1008C00004EB4400064B03EB800000F033FC0028EF
:1008D000EED06FF00705EBE7284638BDC89700104B
:1008E000CC97001070B50024264600E00134124B6E
:1008F0001D68A5420BD904EB4400104B03EB8000AC
:1009000000F018FC0028F1D06FF00706EEE70C4B62
:100910001B680BB100230AE0284606F0A1FB084B38
:100920001860F7E7064A12680021D15401339D424E
:10093000F8D8304670BD00BF089800100C98001021
:100940001C0400204B4885464B48804780B94B49E2
:100950004B4A4C4B9B1A03DD043BC858D050FBDC80
:1009600049494A4A00209142BCBF41F8040BFAE7CA
:10097000474880474748804747488047FFF7FEFF82
:10098000FEE7FEE7FEE7FEE7FEE7FEE7FEE7FEE73F
:10099000FEE7FEE7FEE7FEE7FEE7FEE7FEE7FEE72F
:1009A000FEE7FEE7FEE7FEE7FEE7FEE7FEE7FEE71F
:1009B000FEE7FEE7FEE7FEE7FEE7FEE7FEE7FEE70F
:1009C000FEE7FEE7FEE7FEE7FEE7FEE7FEE7FEE7FF
:1009D000FEE7FEE7FEE7FEE7FEE7FEE7FEE7FEE7EF
:1009E000FEE7FEE7FEE7FEE7FEE7FEE7FEE7FEE7DF
:1009F000FEE7FEE7FEE7FEE7FEE7FEE7FEE7FEE7CF
:100A0000FEE7FEE7FEE7FEE7FEE7FEE7FEE7FEE7BE
:100A1000FEE7FEE7FEE7FEE7FEE7FEE7FEE7FEE7AE
:100A2000FEE7FEE7FEE7FEE7FEE7FEE7FEE7FEE79E
:100A3000FEE7FEE7FEE7FEE7FEE7FEE7FEE7FEE78E
:100A4000FEE7FEE7FEE7FEE7FEE7FEE7FEE7FEE77E
:100A5000FEE7FEE7FEE7FEE7FEE7FEE7FEE7FEE76E
:100A6000FEE7FEE7FEE7FEE7FEE7FEE7FEE7FEE75E
:100A7000FEE7FEE700001020690B001084AD0010B7
:100A800000000020E0030020E0030020C42E00202E
:100A9000750B0010697700108D02001008B5034631
:100AA0000B4A126842B10A4A10680344094A934249
:100AB00006D8074A136008BD054A07491160F2E7E6
:100AC00006F04CFE0C2303604FF0FF30F3E700BF4D
:100AD0002004002000B00F20C82E00206FF010006E
:100AE00070476FF0100070474FF080439B6803F42D
:100AF0006063B3F5006F22D013D8B3F5806F20D0B8
:100B0000B3F5C06F02D14FF4FA5301E0DBB9114BDA
:100B10004FF080429268C2F38212D3400E4A1360B3
:100B20007047B3F5406F10D0B3F5606F01D10B4B38
:100B3000EEE7B3F5206F0BD14FF4E103E8E7084B84
:100B4000E6E7084BE4E7064BE2E74FF40043DFE754
:100B5000034BDDE700879303240400200080BB00E3
:100B6000000E27070048E80100207047704700206A
:100B70007047704730B583B000BF0023019302E097
:100B8000019B01330193019A1A4B9A42F8DD1A4CEA
:100B90001A4BA3604FF080430122C3F8002C40227F
:100BA000C3F80C240022C3F8002C154D284600F091
:100BB000CCFC284600F0CDFC284600F0C6FCD4F85A
:100BC000883043F47003C4F88830BFF34F8FBFF30D
:100BD0006F8F042000F0BCF8FFF786FFFFF7C9FF16
:100BE000FFF7C4FFFFF7C3FFFFF7ACFD62B603B02A
:100BF00030BD00BFFEFF030000ED00E0000000106C
:100C000000A002403F2808D94038C0B20D49CB6847
:100C1000012282401343CB6070471F2809D9203836
:100C2000C0B24FF080418B6C0122824013438B6431
:100C300070474FF080414B6A0122824013434B6260
:100C4000704700BF000008403F2809D94038C0B2B3
:100C50000E49CB680122824023EA0203CB60704731
:100C60001F280AD92038C0B24FF080418B6C012276
:100C7000824023EA02038B6470474FF080414B6A45
:100C80000122824023EA02034B62704700000840C1
:100C900010B5044600214FF47A7000F05BF94FF074
:100CA00080439B682342FAD0002010BD08B5072876
:100CB00049D8DFE800F01A482E29040F3D254FF0EF
:100CC0008042936843F4002393604FF00060FFF785
:100CD000DFFF08BD4FF08042936843F480139360B8
:100CE0004FF08050FFF7D4FFF3E74FF08042936856
:100CF00043F4802393604FF08060FFF7C9FFE8E77B
:100D0000124800F017FAE4E74FF00050FFF7C0FF79
:100D1000DFE74FF080435A6F42F011025A679A683A
:100D200042F480329A604FF08070FFF7B1FFD0E755
:100D30004FF08042936843F4003393604FF00070AB
:100D4000FFF7A6FFC5E76FF00200C2E71C9A00108C
:100D500038B54FF080439C6804F46064072800F2C3
:100D60008A80DFE800F021884F6204326B454FF043
:100D700080439B6813F4002F12D04FF08042936899
:100D800023F4606343F4006393604FF40050FFF773
:100D90007FFF0546002864D1FFF7A6FE284638BD30
:100DA0000420FFF783FFE8E74FF080439B6813F4CC
:100DB000802F06D04FF08042936823F460639360E5
:100DC000E3E70020FFF772FFF4E74FF080439B68F2
:100DD00013F4801F08D04FF08042936823F46063BF
:100DE00043F420639360D0E70520FFF75FFFF2E74D
:100DF0000720FFF75BFF4FF08042936843F4606386
:100E00009360C2E74FF080439B6813F4803F08D0A3
:100E10004FF08042936823F4606343F480639360EF
:100E2000B3E70220FFF742FFF2E74FF080429368FA
:100E300023F4606343F4C0639360A6E74FF08043FC
:100E40009B6813F4003F08D04FF08042936823F46E
:100E5000606343F44063936097E70620FFF726FF43
:100E6000F2E74FF08042936823F46063234393607A
:100E70006FF0090592E76FF002058FE73F280AD966
:100E80004038C0B201228240104B9A600F4B9B68E1
:100E90001A42FBD170471F280CD92038C0B201225A
:100EA00082404FF080435A644FF080435B6C1A429B
:100EB000FAD17047012282404FF080435A604FF0D0
:100EC00080435B681A42FAD1704700BF00000840B7
:100ED00038B54FF0E0239C691A6922F48032184932
:100EE0000A601B6913F0010F21D14FF0E0236FF06E
:100EF0007F445C619C6105221A614FF08075114B43
:100F00001968114A0023A0FB010108F041F8B0FB69
:100F1000F5F30E4A136005FB130084420CD81368E6
:100F200001331360201A2844094B186038BD4FF074
:100F3000E0235D690135E2E7241A054B1C60F5E703
:100F40002C0400202404002040420F000400002054
:100F50003004002008B50E4B19600E4B1B68002BA7
:100F600010DC08B9002008BDFFF7B2FF094B1B6871
:100F7000002B0ADD4FF0E022136943F002031361F6
:100F80000020F0E76FF00500EDE70020EBE700BF81
:100F9000280400200400002008B5094B1B682BB171
:100FA0006FF00F009847064B00221A60054B1A6835
:100FB0004FF0E0231A61044B4FF0FF321A6008BD76
:100FC000280400202C0400200400002008B5134B46
:100FD0001B68002B1EDC08B9002008BDFFF778FF56
:100FE0000E4B1B68002B0ADD4FF0E0231B6913F446
:100FF000803FF5D0094A1368013B1360F0E74FF0DA
:10100000E0239A69064B1B689A42F8D8FFF7C4FFA1
:101010000020E2E76FF00500DFE700BF04000020DA
:101020003004002010B5044610F0010F0CD114F06C
:10103000020F0DD114F0040F0ED114F0080F0FD1D0
:10104000204600F063FE10BD0020FFF7FDFDEEE737
:101050000120FFF7F9FDEDE70220FFF7F5FDECE7D2
:101060004020FFF7F1FDEBE708B5084B984202D0AE
:1010700000F0B4F908BD0648036A01F00102C90096
:1010800001F010010A4313430362F3E700C000407C
:10109000006C004008B5094B984202D000F0A0F95E
:1010A00008BD0748036A01F00102C90001F0100100
:1010B0000A4323EA02030362F2E700BF00C00040D4
:1010C000006C004008B500F041FE08BD08B5064BB5
:1010D000984202D000F086F908BD01F00301A3F5A3
:1010E000B0435962F8E700BF00C0004008B5064BA6
:1010F000984202D000F078F908BDA3F5B043586AD1
:1011000000F00300F8E700BF00C0004008B5044B42
:10111000984202D000F06AF908BD6FF01000FBE7BA
:1011200000C0004008B500F0C4F908BD08B500F0E3
:1011300059FE08BD70B504460568A54B9D4227D0F1
:1011400003F580539D4225D003F580539D4223D063
:1011500003F5EC2303F580639D421FD09D4B9D4218
:1011600040F02A8104260120B040FFF75BFFFFF723
:10117000DDFF012800F02381032E11DD237A012BEE
:101180003ED0022B1AD0002B52D06FF0100070BD51
:101190000026E8E70126E6E70226E4E70326E2E781
:1011A0006268A17A2846FFF7B1FF0028EFD1626894
:1011B000217A284600F039F9B0B1E8E78649086A93
:1011C00063685A0002F002021B0103F0200313437C
:1011D00003430B6288686268530003F00203C2F3A2
:1011E0004002134303438B60032E00F38780637A2E
:1011F000042B00F2E680DFE803F0344F703F60001C
:101200007549086A63685A0002F002021B0103F084
:101210002003134303430B6288686268530003F0A2
:101220000203C2F34002134320EA03038B60DBE7AF
:101230006949086A63685A0002F002021B0103F060
:101240002003134320EA03030B628868626853009B
:1012500003F00203C2F34002134320EA03038B604E
:10126000C2E72B6E626823EA02032B666B6E62682C
:1012700023EA02036B6655E02B6E626813432B660C
:101280006B6E626823EA02036B66D5F8B830626859
:101290001343C5F8B83045E02B6E626813432B66E4
:1012A0006B6E626823EA02036B66D5F8B830626839
:1012B00023EA0203C5F8B83034E02B6E626823EAF3
:1012C00002032B666B6E626813436B66D5F8B83009
:1012D00062681343C5F8B83024E02B6E626823EAD5
:1012E00002032B666B6E626813436B66D5F8B830E9
:1012F000626823EA0203C5F8B83013E0637A042B6E
:1013000062D8DFE803F00314341434003248016A71
:1013100063689A0002F004025B0103F04003134388
:101320000B430362237A002B40D100202FE72A4988
:101330000E6A63685A0002F00202180100F02000F1
:101340000243980000F004005B0103F040030343F4
:10135000134326EA03030B620A6A636803F0010081
:10136000DB0003F01003034313430B62DAE71A4E6A
:10137000306A63685A0002F00202190101F020018C
:101380000A43990001F004014FEA431C0CF0400CA1
:1013900041EA0C010A4303F00101DB0003F01003F2
:1013A0000B43134320EA03003062BBE76268E17A33
:1013B0002846FFF7B7FEEAE66FF00200E7E60020F6
:1013C000E5E66FF00200E2E66FF00200DFE600BF44
:1013D0000080004000C00040006C0040C1617047C8
:1013E0000162704781647047006C704770B50546B4
:1013F0000C461646FFF79AFE012814D024B1012CA2
:101400000AD06FF0020070BDD5F8C03023EA0603A1
:10141000C5F8C0300020F6E7D5F8C0303343C5F832
:10142000C0300020EFE70020EDE770B504460E461F
:101430001546FFF77BFE012836D0236B2B43236331
:101440006560052E32D8DFE806F0030B131A212859
:10145000656165602567E567C4F88850002024E071
:10146000256165602567E567C4F8885000201CE0A9
:10147000C4F88850E5672567A560002015E0C4F82A
:101480008850E567E566A56000200EE0C4F8885046
:10149000A5672567A560002007E0C4F88850A56708
:1014A000E566A560002000E0002070BD6FF002003E
:1014B000FBE770B504460D461646FFF737FE0128D8
:1014C00011D0032D34D8DFE805F002101C28D4F821
:1014D000B03023EA0603C4F8B030D4F8B43023EABD
:1014E0000603C4F8B430002070BDD4F8B0303343E4
:1014F000C4F8B030D4F8B43023EA0603C4F8B430EA
:10150000F1E7D4F8B03023EA0603C4F8B030D4F8D9
:10151000B4303343C4F8B430E5E7D4F8B0303343E3
:10152000C4F8B030D4F8B4303343C4F8B430DAE798
:10153000D4F8B03023EA0603C4F8B030D4F8B4309D
:1015400023EA0603C4F8B430CDE708B500F00AF882
:1015500008BD08B500F022F808BDD0F8000100F47D
:101560008030704710B50446D0F8003123F00103F5
:10157000C0F800310123C0F800372046FFF7EDFF27
:101580000028FAD0D4F8003143F00103C4F8003148
:101590002046FFF7E2FF0028FAD010BDD0F8003156
:1015A00023F00103C0F80031704708B52220FFF78F
:1015B0004BFB00F00FF8002008BD000008B5024802
:1015C00000F00AF808BD00BF00D0044008B500F0E4
:1015D00009F808BD00207047436813F0010FFBD0E5
:1015E00080687047E8B170B582B00D4606460024A9
:1015F00004E0FFF7E3FF019030510434E31CAB42F9
:10160000F7D315F0030502D1002002B070BDFFF73B
:10161000D5FF01902A4601A9301906F0CCF8002028
:10162000F3E74FF0FF30704708B5174B984210D0E2
:10163000164B984215D0164B98421AD0154B98422B
:101640001FD14420FFF71AFC4420FFF7DBFA0020EB
:1016500008BD0B20FFF712FC0920FFF7D3FA00208A
:10166000F6E70C20FFF70AFC0A20FFF7CBFA002070
:10167000EEE71C20FFF702FC2120FFF7C3FA002051
:10168000E6E76FF00200E3E700200440003004408A
:101690000040044000140840234B98421ED003F53C
:1016A000805398421AD003F58053984216D003F520
:1016B000753398422ED1036803F44033B3F5803F6D
:1016C00009D0036813F4403F27D14FF4E1030069C8
:1016D000B3FBF0F070474FF48033F8E7036803F48E
:1016E0004033B3F5803F13D0036813F4403F0BD071
:1016F000036803F44033B3F5003F11D14FF4E10325
:101700000069B3FBF0F07047084B1B685B08F7E714
:10171000074BF5E76FF0020070476FF0020070476B
:101720006FF00200704700BF002004402404002036
:101730000048E80110B50446334B98420BD003F53E
:101740008053984207D003F58053984203D003F5A5
:10175000753398424FD105236361032A4ED8DFE8E1
:1017600002F0021D232C294B1A685208B2FBF1F338
:1017700001FB132213B1B2EB510F00D901332361E6
:101780002046FFF789FF002807DD236843F4004364
:101790002360236813F4002FFBD010BD1C4AB2FB5A
:1017A000F1F301FB1322E5E74FF4E103B3FBF1F39F
:1017B00001FB03F2C2F5E102DCE7164B9C4220D1AB
:1017C000236843F400132360B1F5165F0DD04FF486
:1017D0008033B3FBF1F301FB03F2C2F58032B1F5C4
:1017E000166F05D900206061C4E707230022F6E7E1
:1017F00001206061BEE76FF00200CEE76FF00200EB
:10180000CBE76FF00200C8E700200440240400206A
:101810000048E8010014084008B500F06BF908BD65
:1018200008B500F077F908BD08B500F085F908BDE6
:1018300038B504460D46254B98420BD003F580532E
:10184000984207D003F58053984203D003F57533CF
:10185000984234D11D4B9C4212D003F580539C42D8
:101860000ED003F580539C420AD003F575339C4299
:1018700028D1022D19D0032D1CD06FF002000FE0EB
:10188000012D05D0022D0CD035B16FF0020007E01C
:101890000220FFF70BFA18B92946204600F094F908
:1018A00038BD0520FFF702FAF5E70520FFF7FEF93E
:1018B0000025F0E70620FFF7F9F90125EBE76FF0C7
:1018C0000200EDE76FF00200EAE700BF00200440ED
:1018D00010B5044600F0C4F9124B9C4212D003F537
:1018E00080539C420ED003F580539C420AD003F5EE
:1018F00075339C4201D0FD200AE050B101280AD185
:10190000032005E0012808D0022808D000B1F92002
:1019100010BD0220FCE7F920FAE70120F8E70220D9
:10192000F6E700BF0020044070B504460E46154699
:1019300000F09AF9C8B1214B9C421DD0204B9C422B
:1019400021D0204B9C4225D01F4B9C4233D11F48B5
:10195000FFF7F0FB4420FFF777F929462046FFF711
:1019600067FF0346E8B1184670BD2046FFF75CFEEE
:1019700003460028DFD0F6E71548FFF7DBFB092018
:10198000FFF762F9E9E71348FFF7D4FB0A20FFF7F6
:101990005BF9E2E71048FFF7CDFB2120FFF754F990
:1019A000DBE72046FFF794FF02463146204600F071
:1019B00031F80346D7E76FF00203D4E70020044074
:1019C000003004400040044000140840EC9900102E
:1019D000109A0010049A0010F899001008B500F051
:1019E00063F908BD08B500F068F908BD08B500F056
:1019F000FFF908BD08B500F006FA08BD08B500F00B
:101A000066F908BD08B500F066F908BD08B500F034
:101A100068F908BDF8B504460F461646314B9842A2
:101A200010D003F5805398420CD003F580539842B0
:101A300008D003F57533984204D086222A492B48F2
:101A4000FEF762FE01212046FFF7E0FF054608B1E0
:101A50002846F8BD08212046FFF7DEFE054600288F
:101A6000F6D100212046FFF7DFFE05460028EFD122
:101A700000212046FFF7D4FE05460028E8D1324673
:101A800039462046FFF756FE002828DB154B9C42BE
:101A900010D003F580539C421DD003F580539C4227
:101AA0001BD003F575339C4202D04FF0FF3202E0A9
:101AB000032200E000220E4902EB4203DC0001EBAE
:101AC000C3034FF0FF30D860986000200851586081
:101AD00018745861BCE70122EDE70222EBE70546E6
:101AE000B6E700BF0020044064980010B0980010D2
:101AF000080000204B1F032B09D89902036823F428
:101B0000406301F440610B430360002070476FF0B5
:101B10000200704721B1012908D06FF00200704720
:101B2000036823F48053036000207047036843F484
:101B30008053036000207047042942D8DFE801F099
:101B4000030917253300036823F010030360002006
:101B50007047036843F010030360036823F0200319
:101B60000360036823F040030360002070470368AC
:101B700043F010030360036823F02003036003684D
:101B800043F04003036000207047036843F01003F4
:101B90000360036843F020030360036823F04003FD
:101BA000036000207047036843F01003036003687C
:101BB00043F020030360036843F040030360002008
:101BC00070476FF00200704738B504460D46032990
:101BD00011D81F4B9C4217D003F580539C4232D042
:101BE00003F580539C4230D003F575339C4209D0F5
:101BF0004FF0FF3209E040F2331216491648FEF763
:101C000083FDE6E7032200E00022144B9B5CC3B98E
:101C1000226812F4004203D0236823F400432360B7
:101C2000236823F440332D0405F440352B4323600F
:101C30003AB1236843F400432360236813F4002F70
:101C4000FBD0002038BD0122DFE70222DDE700BF24
:101C50000020044064980010E09800103404002034
:101C60000068C0F3014070470D4B984210D003F557
:101C70008053984210D003F5805398420ED003F55C
:101C80007533984202D04FF0FF3202E0032200E0A9
:101C90000022044B985C70470122FAE70222F8E721
:101CA0000020044034040020436813F0100F01D1D9
:101CB000006A70476FF00C007047436813F0800FA4
:101CC00002D10162002070476FF00B00704740683E
:101CD000C0F3032070474068C0F30330C0F1080030
:101CE00070474B1E072B08D8036823F00F0301F041
:101CF0000F010B430360002070476FF00200704734
:101D0000BFF35F8F00230360704700000D4B1B780B
:101D10008BB10020704703EB4C110B4A002042F8B6
:101D2000210001331F2BF6DD0CF1010CBCF1040F77
:101D300004DC0023F6E74FF0000CF7E7014B01222B
:101D40001A70E6E739040020BC06002070B506468C
:101D5000042807D8A6B1731E032B09D8DFE803F0C7
:101D60001B0A0C0E4E2216491648FEF7CDFCF1E771
:101D7000002506E0144D04E0144D02E0144D00E08F
:101D8000144D2846FFF7B2F9044601462846FFF7EE
:101D90009DF9002503E0104DF3E70135640874B1A7
:101DA00014F0010FF9D005EB46130C4A52F823202A
:101DB000002AF2D00A4951F823009047EDE770BDA0
:101DC000289A0010789A001000A0004000040840F3
:101DD00000C000400080004000900040BC06002091
:101DE0003C040020014B1878704700BF38040020E5
:101DF00010B504462046FFF701FE0028FAD0204621
:101E0000FFF7ECFD10BD38B504460D462046FFF740
:101E1000F9FD0028FAD029462046FFF7E3FD38BD3A
:101E20002DE9F84F80460F46DFF8E492F94400258B
:101E30000560456005722E46AA462C460AE04AF027
:101E4000020AB44B59F803301B68002B4CD1002E0A
:101E500040F09A803B5D002B00F04B81022D00F397
:101E60005481002EF3D101343D2B72D07DD3782BD9
:101E70007BD8612B79D3613B172B76D802A252F81D
:101E800023301A44104700BFB7FFFFFFE3000000F4
:101E9000E3000000E300000099000000E300000000
:101EA000E300000069000000E3000000E300000020
:101EB000E3000000E3000000E3000000E300000096
:101EC000E3000000E3000000E3000000E300000086
:101ED00081000000E3000000E3000000E3000000D8
:101EE000E3000000B1000000612005F081FAAEE7D8
:101EF0004AF0080A874B59F803301B68002BA6D01C
:101F0000682005F075FAA2E74AF0040A814B59F8F7
:101F100003301B68002B9AD0732005F069FA96E70E
:101F20004AF0010A7B4B59F803301B68002B8ED016
:101F3000652005F05DFA8AE74AF00F0A754B59F8FB
:101F400003301B68002B82D07348784405F03EFABA
:101F50007DE7704B59F803301B680BB9012676E713
:101F60003D2005F045FA012671E76A4B59F8033028
:101F70001B681BB96FF00110BDE8F88F3946674840
:101F8000784405F023FAF5E704F1010B3B5D782B6B
:101F900000F2A180642B10D3643B142B00F29B80D1
:101FA000DFE803F0439999589999999999999999E2
:101FB00099991B999999992F6D002C2B74D03A2BD4
:101FC00040F089800135534B59F803301B68002BD2
:101FD0007AD15C460026B2463CE705EB450218F88C
:101FE000023043EA0A0308F802304A4B59F803303A
:101FF0001B680BB95C462DE7722005F0F9F95C46C9
:1020000028E705EB450218F8023043EA0A1308F8FE
:102010000230404B59F803301B680BB95C4619E796
:10202000772005F0E5F95C4614E705EB450301333D
:1020300018F8032042EA0A0208F80320354B59F841
:1020400003301B680BB95C4604E7642005F0D0F947
:102050005C46FFE605EB4503013318F8032042EA2E
:102060000A1208F803202B4B59F803301B680BB9F0
:102070005C46EFE6672005F0BBF95C46EAE605EB57
:102080004503023318F8032042EA0A0208F8032045
:10209000204B59F803301B680BB95C46DAE6782010
:1020A00005F0A6F95C46D5E61A4B59F803301B68D3
:1020B0001BB95C460026B246CCE62C2005F098F908
:1020C0005C460026B246C5E63A2005F091F95C462A
:1020D0000026B246BEE60F4B59F803301B6813B911
:1020E0006FF0011048E739460D48784405F06EF965
:1020F000F6E7084B59F80330186800283FF43CAF66
:102100000A2005F075F9002036E76FF0011033E77B
:10211000D0E1FF0F940300004A7B0000207B000009
:10212000B67900001368C854136801331360704710
:102130007AB110B41C6811F801CB00F804C01C6817
:1021400001341C60013A92B2002AF3D15DF8044BCD
:102150007047704710B50C4C7C440C4BE3581B681F
:1021600033B90A4BE3581B683BB901F089F810BD3D
:102170000748784405F09AF9F3E706497944064898
:10218000784405F023F9F0E7A4DEFF0F9403000084
:102190004E790000747900008C7900002DE9F0413F
:1021A00086B0144698460C9E214A7A44214BD35857
:1021B0001B78012B34D005460F461F4BD3581B68A4
:1021C00033BB00F0DBFB31466846FFF729FE48BB16
:1021D000284600F07BFB204600F094FB404600F0D0
:1021E00091FB0921684600F0A3FBB8B200F06EFB3A
:1021F000002000F041FB00230493039303A9102067
:1022000000F04EFE08B9BDF8140006B0BDE8F0813C
:102210003346224601460948784405F0D7F8D0E70E
:102220000248F2E76FF00110EFE700BF0090FAFFFD
:1022300052DEFF0FBC030000940300000879000089
:10224000F0B585B016461C46164B7B44164A9A5884
:102250001278012A21D005460F46144A9B581B6864
:10226000ABB900F08BFB284600F030FB384600F09D
:102270002DFB208800F02AFB0296019401A9122070
:1022800000F00EFE08B9BDF80C0005B0F0BD014627
:102290000748784405F09AF8E3E70148F5E700BFFE
:1022A0000090FAFFB2DDFF0FBC03000094030000B2
:1022B000C6780000F0B585B016461C461A4B7B4424
:1022C0001A4A9A581278012A29D005460F46002248
:1022D0000092174A9B581B68DBB900F04FFB284659
:1022E00000F0F4FA384600F0F1FA204600F0EEFA79
:1022F0002146304600F01CFB002302936B460193FD
:1023000001A9132000F0CCFD08B9BDF80C0005B000
:10231000F0BD01460748784405F058F8DDE701486C
:10232000F5E700BF0090FAFF3EDDFF0FBC030000A1
:10233000940300005A780000F0B585B014461D469D
:102340001F4B7B441F4A9A581278012A34D0074603
:102350000E461D4A9B581B682BBB00F00FFB02204A
:1023600000F0D0FA384600F0CDFA304600F0AEFA70
:10237000002000F0ABFADCB1284600F0A7FA2946AD
:10238000204600F0D5FA002000F0A0FA0A9B029344
:102390000B9B019301A9C82000F082FD08B9BDF88C
:1023A0000C0005B0F0BD0948784405F00FF8D4E7FB
:1023B000002000F08BFAE6E70048F2E70090FAFF11
:1023C000BADCFF0FBC03000094030000E4770000B8
:1023D0002DE9F04182B00446884610461E460E9F05
:1023E0000023019301AD2A462146FFF79BFE2A46B2
:1023F00021463046FFF796FE2A462146BDF82000CA
:1024000000F030FA2A462146099B98B200F02AFAD9
:102410002A4621469DF82800FFF784FE2A462146D9
:102420009DF82C00FFF77EFE2A4621469DF83000DD
:10243000FFF778FE2A4621469DF83400FFF772FE2A
:102440006FB12B46BDF83C2039462046FFF770FEA1
:10245000019BC8F80030002002B0BDE8F081099B64
:10246000002BF5D00048F7E7F0FFFEFF30B589B04C
:102470000D9C0794129D06959DF8445005959DF876
:10248000405004959DF83C5003959DF838500295B6
:1024900001940C9C0094FFF79BFF09B030BD000035
:1024A0002DE9F04385B016461D46DDF834909DF8C1
:1024B0003C80294B7B44294A9A581278012A47D0FC
:1024C00004460F4600220092254A9B581B689BBB7E
:1024D00000F054FAB8F1200F34D0012000F012FAC5
:1024E000384600F00FFA304600F0F0F9204600F0D0
:1024F000EDF9BDF83040204600F0E8F921462846C5
:1025000000F016FABDF83840204600F0DFF9B9F1C6
:10251000000F03D02146484600F00AFA0023029338
:102520006B46019301A9404600F0BAFC08B9BDF81A
:102530000C0005B0BDE8F08301460A48784404F079
:1025400045FFC5E7042000F0DDF94FF0CA08C7E7F2
:102550000048EEE70090FAFF48DBFF0FBC030000E5
:10256000940300006C760000F0B585B005460F4678
:1025700016461C461C4B7B44002200921B4A9B586B
:102580001B685BBB00F0FAF9012000F0BBF938468C
:1025900000F0B8F9284600F099F9002000F0B2F9EF
:1025A000002000F0AFF9002000F090F9002000F0CA
:1025B0008DF9A4B2204600F089F92146304600F09A
:1025C000B7F9002302936B46019301A9C22000F0E2
:1025D00067FC08B9BDF80C0005B0F0BD0146044821
:1025E000784404F0F3FECDE786DAFF0F9403000091
:1025F000F4750000474B7B44474A9A581278012AE9
:1026000000F0838030B59FB004466122019202AA97
:102610001C9201AA1B92414A9B581B68002B6FD148
:1026200000F0ACF91BA9F22000F03AFC002865D1BB
:102630000DF1080CBCE80F0020606160A260E3604F
:102640000DF11C0CBCE80F006061A161E261236226
:10265000BCE803006062A1629DF8183023749DF805
:10266000193063749DF81A30A3749DF81B30E3741D
:102670009DF838309DF8372003EB02239DF8362073
:1026800003EB02439DF8352003EB0263C4F82D30C1
:102690009DF83C309DF83B2003EB02239DF83A2047
:1026A00003EB02439DF8392003EB0263C4F8313099
:1026B0009DF8343084F82C300DF13D0304F13502DF
:1026C0000DF15D05D3F800E0D3F804C09868D9682F
:1026D000C2F800E0C2F804C09060D160103310323C
:1026E000AB42EFD11B681360DDF86120DDF8653087
:1026F000C4F85920C4F85D30BDF874001FB030BD77
:102700000748784404F0D2FE8AE70148704700BFCA
:102710000090FAFF06DAFF0FBC03000094030000EC
:10272000FA740000154B7B44154A9A581278012A16
:1027300020D010B584B0044600220092114A9B5864
:102740001B688BB900F01AF9204600F0DBF8002373
:1027500002936B46019301A9F32000F0A1FB08B995
:10276000BDF80C0004B010BD01460748784404F0E1
:102770002DFEE7E7004870470090FAFFD6D8FF0F1C
:10278000BC03000094030000A474000010B586B0E0
:102790000191134B7B44134A9A581278012A1BD09B
:1027A0000446114A9B581B688BB900F0E7F8BDF846
:1027B000040000F08BF8049401AB039303A9C72035
:1027C00000F06EFB08B9BDF8140006B010BD074854
:1027D000784404F06BFEE8E70048F6E70090FAFF63
:1027E00068D8FF0FBC030000940300006874000069
:1027F00070B586B00191174D7D44174BEB581B788F
:10280000012B23D00646144600F0B8F8134BEB58C2
:102810001B6883B9ACB9BDF8040000F057F8049602
:1028200001AB039303A9C92000F03AFB08B9BDF836
:10283000140006B070BD21460948784404F0C6FD76
:10284000E8E7013CE0B200F05DF8E4E70048F0E7BB
:102850000090FAFF04D8FF0FBC03000094030000AF
:10286000127400001368C85413680133000AC85476
:102870001368023313607047114B7B441B68191DAA
:1028800040F6FC0291421AD800B54FEA106C0D4A8E
:102890007A440A3202F803C04FEA104E03F1010CE9
:1028A00002F80CE04FEA102E03F1020C02F80CE0E3
:1028B0000333D054044B7B4419605DF804FB70472C
:1028C000BEF2FF0FACF2FF0F82F2FF0F0A4B7B4408
:1028D0001B68991C40F6FC0291420BD8074A7A44C7
:1028E0000A324FEA102C02F803C00133D054044BD3
:1028F0007B441960704700BF6AF2FF0F5EF2FF0F62
:1029000048F2FF0F074B7B441B685A1C40F6FC0142
:102910008A4206D8044979440A60044A7A440A3251
:10292000D054704732F2FF0F22F2FF0F20F2FF0F58
:102930000F4B7B441B680B4440F6FC02934214D8B7
:10294000A1B110B40B4B7B441A68541C1C6010F8E6
:1029500001CB094B7B440A3303F802C0013989B229
:102960000029EFD15DF8044B70477047704700BFF6
:1029700006F2FF0FF2F1FF0FE8F1FF0F024B7B446D
:1029800000221A60704700BFBAF1FF0F0B23002B23
:1029900007DBC25C0132D2B2C25412B9013B1BB296
:1029A000F5E770470A4B7B440A4A9A5812788242EC
:1029B00000D0704700B583B0074A9B58019362224C
:1029C0000021184604F06CFE03B05DF804FB00BF64
:1029D00056D6FF0FC4030000C80300002DE9F047DE
:1029E000ADF5587D04460F4690469946314D7D44DD
:1029F000314BEE58336CCF930DF5507C30687168D5
:102A0000B268F368ACE80F0030697169B269F369C4
:102A1000ACE80F00294BEB58059324230393CFAB6D
:102A200002930023019300932023F21808EB030183
:102A3000059803F0B8FA20B9824643464FF0000CDF
:102A400009E01F48784404F031FD47F6FE7A11E0B2
:102A50000CF1010C013B5BB1002CF9D014F80C20F7
:102A60001649695811F80C104A4007F80C20EFE796
:102A7000E09B23B950460DF5587DBDE8F0870F4B1C
:102A8000E9582022414407AC204603F09AFA424616
:102A90003946204603F0F4FA074BE958082244313E
:102AA000204603F0EDFAE09A4946204603F0ECFA9E
:102AB000E0E700BF0ED6FF0FC8030000B40300001C
:102AC0002C7200002DE9F04387B004460D466E4E8F
:102AD0007E440B689FB26D4AB25892F861104A1E4C
:102AE000D2B2012A47D9052902D0152940F0A48085
:102AF000664AB1580A6C01320A6420681FFA83F9E9
:102B00000823009300EB09034A460146FFF766FFDE
:102B10008046002842D1226802EB09005B4BF35843
:102B200052F80910426859649A640837BFB27B1D95
:102B30002B6023685A1F2260AA2203F8052C226802
:102B4000EC2353702268937023683A0ADA70236882
:102B50001F712968206800F0F3FB22682B68D054AD
:102B600022682B680133000AD0542B6802332B6093
:102B70004FF000081CE013F00F021DD13F0923683D
:102B8000424AB058029701930093012300F11002CA
:102B90001021303001F00FF98046B8B13B4BF258AC
:102BA000136C013B13643A4BF3581878FFF7FAFEA5
:102BB000404607B0BDE8F0830068C2F11002002172
:102BC000184404F06DFD3B095F1CD8E722687B1EAA
:102BD000190102EB03132D48305852F801C059680F
:102BE0009A68DB68C0F810C041618261C36100F17E
:102BF00020020197009223681021403001F02EF945
:102C000080460028CAD122684FEA071C02EB071948
:102C10001E4BF3581E6A586A996ADB6A42F80C60C8
:102C2000C9F80400C9F80810C9F80C307B1C1B0156
:102C30009FB205332B607CE79BB2144AB058154A0B
:102C40007A4499180591049200220392029201930A
:102C5000236800930C2300F110022021084401F0A6
:102C600061FB8046002899D11037BFB27B1D2B60D5
:102C70003A4609497944206804F09DFD034BF05819
:102C80001030FFF783FE54E72CD5FF0FC803000078
:102C9000C4030000FCE5FF0FC8E5FF0F2DE9F0417C
:102CA0008EB00646784D7D4400684278837803EB09
:102CB00002239BB2C278047904EB0224A4B2611D02
:102CC000425C0719BF7902EB072297B24EF6EC423D
:102CD000934240F0CD8000F033FB874240F0CB8040
:102CE0006A4BEB5893F86120531EDBB2012B28D9B5
:102CF000052A02D0152A40F08280644BEA58136CF2
:102D0000013313643168A4F108080823009308AB69
:102D1000424605310020FFF761FE0746002840F0DB
:102D200088803768033C0822391908A804F0A8FCF9
:102D300000284FD05648784404F0B8FB4DF6FE7793
:102D400077E014F00F0F40F098803368A4F10B087F
:102D500098442409013C4D4AA85800F120020194EE
:102D6000009205331021403001F078F80746002822
:102D70005FD1464BE85810224146203004F080FCD9
:102D800010B16FF4403754E00AAF58F8100C58F8FF
:102D90000C1C58F8082C58F8043C0FC7336805334E
:102DA0003A4AAA580294019300930023102102F199
:102DB000300001F000F8074600283AD1334BED58B7
:102DC0000AAC0FCC28606960AA60EB6033680533F9
:102DD000336038E0781D0023009342460146FFF738
:102DE000FDFD074628BB32681019284BEB581159D6
:102DF000426859649A6433680533336023E033686A
:102E0000591DA4F110080B3C2344204AAA5821481C
:102E1000784405900493002303930293CDF8048033
:102E200000910C23202102F1400001F0B6FA074680
:102E300068B1164BEA58136C013B1364164BEB5800
:102E40001878FFF7AFFD38460EB0BDE8F081306866
:102E5000424612497944053004F0ADFC0B4BEB5867
:102E600007931846FFF792FD336805333360EAE7AE
:102E70006FF40337E7E7024FE5E7024FE3E700BFF0
:102E8000FCF3FDFFFBF3FDFF56D3FF0FC80300006B
:102E9000666F00002CE4FF0FC4030000E8E3FF0F9F
:102EA0002DE9F04184B002460C46634D7D44002379
:102EB0000293624B7B441B6801930B68002B00F06C
:102EC00082806368002B00F081805D4B7B44581D3D
:102ED0000390AA21597100234370827001990B0A53
:102EE000C37001710531019100F02AFA039A019B28
:102EF000D054019B0133000A039AD054019A023244
:102F0000019203994F48784400F0C4F84E4BEB58B7
:102F100093F86030012B61D00199039800F0B4F967
:102F200000284DDB23681F6800221A6005210398E2
:102F300000F0AEF9002843DB05286DD10398C37873
:102F4000067906EB032640F6FC039E4266D806F19E
:102F500002084146053000F09FF9002830DB80452B
:102F60005ED1394BEB5893F86030012B43D0F21D02
:102F700003993648784400F08DF8751D294603986A
:102F800000F0DEF903994A5DC3B29A424AD18B1927
:102F90009B79C0F30720834246D1BE4200D8374612
:102FA0003A460531606804F006FC039B5A789B782A
:102FB00003EB02239BB25B42238123681F60002046
:102FC00004B0BDE8F08102AB0B607AE723681B68B0
:102FD000002B3FF47AAF6FF00110F1E701A903A8CD
:102FE000FFF770FD0028EBD1019A03991848784447
:102FF00000F050F890E7F21D03991648784400F06D
:1030000049F803A8FFF74AFE0028D9D1039BDA78D4
:103010001E7906EB0226AAE70448D1E70448CFE769
:103020000248CDE70348CBE70248C9E7FDF3FDFFBF
:10303000FEF3FDFFFCF3FDFF50D1FF0F84ECFF0F0B
:1030400070ECFF0FCA6D0000C80300004C6D00005B
:10305000F26C0000F86C00000EB430B582B001468E
:1030600005AC54F8045B0948784404F0AFF90194C6
:103070002146284604F066FA0548784404F0A6F98B
:1030800002B0BDE8304003B0704700BFA06C000044
:10309000926C0000F8B50E461546374B7B44374A14
:1030A0009B581B68012B02D0022B13D0F8BD0146A0
:1030B0003348784404F08AF9002405E0315D314852
:1030C000784404F083F90134AC42F7D30A2004F0C9
:1030D0008FF9EBE701462C48784404F077F9062D88
:1030E00001D8002441E0294C7C443278214628480C
:1030F0007844FFF7B1FF274F7F4472782146384666
:10310000FFF7AAFFB27821463846FFF7A5FF224F06
:103110007F44F27821463846FFF79EFF32792146F8
:103120003846FFF799FF052405E0315D1B487844D8
:1031300004F04CF90134AB1EA342F6D8184F7F447B
:10314000184C7C44F25C39462046FFF785FF2E443C
:1031500016F8012C39462046FFF77EFF07E0315D67
:103160001148784404F032F90134AC42F7D30A2014
:1031700004F03EF99AE700BF60CFFF0FD0030000D4
:10318000566C000054640000306C00002C64000099
:10319000246C00002C6C0000206C0000E663000032
:1031A000D6630000FA6B0000B263000030B589B04E
:1031B000054601ACDFF8A0C0FC44BCE80F000FC41A
:1031C0009CE8070084E8070029462448784404F076
:1031D000FDF82348784404F0F9F8002406E02B19A0
:1031E000197D2048784404F0F1F80134172CF6D901
:1031F0000A2004F0FDF8AB7C6A7C297C1A487844EC
:1032000004F0E4F8E97C1948784404F0DFF895F814
:103210002C2008AB03EB820353F81C1C14487844A1
:1032200004F0D4F8D5F83120D5F82D1011487844A1
:1032300004F0CCF8B5F85F2045F2AA539A4205D0C5
:103240000D48784404F032F909B030BD0B48784499
:1032500004F02CF9F8E700BFACCEFF0F7C6B000048
:10326000886B0000886B0000766B0000846B0000A8
:10327000826B00008A6B0000B66B0000926B00004E
:1032800008B503F0DDFC08BD08B503F047FD08BD37
:1032900008B503F068FD08BD08B503F052FD08BD90
:1032A00010B54FF0000C21B3DFF888E0FE44BEF803
:1032B0000030DC0B5B009BB2AEF80030027842FAC3
:1032C0000CF202F001021343AEF800300CF1010CD5
:1032D000BCF1070F03DD013001394FF0000C002C69
:1032E000E1D083F4004383F00503134A7A4413804A
:1032F000D9E7124B7B441B88002200E001320F2AE1
:1033000009DCD90B5B009BB20029F7D083F40043A2
:1033100083F00503F2E7002001214FF4004201E0B1
:103320005210490022B11342FAD0084380B2F7E7A5
:1033300010BD00BFEEF1FF0FAEF1FF0FA6F1FF0FC2
:1033400008B5034B7B4400221A80FFF7A9FF08BD94
:1033500056F1FF0F014658B1037803F00F0003F058
:10336000F003044A7A4413441B5C0B70002070473E
:1033700002207047E4710000014658B1037803F061
:103380000F0003F0F003044A7A4413441B5C0B70F3
:103390000020704702207047C0700000002841D014
:1033A00000B585B0844603788DF8003043798DF8F8
:1033B0000130837A8DF80230C37B8DF803300379B6
:1033C0008DF80430437A8DF80530837B8DF8063014
:1033D000C3788DF80730037A8DF80830437B8DF879
:1033E000093083788DF80A30C3798DF80B30037B70
:1033F0008DF80C3043788DF80D3083798DF80E30D0
:10340000C37A8DF80F30EE46BEE80F00CCF800000E
:10341000CCF80410CCF80820CCF80C30002005B013
:103420005DF804FB02207047002841D000B585B04C
:10343000844603788DF80030437B8DF80130837A21
:103440008DF80230C3798DF8033003798DF804309C
:1034500043788DF80530837B8DF80630C37A8DF87C
:103460000730037A8DF8083043798DF80930837876
:103470008DF80A30C37B8DF80B30037B8DF80C3050
:10348000437A8DF80D3083798DF80E30C3788DF83E
:103490000F30EE46BEE80F00CCF80000CCF8041068
:1034A000CCF80820CCF80C30002005B05DF804FB07
:1034B0000220704700F00F03020902390C292BD8B3
:1034C000DFE801F0070D2A2A2A2A2A132A192A1FBF
:1034D00025001249794401EB0212D05C7047104973
:1034E000794401EB0212D05C70470E49794401EB3C
:1034F0000212D05C70470C49794401EB0212D05C97
:1035000070470A49794401EB0212D05C70470849C0
:10351000794401EB0212D05C704700BF746E00006A
:10352000686D00005C6C0000506B0000446A000095
:103530003869000000284BD02DE9F04383B00646DF
:1035400090F8009002214846FFF7B4FF054696F830
:10355000018003214046FFF7ADFFB478F77845407E
:1035600065407D408DF8045002214046FFF7A2FFE0
:1035700089EA0005EDB203212046FFF79BFF454095
:103580007D408DF8055089EA080502212046FFF7A5
:1035900091FF4540EDB203213846FFF78BFF4540D0
:1035A0008DF8065003214846FFF784FF88EA00089B
:1035B00084EA0804E4B202213846FFF77BFF444066
:1035C0008DF80740019B3360002003B0BDE8F08315
:1035D0000220704700286FD02DE9F04383B00546E4
:1035E00090F800900E214846FFF764FF044695F8D6
:1035F00001800B214046FFF75DFF4440E4B2AF7805
:103600000D213846FFF756FF4440E4B2EE78092119
:103610003046FFF74FFF44408DF8044009214846EB
:10362000FFF748FF04460E214046FFF743FF4440A2
:10363000E4B20B213846FFF73DFF4440E4B20D21D0
:103640003046FFF737FF44408DF805400D214846CE
:10365000FFF730FF044609214046FFF72BFF4440A7
:10366000E4B20E213846FFF725FF4440E4B20B21B7
:103670003046FFF71FFF44408DF806400B214846B7
:10368000FFF718FF04460D214046FFF713FF4440A3
:10369000E4B209213846FFF70DFF4440E4B20E21A1
:1036A0003046FFF707FF44408DF80740019B2B6031
:1036B000002003B0BDE8F08302207047002863D0EB
:1036C0002DE9F0410C461646074600295ED0102A27
:1036D0005ED10368002B5DD0002306E0E25C396810
:1036E000C968C95C4A40E2540133B342F6D34FF093
:1036F000010825E06019FFF72DFE0135B542F9D329
:103700002046FFF74BFE2046FFF714FF201DFFF772
:1037100011FF04F10800FFF70DFF04F10C00FFF7A3
:1037200009FF002308E0E15C3A68D06803EB081267
:10373000825C5140E1540133B342F4D308F10108F3
:103740003B681B69013B434501D90025D6E70025AD
:1037500003E06019FFF7FEFD0135B542F9D32046BD
:10376000FFF71CFE00230AE0E15C3A68D0681269AA
:10377000013A03EB0212825C4A40E2540133B34245
:10378000F2D30020BDE8F081022070470320F9E762
:103790000420F7E70920F5E7002862D02DE9F04181
:1037A0000C461646804600295DD0102A5DD103687C
:1037B000002B5CD000230BE0E15CD8F80020D0683F
:1037C0001269013A03EB0212825C4A40E25401336F
:1037D000B342F1D3D8F800301F69023F22E06019EC
:1037E000FFF7CAFD0135B542F9D3002309E0E15CDA
:1037F000D8F80020D06803EB0712825C5140E154F6
:103800000133B342F3D32046FFF7E4FE201DFFF758
:10381000E1FE04F10800FFF7DDFE04F10C00FFF704
:10382000D9FE013F27B12046FFF7FEFD0025DAE76C
:103830002046FFF7F9FD3D4603E06019FFF79CFDC8
:103840000135B542F9D307E0E35DD8F80020D2682E
:10385000D25D5340E3550137B742F5D30020BDE8B0
:10386000F081022070470320F9E70420F7E70920E0
:10387000F5E778B182B0B0F80110C278ADF8041065
:103880008DF8062002788DF80720019A026000204A
:1038900002B0704702207047002870D070B582B027
:1038A00005460368002B6CD01A6892085A610268BA
:1038B000536907331361026813691B01936003683E
:1038C000D9600368D86800285DD01A68596803F089
:1038D00072FF2B685C6937E001A8FFF7CAFF04E0BC
:1038E00001A83044FFF736FD0136032EF8D99DF8C4
:1038F00004202B685B69B4FBF3F3013B2349794453
:10390000CB5C53408DF8043034E001A83044FFF71D
:1039100021FD0136032EF8D92CE00026FAE72A68AB
:10392000D1685269A21A03EB82028A5C03F1080093
:10393000684410F804CC03EB840082EA0C020A54B9
:103940000133032BEBD901342B681A69B4EB820FD6
:1039500012D2DB68621E53F8223001932B685B6938
:10396000B4FBF3F603FB1646002EB5D0062B01D9A7
:10397000042ED2D00023E4E7002002B070BD022064
:1039800070470920F9E70A20F7E700BF4A6D0000F9
:1039900078B310B5864671B3A2F1100010282CD868
:1039A000194C24FA00FC1CF0010F01D1042010BDB9
:1039B0004FF0000CC3F800C0C3F804C0C3F808C03F
:1039C000C3F80CC0C3F810C0C3F814C0CEF8003060
:1039D000ABB11A60DEF800305960DEF800305B6889
:1039E0007BB102997046FFF757FF0028DFD0012016
:1039F000DDE7022070470320D9E70420D7E70A203B
:103A0000D5E70A20D3E700BF01010100B0B370B5CC
:103A10000E460546012903D0022913D0032010E0E9
:103A2000838823F0020383800023C0F80630C0F8A7
:103A30000A30C0F80E30C0F81230AB883343AB8088
:103A4000002070BD838823F001038380A2B1146835
:103A500050689168D368C5F80640C5F80A00C5F8F3
:103A60000E10C5F81230E8E703F0B0FB2B1998717F
:103A700001340F2CF8D9E0E70024FAE70220704760
:103A80002DE9F04F87B00193DDF840B0119D00287B
:103A900071D092461A46814600296FD0BBF1000FC3
:103AA0006FD0DBF80030CBF800A01046002A6BD0B6
:103AB00053456FD3002D70D0D9F80030002B6FD054
:103AC000524603F078FE4FF00008474628E01A19E6
:103AD000591C18326A4402F8101C0B46C4F110023B
:103AE0009A42F4D8B9F8043013F0020F2AD1B8F191
:103AF000000F36D04FF001085FFA88F802AC0FCC07
:103B000030607160B260F360B9F8043013F0020FF6
:103B100005D002AC0FCC28606960AA60EB6010375A
:103B2000DBF80030BB4231D9AAEB0704102C28BFC8
:103B30001024019BDE192246314602A803F03BFE09
:103B40000023CBE700230F2BD1D803F118020DEB94
:103B5000020111F8102CE85C424001F8102C0133EE
:103B6000F1E7102202A94846FFF7A8FD0028C3D0BC
:103B70004FF00108C0E74FF0020807E04FF00308DC
:103B800004E04FF0060801E04FF00008404607B09F
:103B9000BDE8F08F4FF00B08F8E74FF00708F5E7A6
:103BA0004FF00908F2E72DE9F04F87B00193DDF8F7
:103BB00040A0119D002868D0894690461A46834649
:103BC000002964D0BAF1000F63D0DAF80030CAF8E7
:103BD0000080002A5FD043455FD3002D5FD003688B
:103BE000002B5ED000273E461DE000230AE003F1D3
:103BF00018020DEB020111F8102CE85C424001F8AC
:103C0000102C01330F2BF2D94FB30127FFB2BBF8B1
:103C1000043013F0020F05D002AC0FCC28606960AD
:103C2000AA60EB601036DAF80030B34220D9A8EB76
:103C30000604102C28BF1024224609EB060102A816
:103C400003F0B9FD0023C4F110029A42CDD91A192C
:103C5000591C18326A4402F8101C0B46F3E7102274
:103C600002A95846FFF72AFD0028CFD00127CDE74B
:103C700028686968AA68EB68019C20606160A2609E
:103C8000E360384607B0BDE8F08F0227F9E7032765
:103C9000F7E70627F5E70027F3E70B27F1E7072704
:103CA000EFE70927EDE72DE9F04F87B0DDF8408019
:103CB000119E002867D00F461C468246002964D01A
:103CC00012F00F05019562D1B8F1000F63D0D8F85A
:103CD0000030C8F80020002C5FD09A425FD8002E38
:103CE0005FD00368002B5ED0B0F80490B9F1030FE9
:103CF0005BD809F00303032B59D0B9F1000F58D05A
:103D0000204603F058FD4FF0000E19E0ABEB050222
:103D1000102A28BF102261195046FFF73DFD10BB45
:103D20004FF0000E5FFA8EFE19F0020F27D10DF151
:103D3000080CBCE80F0030607160B260F3601035B1
:103D4000D8F800B0AB451CD97B190DF1080C785997
:103D500059689A68DB68ACE80F00BEF1000FD5D057
:103D60004FF0010EDEE74FF0010EDBE7E918625C71
:103D7000F05C4240625401330F2BF7D9D7E7019B27
:103D8000FAE7002004E0022002E0032000E0042023
:103D900007B0BDE8F08F0620FAE70020F8E70B2017
:103DA000F6E70720F4E70920F2E70C20F0E70C2003
:103DB000EEE70C20ECE72DE9F041D4B006460D46C5
:103DC0001746984600244E944EA844608460C46010
:103DD000046144615C9C24014D940221FFF716FEAE
:103DE00000282FD1202D30D82A4631463FAC20461E
:103DF00003F0E1FCF022002103AE304603F050FC5A
:103E0000009647AB2A4621464EA8FFF7C1FDF8B9F8
:103E1000B8F1010F0CD001974DAB00935B9B4D9A0D
:103E20005A994EA8FFF73FFFA8B954B0BDE8F081FA
:103E300001974DAB00935B9B4D9A5A994EA8FFF7A3
:103E40001FFEF1E76FF48030EFE76FF48030ECE7AE
:103E50006FF48030E9E76FF48030E6E72DE9F04158
:103E6000D4B006460D4690461F4600244E944EA8F8
:103E700044608460C460046144615B9C24014D948F
:103E80000221FFF7C3FD18BB202D24D82A46314656
:103E90003FAC204603F08FFCF022002103AE3046F9
:103EA00003F0FEFB009647AB2A4621464EA8FFF7DB
:103EB0006FFD98B9CDF804804DAB00935A9B4D9A95
:103EC00039464EA8FFF76FFE58B954B0BDE8F081EF
:103ED0006FF48030F9E76FF48030F6E76FF48030EC
:103EE000F3E76FF48030F0E7027B437B1B0443EA87
:103EF0000263827B43EA0223C27B134301331A0E1F
:103F00000273C3F307424273C3F307228273C3737E
:103F100070470A680368534003604A684368534027
:103F200043608A68836853408360CA68C3685340AB
:103F3000C3607047027B437B1B0443EA0263827BBE
:103F400043EA0223C27B13435B08C27A12F0010FDB
:103F500001D043F00043190E0173C3F307414173CD
:103F6000C3F307218173C373017A437A1B0443EAC5
:103F70000163817A43EA012313435B08C27912F09B
:103F8000010F01D043F00043190E0172C3F3074142
:103F90004172C3F307218172C372017943791B0413
:103FA00043EA0163817943EA012313435B08C27842
:103FB00012F0010F01D043F00043190E0171C3F359
:103FC00007414171C3F307218171C37101784378BF
:103FD0001B0443EA0163817843EA01231A43590E23
:103FE0000170C3F347414170C3F347238370C2F3A9
:103FF0004702C27070470023036043608360C36060
:104000007047F0B585B006460B461746002515608B
:1040100055609560D5606C46086849689A68DB68A9
:104020000FC421E069463846FFF773FF0CE068468D
:10403000FFF780FF0134072C15DC735DC4F1070224
:10404000134113F0010FEDD19DF80F3013F0010F64
:10405000EDD06846FFF76EFF9DF8003083F0E10376
:104060008DF80030E6E701350F2D01DC0024E2E792
:1040700005B0F0BD38B514461A4600F087FB05467A
:1040800040B1002323606360A360E36022462146C1
:1040900000F08CFB284638BD2DE9F04F89B0129C0A
:1040A00023B380460D4692469B464FEA131904AE51
:1040B00008684968AA68EB680FC6554600270FE0F4
:1040C000224604AE3146404600F070FB29462046A9
:1040D000FFF71FFF103510343046FFF705FF01379B
:1040E0004F45EDD30AEB0B06761B02D109B0BDE8B4
:1040F000F08F6A4604A9404600F058FB00230AE00E
:1041000015F8012B03F12001694411F8201C4A40E5
:1041100004F8012B0133B342F2D3E7E703B9704748
:10412000F0B587B005468C4614461E460DF1080EC4
:1041300008684968DCF80820DCF80C30AEE80F00AD
:1041400002AF3846FFF7D0FE0C9B00933346224661
:1041500039462846FFF7A0FF07B0F0BD2DE9F04F24
:1041600085B00746894692461C464FEA12180D460E
:10417000002612E029462046FFF7CBFE1035EB461D
:104180005A4639462046FFF73CFFDC46BCE80F00A4
:1041900020606160A260E36001364645EAD3D14405
:1041A000A94502D805B0BDE8F08FA9EB05094A463C
:1041B00029466D46284603F0FEFAC9F11002002197
:1041C00005EB090003F06CFA29462046FFF7A1FE33
:1041D0002A4639462046FFF714FF0FCD2060616064
:1041E000A260E360DEE72DE9F04385B0064689462C
:1041F000144698460C9D0D9F3846FFF7FCFE3B4643
:10420000224649463046FFF7A9FF3B462A4641462B
:104210003046FFF7A3FF00238DF800308DF8013002
:104220008DF802308DF80330C4F347528DF8042026
:10423000C4F347328DF80520C4F347128DF80620E9
:10424000E4008DF807408DF808308DF809308DF8BE
:104250000A308DF80B30C5F347538DF80C30C5F399
:1042600047338DF80D30C5F347138DF80E30EA0053
:104270008DF80F203B46102269463046FFF76EFF4F
:1042800005B0BDE8F083F0B585B006460C461D4686
:104290000C2939D017461846FFF7ADFE2B462246AB
:1042A00031463846FFF75AFF00218DF800108DF88F
:1042B00001108DF802108DF803108DF804108DF8A0
:1042C00005108DF806108DF807108DF808108DF880
:1042D00009108DF80A108DF80B10C4F347538DF8B0
:1042E0000C30C4F347338DF80D30C4F347138DF809
:1042F0000E30E4008DF80F402B46102269463846F8
:10430000FFF72CFF05B0F0BD0A460146184603F042
:1043100052FAC4F110020021281903F0C1F9012357
:10432000EB73EFE72DE9F047CCB016461F46DDF8FA
:1043300054A1DDF8609103AB48AAFFF79BFE48B398
:10434000804644AC234648AD2A4639463046FFF7FE
:104350009AFFCDF800905346549A21464046FFF705
:10436000DDFE40AE0196CDF800A04B46579A569917
:104370002846FFF738FF599B009310233246214609
:104380004046FFF789FE404600F018FA00204CB086
:10439000BDE8F0874FF0FF30F9E72DE9F047D0B0E6
:1043A00016461F46DDF86091DDF864A103AB4CAA08
:1043B000FFF760FE70B3804648AC23464CAD2A46FA
:1043C00039463046FFF75FFF5D9B009353464A46F0
:1043D00021464046FFF7A2FE44AE0196CDF800A06C
:1043E0004B465B9A5A992846FFF7FDFE40AD009573
:1043F0001023324621464046FFF74EFE404600F06D
:10440000DDF9102229465C9803F03AF928B950B03A
:10441000BDE8F0874FF0FF30F9E74FF0FF30F6E7E7
:104420002DE9F04F9A46D74E7E44137854782404F1
:1044300044EA0364937844EA0324D3785C40036835
:104440005C40137992F805E04FEA0E4E4EEA036E97
:1044500093794EEA032ED3798EEA030E43688EEAEF
:10446000030E137A92F809C04FEA0C4C4CEA036C25
:10447000937A4CEA032CD37A8CEA030C83688CEA97
:10448000030C157B537B1B0443EA0563957B43EACE
:104490000523D27B5A40C3685A404FEA610B5FE064
:1044A0003A0EB94BF35853F82240C1F3074253F880
:1044B000222084EA3224C8F3072253F8222084EA17
:1044C00032445FFA89F253F8222084EA32640268A7
:1044D00054400A0E53F82220C8F3074C53F82CE03E
:1044E00082EA3E2EC9F3072253F822208EEA324E8A
:1044F000FAB253F822208EEA326E42688EEA020E39
:104500004FEA186253F82220C9F3074C53F82CC025
:1045100082EA3C2CC7F3072253F822208CEA324C63
:10452000CAB253F822208CEA326C82688CEA020C00
:104530004FEA196953F82920C7F3074753F8277042
:1045400082EA3722C1F3072153F8211082EA31426F
:104550005FFA88F853F8283082EA3362C3685A4019
:10456000210E894BF35853F82170CEF3074153F8CD
:10457000211087EA3127CCF3072153F8211087EA6D
:104580003147D1B253F8211087EA316701694F40B2
:104590004FEA1E6153F82110CCF3074853F82880E6
:1045A00081EA3821C2F3072853F8288081EA38418C
:1045B0005FFA84F853F8288081EA386145696940D8
:1045C0004FEA1C6853F82880C2F3074953F8299032
:1045D00088EA3928C4F3072953F8299088EA39482A
:1045E0005FFA8EF953F8299088EA3968856988EA74
:1045F0000508120E53F82220C4F3074453F8244050
:1046000082EA3429CEF3072E53F82E2089EA324964
:104610005FFA8CFC53F82C3089EA3369C36989EA64
:1046200003092030BBF1010B7FF43AAF3B0E564A31
:10463000B25852F823301B0203F07F43C1F3074402
:1046400052F8244004F47F042343C8F3072452F8AB
:10465000244004F47F4463405FFA89F452F8244014
:10466000C4F307246340046863401C0E8AF80040CA
:10467000C3F307448AF80140C3F307248AF80240D1
:104680008AF803300B0E52F823301B0203F07F43ED
:10469000C8F3074452F8244004F47F042343C9F3C9
:1046A000072452F8244004F47F446340FCB252F8DB
:1046B0002440C4F307246340446863401C0E8AF816
:1046C0000440C3F307448AF80540C3F307248AF87B
:1046D00006408AF807304FEA186352F823301B026D
:1046E00003F07F43C9F3074452F8244004F47F04E5
:1046F0002343C7F3072452F8244004F47F44634063
:10470000CCB252F82440C4F3072463408468634069
:104710001C0E8AF80840C3F307448AF80940C3F323
:1047200007248AF80A408AF80B304FEA196952F8D0
:1047300029301B0203F07F43C7F3074752F8274095
:1047400004F47F042343C1F3072152F8211001F43C
:104750007F414B405FFA88F852F82820C2F30722C5
:104760005340C26853401A0E8AF80C20C3F3074224
:104770008AF80D20C3F307228AF80E208AF80F303A
:10478000BDE8F08FD4BBFF0FAC03000010B514469A
:1047900042B1CA000146204602F00AFB002803DBB2
:1047A000C4F8F000204610BD0024FBE708B513460E
:1047B0000A46D0F8F010FFF733FE08BD08B5F42222
:1047C000002102F06DFF08BD0000000000000000A5
:1047D00070B4C3F10803DB0001330446002003A5D5
:1047E0005B1920C940CAAD1920C4184720C940CA66
:1047F000754120C420C940CA754120C420C940CA9F
:10480000754120C420C940CA754120C420C940CA8E
:10481000754120C420C940CA754120C420C940CA7E
:10482000754120C4404170BC704700BF00000000CB
:1048300070B4C3F10803DB000133002403A500BFFB
:104840005B1920C940CAAD1B20C0184720C940CA07
:10485000B54120C020C940CAB54120C020C940CAC6
:10486000B54120C020C940CAB54120C020C940CAB6
:10487000B54120C020C940CAB54120C020C940CAA6
:10488000B54120C06441B4FA84F0400970BC70475F
:104890002DE9F041013B9B004FF0000C644665465A
:1048A000E646002602E05FEA0E06F61ABEEB0607B1
:1048B00052F807808F59A7FB08781CEB070C54EBC4
:1048C000080455F1000504369E4201DC7645EDDD15
:1048D00040F80EC0A4462C4600251EF1040E9E454D
:1048E000DFDDBEEB430FDEDD40F80EC0BDE8F0813A
:1048F000002304E0002240F8232001335BB28B4206
:10490000F8DB704700231A468B420DDA10B450F8DA
:104910002340224301335BB28B42F8DBB2FA82F0D0
:1049200040095DF8044B7047B3FA83F040097047C3
:104930004B1150F8230001F01F0101238B40184058
:104940007047013949B201E0013949B2002903DB5E
:1049500050F82130002BF7D0481C40B2704710B5FA
:104960000446FFF7EEFF90B1014600F18043013BA2
:1049700054F82330002201E05B080132002BFBD108
:10498000481E80B2400180B2104400B210BD002029
:10499000FCE7002393420BDA10B451F8234040F8AF
:1049A000234001335BB29342F7DB5DF8044B704761
:1049B0007047013A52B2002A14DB10B450F822407A
:1049C00051F822309C4208D809D3013A52B2002A49
:1049D000F4DA00205DF8044B70470120FAE74FF04D
:1049E000FF30F7E700207047013A52B24FF0000C59
:1049F000002A11DB10B450F8223051F822406340F5
:104A00004CEA030C013A52B2002AF4DABCFA8CF0F8
:104A100040095DF8044B7047BCFA8CF040097047C0
:104A200070B588B0164613460A4601466D462846BC
:104A3000FFF7FEFE041E18BF012431462846FFF78B
:104A400061FF6400002814BF6042C4F1010008B097
:104A500070BD00EB8101002307E051F8042C43EA0C
:104A6000520341F8043CD3076146A1F1040C814292
:104A7000F3D8704770B504461D469DF91060334663
:104A8000FFF7A6FE30B9324621462846FFF791FFD0
:104A9000012805D033462A4621462046FFF7C8FEA6
:104AA00070BD70B504461D469DF910603346FFF792
:104AB000BFFE00B970BD33462A4621462046FFF7A7
:104AC00087FEF7E72DE9F047A2B0824691461D46E2
:104AD00002AB00930191AC01A4B229461046FFF746
:104AE0003EFF83B2E41A26B2B046002E11DB48F333
:104AF0004718734206F01F0403F01F0358BF5C42BF
:104B0000414612A8FFF7F4FE002C1ADD00210B46E7
:104B100013E006F11F08EAE759F8237007FA04F0DA
:104B200008EB0302014322A800EB820242F8401C7A
:104B3000C4F1200127FA01F101339D42ECD8012490
:104B40004DE02A46494612A800EB8800FFF721FFF6
:104B5000F5E78B422CBF4FF0000C4FF0010CC4F175
:104B6000010322AF07EB830353F8883C195001324D
:104B700052B2B2EB450F12DA22AB03EB840353F8C7
:104B8000883C900053F8223022A901EB820151F8B1
:104B9000401C591AA1EB0C018B42DAD1DFE76445C6
:104BA00014BF0024012429460DF148084046FFF7B0
:104BB00050FF6B1E22AA02EB830353F8402C22A95C
:104BC00001EB850151F8401C42EAC17243F8402CC8
:104BD000294608EB8500FFF73CFF013E36B2002E68
:104BE00002DB00229446C4E722AB03EB84042A468E
:104BF00054F8881C5046FFF7CCFE22B0BDE8F08781
:104C0000F0B591B005461E469DF958703B466C467E
:104C10002046FFF73DFE3B46324621462846FFF739
:104C200051FF11B0F0BD70B590B006461D4693F926
:104C300000306C462046FFF72BFED5F8B0302146F9
:104C40003046984710B070BD08B513460A46FFF7C6
:104C5000EAFF08BD70B505461446006810F001066D
:104C60000ED121462846FFF7F4FE46B104F18044F8
:104C7000013C55F8243043F0004345F8243070BD22
:104C800013460A4629462846FFF7A2FD0646E8E7EE
:104C9000F0B5A1B007460E4615461C4619463046EB
:104CA000FFF730FEA0B92246314618A8FFF771FE83
:104CB0002246294610A8FFF76CFE214608A8FFF7F8
:104CC00017FE0123089321466846FFF711FE0DE009
:104CD00021463846FFF70CFE75E0214618A8FFF77D
:104CE000B8FE2246294608A8FFF7B4FF224610A9BD
:104CF00018A8FFF75EFE024600285FD0189B13F04D
:104D0000010FEAD0109B13F0010F20D0002A2FDDF5
:104D1000234610AA18AE31463046FFF789FD2146DA
:104D20003046FFF796FE2246694608A8FFF741FE87
:104D3000002816DB23466A4608AE31463046FFF7A8
:104D400077FD224629463046FFF784FFCEE721460D
:104D500010A8FFF77EFE224629466846FFF77AFF35
:104D6000C4E723462A4608A80146FFF731FDE1E7DC
:104D7000234618AA10AE31463046FFF759FD2146AA
:104D80003046FFF766FE224608A96846FFF711FE87
:104D900000280CDB234608AA6E4631463046FFF752
:104DA00047FD224629463046FFF754FF9EE723463B
:104DB0002A4668460146FFF70BFDEBE7224608A9A5
:104DC0003846FFF7E6FD21B0F0BD2DE9F04792B07F
:104DD0000546884614461F462026324600210AA86A
:104DE00002F05EFC3246002102A802F059FC97F95D
:104DF000006031462046FFF785FD10B112B0BDE8D6
:104E0000F0873A4641460DF128094846FFF71CFF56
:104E10003B464A46294602A8FFF705FF3A4649465F
:104E20004846FFF711FF3B46224641464046FFF702
:104E3000FAFE3A4621462046FFF706FF07F104092D
:104E400000964B46224629462846FFF713FE009659
:104E50004B46224621462046FFF70CFE00964B4665
:104E6000224629462046FFF71CFE3B46224629469D
:104E70002846FFF7D8FE00964B462A46294620468C
:104E8000FFF7F8FD00964B46224629462846FFF7D5
:104E9000F1FD00212846FFF74BFD00284DD0334699
:104EA0004A4629462846FFF793FC82463146284663
:104EB000FFF7CFFD06F18043013B55F8232042EA7E
:104EC000CA7245F823203A4629462046FFF7BCFE21
:104ED00000964B460DF1080A524621462046FFF740
:104EE000E0FD00964B46524621462046FFF7D9FD8D
:104EF00000964B46224651465046FFF7D2FD3B46B0
:104F0000524629462846FFF78EFE00964B460AAFCA
:104F10003A4629463846FFF7C4FD32462146284620
:104F2000FFF737FD324641462046FFF732FD324655
:104F300039464046FFF72DFD60E731462846FFF72A
:104F400088FDC0E72DE9F0438BB004460E461546B8
:104F50002022002102AF384602F0A2FB0323029375
:104F600095F900902A4631462046FFF76DFE05F17F
:104F70000408CDF8009043463A4621462046FFF704
:104F800090FD2B46324621462046FFF74CFECDF8D9
:104F90000090434605F1840221462046FFF76AFD52
:104FA0000BB0BDE8F0832DE9F04190B006460D4608
:104FB0004FF02008424600210DEB0804204602F085
:104FC0006FFB0127089742460021684602F068FB04
:104FD0000097294611F9047B3B4622462046FFF7FD
:104FE000F7FB39462046FFF7BAFC84B2013C24B2F5
:104FF00001E0013C24B2012C11DD2A46684601463D
:10500000FFF722FE214608A8FFF792FC0028F0D007
:105010002B46324668460146FFF705FEE9E73A4669
:1050200069463046FFF7B5FC10B0BDE8F0810000DE
:105030002DE9F04188B005460C460822FFF7A9FC8F
:105040004FF00008CDF80880CDF80480CDF800803E
:10505000E36A0393236B0493636B0593A36B06933B
:10506000E36B079308236F463A4639463846FFF705
:10507000AFFB064608233A4629462846FFF7A8FB19
:105080000644236B0393636B0493A36B0593E36B59
:105090000693CDF81C8008233A4639463846FFF778
:1050A00097FB064408233A4629462846FFF790FB1B
:1050B0000644236A0093636A0193A36A0293CDF8BE
:1050C0001480CDF81080CDF80C80A36B0693E36BB1
:1050D000079308233A4629462846FFF779FB0644FA
:1050E000636A0093A36A0193E36A0293636B039379
:1050F000A26B0492E26B05920693236A079308233E
:105100003A4629462846FFF763FB0644E36A0093C4
:10511000236B0193636B0293CDF81480CDF810805C
:10512000CDF80C80236A0693A36A079308233A46B6
:1051300029462846FFF77CFB361A236B0093636BE6
:105140000193A36B0293E36B0393CDF81480CDF826
:105150001080636A0693E36A079308233A46294658
:105160002846FFF765FB361A636B0093A36B019328
:10517000E36B0293236A0393636A0493A36A059320
:10518000CDF81880236B079308233A462946284612
:10519000FFF74EFB361AA36B0093E36B0193CDF838
:1051A0000880636A0393A36A0493E36A0593CDF8C6
:1051B0001880636B079308233A4629462846FFF771
:1051C00037FB361A13D50823104A7A44043229468D
:1051D0002846FFF7FDFA3618F5D413E008230C4AE9
:1051E0007A44043229462846FFF722FB361A002E5D
:1051F000F4D108222946074878440430FFF7D9FB48
:105200000128EBD108B0BDE8F08100BFBEAEFF0FB2
:10521000A8AEFF0F90AEFF0F2DE9F04188B0804699
:105220000E4617461D46202200216C46204602F0FD
:1052300037FA2A4639462046FFF706FD2B46224616
:1052400041464046FFF7EFFC2B463A4621462046B2
:10525000FFF7E9FC2B46224631463046FFF7E3FCD8
:1052600008B0BDE8F0812DE9F04788B006460F464A
:1052700090469946DDF840A0119D20220021684605
:1052800002F00EFA95F90040BAF1000F25D022463F
:1052900051466846FFF77DFB224631464046FFF700
:1052A00078FB224639464846FFF773FB2B466C468F
:1052B000224639463046FFF7AFFF2B462246394695
:1052C0003046D5F8A460B0472B46224649464046B2
:1052D000FFF7A2FF08B0BDE8F08721466846FFF758
:1052E00007FB01230093D7E72DE9F04F8BB08146F0
:1052F0008A4615461E46DDF850B02022002102AC39
:10530000204602F0CDF95F4617F9048BCDF80080F6
:105310003B464A4629462046FFF7C3FB5A462146EC
:105320002046FFF791FC5B46224649464846FFF778
:105330007AFC5B46224629462846FFF774FCCDF8E6
:1053400000803B46524631463046FFF7AAFB5A469C
:1053500031462046FFF778FCCDF800803B464A46B0
:1053600021462046FFF79DFBCDF800803B462A46AC
:1053700021462046FFF795FBCDF800803B464A4684
:1053800029462846FFF78DFB5B462A465146504684
:10539000FFF749FCCDF800803B46224649462846A7
:1053A000FFF77FFB5B462A4631463046FFF73BFC62
:1053B000CDF800803B46524631463046FFF771FB40
:1053C000424621462846FFF7E4FA0BB0BDE8F08FCD
:1053D0002DE9F04F9DB08146039190469B462024D5
:1053E0002246002114AF384602F05AF92246002125
:1053F0000CAE304602F054F9224600210DF1100A9D
:10540000504602F04DF9269C14F9045B00952346A2
:105410004A4641463846FFF744FB269A3946384605
:10542000FFF712FC269B3A4649464846FFF7FBFB2E
:10543000269B3A4641464046FFF7F5FB009523463A
:10544000039A59463846FFF715FB00952346039A01
:1054500059465846FFF725FB009523464A464146E4
:105460003046FFF71EFB269B324603990846FFF79E
:10547000DAFB00952346424649463046FFF7FAFAE2
:10548000269A59464046FFF7DFFB009523463246F1
:1054900041464046FFF705FB0095234642464946F4
:1054A0005046FFF7FEFA269B524659465846FFF7EC
:1054B000BAFB00952346DDF80C8042465946584613
:1054C000FFF7EFFA269A39465046FFF7BDFB0095E5
:1054D0002346324651465046FFF7E3FA00952346ED
:1054E0004A4651463046FFF7DCFA269B3A4631469B
:1054F0003046FFF798FB009523464246314640462A
:10550000FFF7CFFA2A4651464846FFF742FA1DB048
:10551000BDE8F08F2DE9F04FB1B006900D46079130
:1055200092469B46DDF8EC8040242246002120AEC6
:10553000304602F0B5F8224600210DEB040738464C
:1055400002F0AEF8202200210DEB020002F0A8F8D4
:1055500098F900904A46294628AC2046FFF719FAE8
:105560004FEA8903029305EB890303934A461946E0
:1055700018AD2846FFF70DFACDF80480CDF800B03D
:105580003B46324629462046FFF76DFEBDF9E8400E
:10559000023C24B2474623E021465046FFF7C8F9B3
:1055A000B0FA80F04009C0F1010620AD05EB4618C5
:1055B0000DF1400B0BEB461605EB40150BEB401BBA
:1055C00000975B462A4631464046FFF701FF0097A9
:1055D0003346424659462846FFF786FE013C24B230
:1055E000002CD9DCB84600215046FFF7A1F9B0FAEB
:1055F00080F04009C0F1010320AD05EB431710AE68
:1056000006EB431B05EB401206EB4013CDF8008080
:105610000593049259463846FFF7DAFE08F1040A6A
:10562000CDF8009053462A4628A908AC2046FFF73B
:1056300038FA43465A4621462046FFF7F4FA4346D5
:10564000079A21462046FFF7EEFA4B46524621467E
:105650002046FFF71DFB4346039A21462046FFF7ED
:10566000E2FA43463A4621462046FFF7DCFACDF8F7
:1056700000805B463A4605990498FFF735FE43469D
:10568000224631462846FFF7C7FD4A462946069C72
:105690002046FFF77EF94A4631462046029B1844D1
:1056A000FFF777F931B0BDE8F08F2DE9F0410E46F4
:1056B0001746B3F9028018F11F0515D445F34715B5
:1056C00003F124042B46224601463046FFF780F8BA
:1056D00060B9B8EB451F14DA41463046FFF728F9A8
:1056E00090B94FF0000803E01F35E7E74FF00108DD
:1056F0002B46224631463846FFF76AF84046BDE859
:10570000F0814FF00008F3E74FF00108F0E74FF0A9
:10571000000C8C4514DA10B44B1EA3EB0C0323F0E1
:105720000304145903F00303DB0024FA03F300F825
:105730000C300CF1010C8C45EEDB5DF8044B70472E
:10574000704770B505460E461446D11C07D441F388
:1057500087012846FFF7CCF84FF0000C12E0033128
:10576000F5E7631EA3EB0C0323F003002A5816F899
:105770000C1003F00303DB0001FA03F31A432A5071
:105780000CF1010CA445ECDB70BD00002DE9F041EB
:1057900005468846144611464046FFF7E0F81A4B86
:1057A0007B441B6873B30746002600E001363F2E9A
:1057B00024D8164B7B441B68A10028469847034613
:1057C000E8B104F18043013B55F82320C7EB4410B6
:1057D00000B24FF0FF31C1400A4045F82320214676
:1057E0002846FFF78FF80028E0D122462946404698
:1057F000FFF716F90128D9D1012300E0002318464C
:10580000BDE8F0810023FAE7FCCCFF0FE8CCFF0FE6
:105810002DE9F843044689461D46B3F902C01CF140
:10582000070320D4DB1098461CF11F0C1DD44FEA4F
:105830006C17934200D390467EB231462046FFF764
:1058400057F8424649462046FFF77BFF4FEAC80219
:10585000B5F90230B3EBC80F23D2D21A04EB870C90
:105860004FF0000E11E00733DCE70CF11F0CDEE710
:105870005CF8043C23FA02F141EA0E014CF8041CE6
:10588000C2F1200E03FA0EFE8446ACF10400A445DA
:10589000EED82435324621462846FFF78AF80128FB
:1058A00001D1BDE8F88333462A4621462046FEF75B
:1058B000BFFFF6E72DE9F04FA7B081460391904670
:1058C0001C46319E1EAB149316AB159396F900A09F
:1058D000B6F9027017F11F050AD445F34715514672
:1058E0002046FFF70FF828B1002027B0BDE8F08F61
:1058F0001F35F2E706F1240B2A4621465846FFF7EA
:105900008FF80128F0D1334616AA1EA92046FFF7CA
:10591000CCFEB0FA80F0400926AB03EB80000137E3
:1059200001963FB20097002350F8482C06F144013D
:1059300004AF3846FFF7EEFD51463846FEF7E2FF6A
:10594000002874D13B4B7B441B68002B5FD02A4658
:1059500059461EA8FFF71AFF0028C6D000955B46DF
:105960001EAF3A4621462046FFF74AF92B465A46D3
:1059700021462046FFF78CF900955B463A462146C2
:105980002046FFF73DF904AA96F901103098FFF779
:10599000BEFEB6F90220073240D4D21049461EAFEF
:1059A0003846FFF7CEFE6B1E26AA02EB83030022C9
:1059B00043F8402C524604A90DF158094846FEF719
:1059C000E8FF00955B464A4639464846FFF718F916
:1059D0003346424603993846FFF71AFF00955B4667
:1059E0004A4639464846FFF745F800955B46224649
:1059F00049464846FFF704F929464846FEF7AFFFF7
:105A000096F90110B0EBC10F0ADD00206DE72946C1
:105A10001EA8FEF76DFF01231E939FE70732BCE728
:105A20004A46309B5818FFF772FE01205DE70020C0
:105A30005BE700BF56CBFF0F8842B8BF08467047F0
:105A4000014B7B44186070475ACAFF0F01487844E5
:105A5000704700BF3AA6FF0F2DE9F0438BB0814697
:105A6000884617461E46129C002510E042F3471256
:105A700002A8FFF78BFE0346B0B10194009602AB7B
:105A80003A4641464846FFF715FF60B901353F2DBC
:105A900007D804F12401B4F902201F32E6D51F32E1
:105AA000E4E7002300E0012318460BB0BDE8F083D3
:105AB0002DE9F04FFFB08046059106921F46889C65
:105AC00020252A46002176A801F0EAFD2A46002179
:105AD0006EA801F0E5FD2A46002166A801F0E0FD70
